{"abi":[{"type":"function","name":"allowance","inputs":[{"name":"","type":"address","internalType":"address"},{"name":"","type":"address","internalType":"address"}],"outputs":[{"name":"","type":"uint256","internalType":"uint256"}],"stateMutability":"view"},{"type":"function","name":"approve","inputs":[{"name":"spender","type":"address","internalType":"address"},{"name":"amount","type":"uint256","internalType":"uint256"}],"outputs":[{"name":"","type":"bool","internalType":"bool"}],"stateMutability":"nonpayable"},{"type":"function","name":"balanceOf","inputs":[{"name":"","type":"address","internalType":"address"}],"outputs":[{"name":"","type":"uint256","internalType":"uint256"}],"stateMutability":"view"},{"type":"function","name":"decimals","inputs":[],"outputs":[{"name":"","type":"uint8","internalType":"uint8"}],"stateMutability":"view"},{"type":"function","name":"mint","inputs":[{"name":"to","type":"address","internalType":"address"},{"name":"amount","type":"uint256","internalType":"uint256"}],"outputs":[],"stateMutability":"nonpayable"},{"type":"function","name":"name","inputs":[],"outputs":[{"name":"","type":"string","internalType":"string"}],"stateMutability":"view"},{"type":"function","name":"symbol","inputs":[],"outputs":[{"name":"","type":"string","internalType":"string"}],"stateMutability":"view"},{"type":"function","name":"transfer","inputs":[{"name":"to","type":"address","internalType":"address"},{"name":"amount","type":"uint256","internalType":"uint256"}],"outputs":[{"name":"","type":"bool","internalType":"bool"}],"stateMutability":"nonpayable"},{"type":"function","name":"transferFrom","inputs":[{"name":"from","type":"address","internalType":"address"},{"name":"to","type":"address","internalType":"address"},{"name":"amount","type":"uint256","internalType":"uint256"}],"outputs":[{"name":"","type":"bool","internalType":"bool"}],"stateMutability":"nonpayable"},{"type":"event","name":"Approval","inputs":[{"name":"owner","type":"address","indexed":true,"internalType":"address"},{"name":"spender","type":"address","indexed":true,"internalType":"address"},{"name":"value","type":"uint256","indexed":false,"internalType":"uint256"}],"anonymous":false},{"type":"event","name":"Transfer","inputs":[{"name":"from","type":"address","indexed":true,"internalType":"address"},{"name":"to","type":"address","indexed":true,"internalType":"address"},{"name":"value","type":"uint256","indexed":false,"internalType":"uint256"}],"anonymous":false}],"bytecode":{"object":"0x60c06040526009608090815268135bd8dac81554d11560ba1b60a0525f906100279082610107565b506040805180820190915260048152631554d11560e21b60208201526001906100509082610107565b506002805460ff19166006179055348015610069575f5ffd5b506101c1565b634e487b7160e01b5f52604160045260245ffd5b600181811c9082168061009757607f821691505b6020821081036100b557634e487b7160e01b5f52602260045260245ffd5b50919050565b601f82111561010257805f5260205f20601f840160051c810160208510156100e05750805b601f840160051c820191505b818110156100ff575f81556001016100ec565b50505b505050565b81516001600160401b038111156101205761012061006f565b6101348161012e8454610083565b846100bb565b6020601f821160018114610166575f831561014f5750848201515b5f19600385901b1c1916600184901b1784556100ff565b5f84815260208120601f198516915b828110156101955787850151825560209485019460019092019101610175565b50848210156101b257868401515f19600387901b60f8161c191681555b50505050600190811b01905550565b61082f806101ce5f395ff3fe608060405234801561000f575f5ffd5b506004361061009f575f3560e01c806340c10f191161007257806395d89b411161005857806395d89b4114610158578063a9059cbb14610160578063dd62ed3e14610173575f5ffd5b806340c10f191461011657806370a082311461012b575f5ffd5b806306fdde03146100a3578063095ea7b3146100c157806323b872dd146100e4578063313ce567146100f7575b5f5ffd5b6100ab61019d565b6040516100b89190610627565b60405180910390f35b6100d46100cf3660046106a2565b610228565b60405190151581526020016100b8565b6100d46100f23660046106ca565b6102a1565b6002546101049060ff1681565b60405160ff90911681526020016100b8565b6101296101243660046106a2565b6103b8565b005b61014a610139366004610704565b60036020525f908152604090205481565b6040519081526020016100b8565b6100ab610442565b6100d461016e3660046106a2565b61044f565b61014a610181366004610724565b600460209081525f928352604080842090915290825290205481565b5f80546101a990610755565b80601f01602080910402602001604051908101604052809291908181526020018280546101d590610755565b80156102205780601f106101f757610100808354040283529160200191610220565b820191905f5260205f20905b81548152906001019060200180831161020357829003601f168201915b505050505081565b335f81815260046020908152604080832073ffffffffffffffffffffffffffffffffffffffff8716808552925280832085905551919290917f8c5be1e5ebec7d5bd14f71427d1e84f3dd0314c0f7b2291e5b200ac8c7c3b9259061028f9086815260200190565b60405180910390a35060015b92915050565b73ffffffffffffffffffffffffffffffffffffffff83165f90815260046020908152604080832033845290915281205482811015610340576040517f08c379a000000000000000000000000000000000000000000000000000000000815260206004820152601660248201527f494e53554646494349454e545f414c4c4f57414e43450000000000000000000060448201526064015b60405180910390fd5b7fffffffffffffffffffffffffffffffffffffffffffffffffffffffffffffffff81146103a25761037183826107d3565b73ffffffffffffffffffffffffffffffffffffffff86165f9081526004602090815260408083203384529091529020555b6103ad858585610464565b506001949350505050565b73ffffffffffffffffffffffffffffffffffffffff82165f90815260036020526040812080548392906103ec9084906107e6565b909155505060405181815273ffffffffffffffffffffffffffffffffffffffff8316905f907fddf252ad1be2c89b69c2b068fc378daa952ba7f163c4a11628f55a4df523b3ef9060200160405180910390a35050565b600180546101a990610755565b5f61045b338484610464565b50600192915050565b73ffffffffffffffffffffffffffffffffffffffff82166104e1576040517f08c379a000000000000000000000000000000000000000000000000000000000815260206004820152600660248201527f4241445f544f00000000000000000000000000000000000000000000000000006044820152606401610337565b73ffffffffffffffffffffffffffffffffffffffff83165f9081526003602052604090205481811015610570576040517f08c379a000000000000000000000000000000000000000000000000000000000815260206004820152601460248201527f494e53554646494349454e545f42414c414e43450000000000000000000000006044820152606401610337565b73ffffffffffffffffffffffffffffffffffffffff8085165f908152600360205260408082208585039055918516815290812080548492906105b39084906107e6565b925050819055508273ffffffffffffffffffffffffffffffffffffffff168473ffffffffffffffffffffffffffffffffffffffff167fddf252ad1be2c89b69c2b068fc378daa952ba7f163c4a11628f55a4df523b3ef8460405161061991815260200190565b60405180910390a350505050565b602081525f82518060208401528060208501604085015e5f6040828501015260407fffffffffffffffffffffffffffffffffffffffffffffffffffffffffffffffe0601f83011684010191505092915050565b803573ffffffffffffffffffffffffffffffffffffffff8116811461069d575f5ffd5b919050565b5f5f604083850312156106b3575f5ffd5b6106bc8361067a565b946020939093013593505050565b5f5f5f606084860312156106dc575f5ffd5b6106e58461067a565b92506106f36020850161067a565b929592945050506040919091013590565b5f60208284031215610714575f5ffd5b61071d8261067a565b9392505050565b5f5f60408385031215610735575f5ffd5b61073e8361067a565b915061074c6020840161067a565b90509250929050565b600181811c9082168061076957607f821691505b6020821081036107a0577f4e487b71000000000000000000000000000000000000000000000000000000005f52602260045260245ffd5b50919050565b7f4e487b71000000000000000000000000000000000000000000000000000000005f52601160045260245ffd5b8181038181111561029b5761029b6107a6565b8082018082111561029b5761029b6107a656fea2646970667358221220b0ba947e4e2b7357a890e975c32a3784763cfac9ffd1e868dcf808597cef654264736f6c634300081d0033","linkReferences":{}},"methodIdentifiers":{"allowance(address,address)":"dd62ed3e","approve(address,uint256)":"095ea7b3","balanceOf(address)":"70a08231","decimals()":"313ce567","mint(address,uint256)":"40c10f19","name()":"06fdde03","symbol()":"95d89b41","transfer(address,uint256)":"a9059cbb","transferFrom(address,address,uint256)":"23b872dd"},"id":47}