{"abi":[{"type":"constructor","inputs":[],"stateMutability":"nonpayable"},{"type":"function","name":"AcceptEscrow","inputs":[{"name":"escrowID","type":"uint256","internalType":"uint256"}],"outputs":[],"stateMutability":"nonpayable"},{"type":"function","name":"CreateDispute","inputs":[{"name":"escrowID","type":"uint256","internalType":"uint256"},{"name":"amountinUSD","type":"uint256","internalType":"uint256"}],"outputs":[],"stateMutability":"nonpayable"},{"type":"function","name":"CreateEscrow","inputs":[{"name":"detailsURI","type":"string","internalType":"string"},{"name":"toAddress","type":"address","internalType":"address"},{"name":"tokenAddress","type":"address","internalType":"address"},{"name":"amountInUSDT","type":"uint256","internalType":"uint256"},{"name":"feeinPPM","type":"uint256","internalType":"uint256"},{"name":"deadline","type":"uint256","internalType":"uint256"},{"name":"disputeType","type":"uint8","internalType":"enum EscrowPayment.DisputeType"}],"outputs":[],"stateMutability":"nonpayable"},{"type":"function","name":"Initialize","inputs":[{"name":"feeWalletAddress","type":"address","internalType":"address"},{"name":"swapandBurnContractAddress","type":"address","internalType":"address"},{"name":"tomiDisputeaddress","type":"address","internalType":"address"},{"name":"usdtAddress","type":"address","internalType":"address"}],"outputs":[],"stateMutability":"nonpayable"},{"type":"function","name":"PPM","inputs":[],"outputs":[{"name":"","type":"uint256","internalType":"uint256"}],"stateMutability":"view"},{"type":"function","name":"RefundEscrow","inputs":[{"name":"escrowID","type":"uint256","internalType":"uint256"}],"outputs":[],"stateMutability":"nonpayable"},{"type":"function","name":"ReleaseEscrow","inputs":[{"name":"escrowID","type":"uint256","internalType":"uint256"}],"outputs":[],"stateMutability":"nonpayable"},{"type":"function","name":"SubmitEscrow","inputs":[{"name":"escrowID","type":"uint256","internalType":"uint256"},{"name":"submissionURI","type":"string","internalType":"string"}],"outputs":[],"stateMutability":"nonpayable"},{"type":"function","name":"UPGRADE_INTERFACE_VERSION","inputs":[],"outputs":[{"name":"","type":"string","internalType":"string"}],"stateMutability":"view"},{"type":"function","name":"escrowId","inputs":[],"outputs":[{"name":"","type":"uint256","internalType":"uint256"}],"stateMutability":"view"},{"type":"function","name":"escrowPlatformFee","inputs":[],"outputs":[{"name":"","type":"uint256","internalType":"uint256"}],"stateMutability":"view"},{"type":"function","name":"escrows","inputs":[{"name":"escrowID","type":"uint256","internalType":"uint256"}],"outputs":[{"name":"escrowDetialsURI","type":"string","internalType":"string"},{"name":"submissionURI","type":"string","internalType":"string"},{"name":"fromAddress","type":"address","internalType":"address"},{"name":"toAddress","type":"address","internalType":"address"},{"name":"tokenAddress","type":"address","internalType":"address"},{"name":"tokenAmount","type":"uint256","internalType":"uint256"},{"name":"feeinPPM","type":"uint256","internalType":"uint256"},{"name":"submissionDeadline","type":"uint256","internalType":"uint256"},{"name":"status","type":"uint8","internalType":"enum EscrowPayment.EscrowStatus"},{"name":"disputeType","type":"uint8","internalType":"enum EscrowPayment.DisputeType"}],"stateMutability":"view"},{"type":"function","name":"escrowtoDispute","inputs":[{"name":"escrowID","type":"uint256","internalType":"uint256"}],"outputs":[{"name":"disputeContract","type":"address","internalType":"address"},{"name":"winnerAddress","type":"address","internalType":"address"},{"name":"status","type":"uint8","internalType":"enum EscrowPayment.DisputeStatus"}],"stateMutability":"view"},{"type":"function","name":"feeWallet","inputs":[],"outputs":[{"name":"","type":"address","internalType":"address"}],"stateMutability":"view"},{"type":"function","name":"miniDisputeDealSizeFee","inputs":[],"outputs":[{"name":"","type":"uint256","internalType":"uint256"}],"stateMutability":"view"},{"type":"function","name":"owner","inputs":[],"outputs":[{"name":"","type":"address","internalType":"address"}],"stateMutability":"view"},{"type":"function","name":"proxiableUUID","inputs":[],"outputs":[{"name":"","type":"bytes32","internalType":"bytes32"}],"stateMutability":"view"},{"type":"function","name":"regularDisputeDealSizeFee","inputs":[],"outputs":[{"name":"","type":"uint256","internalType":"uint256"}],"stateMutability":"view"},{"type":"function","name":"renounceOwnership","inputs":[],"outputs":[],"stateMutability":"nonpayable"},{"type":"function","name":"resolveDispute","inputs":[{"name":"escrowID","type":"uint256","internalType":"uint256"}],"outputs":[],"stateMutability":"nonpayable"},{"type":"function","name":"swapandBurnContract","inputs":[],"outputs":[{"name":"","type":"address","internalType":"address"}],"stateMutability":"view"},{"type":"function","name":"tomiDisputeAddress","inputs":[],"outputs":[{"name":"","type":"address","internalType":"contract ITomiDispute"}],"stateMutability":"view"},{"type":"function","name":"transferOwnership","inputs":[{"name":"newOwner","type":"address","internalType":"address"}],"outputs":[],"stateMutability":"nonpayable"},{"type":"function","name":"upgradeToAndCall","inputs":[{"name":"newImplementation","type":"address","internalType":"address"},{"name":"data","type":"bytes","internalType":"bytes"}],"outputs":[],"stateMutability":"payable"},{"type":"function","name":"usdtToken","inputs":[],"outputs":[{"name":"","type":"address","internalType":"address"}],"stateMutability":"view"},{"type":"event","name":"EscrowAccepted","inputs":[{"name":"escrowdetails","type":"tuple","indexed":false,"internalType":"struct EscrowPayment.Escrow","components":[{"name":"escrowDetialsURI","type":"string","internalType":"string"},{"name":"submissionURI","type":"string","internalType":"string"},{"name":"fromAddress","type":"address","internalType":"address"},{"name":"toAddress","type":"address","internalType":"address"},{"name":"tokenAddress","type":"address","internalType":"address"},{"name":"tokenAmount","type":"uint256","internalType":"uint256"},{"name":"feeinPPM","type":"uint256","internalType":"uint256"},{"name":"submissionDeadline","type":"uint256","internalType":"uint256"},{"name":"status","type":"uint8","internalType":"enum EscrowPayment.EscrowStatus"},{"name":"disputeType","type":"uint8","internalType":"enum EscrowPayment.DisputeType"}]}],"anonymous":false},{"type":"event","name":"EscrowCreated","inputs":[{"name":"escrowdetails","type":"tuple","indexed":false,"internalType":"struct EscrowPayment.Escrow","components":[{"name":"escrowDetialsURI","type":"string","internalType":"string"},{"name":"submissionURI","type":"string","internalType":"string"},{"name":"fromAddress","type":"address","internalType":"address"},{"name":"toAddress","type":"address","internalType":"address"},{"name":"tokenAddress","type":"address","internalType":"address"},{"name":"tokenAmount","type":"uint256","internalType":"uint256"},{"name":"feeinPPM","type":"uint256","internalType":"uint256"},{"name":"submissionDeadline","type":"uint256","internalType":"uint256"},{"name":"status","type":"uint8","internalType":"enum EscrowPayment.EscrowStatus"},{"name":"disputeType","type":"uint8","internalType":"enum EscrowPayment.DisputeType"}]},{"name":"escrowFee","type":"uint256","indexed":false,"internalType":"uint256"}],"anonymous":false},{"type":"event","name":"EscrowRefunded","inputs":[{"name":"escrowdetails","type":"tuple","indexed":false,"internalType":"struct EscrowPayment.Escrow","components":[{"name":"escrowDetialsURI","type":"string","internalType":"string"},{"name":"submissionURI","type":"string","internalType":"string"},{"name":"fromAddress","type":"address","internalType":"address"},{"name":"toAddress","type":"address","internalType":"address"},{"name":"tokenAddress","type":"address","internalType":"address"},{"name":"tokenAmount","type":"uint256","internalType":"uint256"},{"name":"feeinPPM","type":"uint256","internalType":"uint256"},{"name":"submissionDeadline","type":"uint256","internalType":"uint256"},{"name":"status","type":"uint8","internalType":"enum EscrowPayment.EscrowStatus"},{"name":"disputeType","type":"uint8","internalType":"enum EscrowPayment.DisputeType"}]}],"anonymous":false},{"type":"event","name":"EscrowReleased","inputs":[{"name":"escrowdetails","type":"tuple","indexed":false,"internalType":"struct EscrowPayment.Escrow","components":[{"name":"escrowDetialsURI","type":"string","internalType":"string"},{"name":"submissionURI","type":"string","internalType":"string"},{"name":"fromAddress","type":"address","internalType":"address"},{"name":"toAddress","type":"address","internalType":"address"},{"name":"tokenAddress","type":"address","internalType":"address"},{"name":"tokenAmount","type":"uint256","internalType":"uint256"},{"name":"feeinPPM","type":"uint256","internalType":"uint256"},{"name":"submissionDeadline","type":"uint256","internalType":"uint256"},{"name":"status","type":"uint8","internalType":"enum EscrowPayment.EscrowStatus"},{"name":"disputeType","type":"uint8","internalType":"enum EscrowPayment.DisputeType"}]},{"name":"amountReleased","type":"uint256","indexed":false,"internalType":"uint256"},{"name":"feeForSwapandBurn","type":"uint256","indexed":false,"internalType":"uint256"}],"anonymous":false},{"type":"event","name":"EscrowSubmitted","inputs":[{"name":"escrowdetails","type":"tuple","indexed":false,"internalType":"struct EscrowPayment.Escrow","components":[{"name":"escrowDetialsURI","type":"string","internalType":"string"},{"name":"submissionURI","type":"string","internalType":"string"},{"name":"fromAddress","type":"address","internalType":"address"},{"name":"toAddress","type":"address","internalType":"address"},{"name":"tokenAddress","type":"address","internalType":"address"},{"name":"tokenAmount","type":"uint256","internalType":"uint256"},{"name":"feeinPPM","type":"uint256","internalType":"uint256"},{"name":"submissionDeadline","type":"uint256","internalType":"uint256"},{"name":"status","type":"uint8","internalType":"enum EscrowPayment.EscrowStatus"},{"name":"disputeType","type":"uint8","internalType":"enum EscrowPayment.DisputeType"}]}],"anonymous":false},{"type":"event","name":"Initialized","inputs":[{"name":"version","type":"uint64","indexed":false,"internalType":"uint64"}],"anonymous":false},{"type":"event","name":"OwnershipTransferred","inputs":[{"name":"previousOwner","type":"address","indexed":true,"internalType":"address"},{"name":"newOwner","type":"address","indexed":true,"internalType":"address"}],"anonymous":false},{"type":"event","name":"Upgraded","inputs":[{"name":"implementation","type":"address","indexed":true,"internalType":"address"}],"anonymous":false},{"type":"error","name":"AddressEmptyCode","inputs":[{"name":"target","type":"address","internalType":"address"}]},{"type":"error","name":"ERC1967InvalidImplementation","inputs":[{"name":"implementation","type":"address","internalType":"address"}]},{"type":"error","name":"ERC1967NonPayable","inputs":[]},{"type":"error","name":"EscrowExpired","inputs":[]},{"type":"error","name":"EscrowNotExpiredYet","inputs":[]},{"type":"error","name":"FailedCall","inputs":[]},{"type":"error","name":"InDispute","inputs":[]},{"type":"error","name":"InsufficientAllowance","inputs":[]},{"type":"error","name":"InvalidDisputeType","inputs":[]},{"type":"error","name":"InvalidFee","inputs":[]},{"type":"error","name":"InvalidInitialization","inputs":[]},{"type":"error","name":"InvalidTime","inputs":[]},{"type":"error","name":"NotInDispute","inputs":[]},{"type":"error","name":"NotInitializing","inputs":[]},{"type":"error","name":"OnlyAcceptedOneAreAllowed","inputs":[]},{"type":"error","name":"OnlyCreatedOneAreAllowed","inputs":[]},{"type":"error","name":"OnlySubmittedOneAreAllowed","inputs":[]},{"type":"error","name":"OnlyUsdtAllowed","inputs":[]},{"type":"error","name":"OwnableInvalidOwner","inputs":[{"name":"owner","type":"address","internalType":"address"}]},{"type":"error","name":"OwnableUnauthorizedAccount","inputs":[{"name":"account","type":"address","internalType":"address"}]},{"type":"error","name":"SafeERC20FailedOperation","inputs":[{"name":"token","type":"address","internalType":"address"}]},{"type":"error","name":"UUPSUnauthorizedCallContext","inputs":[]},{"type":"error","name":"UUPSUnsupportedProxiableUUID","inputs":[{"name":"slot","type":"bytes32","internalType":"bytes32"}]},{"type":"error","name":"WinnnerNotRevealedYet","inputs":[]},{"type":"error","name":"YouAreNotAuthorized","inputs":[]},{"type":"error","name":"ZeroAddress","inputs":[]},{"type":"error","name":"ZeroAmount","inputs":[]}],"bytecode":{"object":"0x60a06040523073ffffffffffffffffffffffffffffffffffffffff1660809073ffffffffffffffffffffffffffffffffffffffff16815250348015610042575f5ffd5b5061005161005660201b60201c565b6101d1565b5f61006561015460201b60201c565b9050805f0160089054906101000a900460ff16156100af576040517ff92ee8a900000000000000000000000000000000000000000000000000000000815260040160405180910390fd5b67ffffffffffffffff8016815f015f9054906101000a900467ffffffffffffffff1667ffffffffffffffff16146101515767ffffffffffffffff815f015f6101000a81548167ffffffffffffffff021916908367ffffffffffffffff1602179055507fc7f505b2f371ae2175ee4913f4499e1f2633a7b5936321eed1cdaeb6115181d267ffffffffffffffff60405161014891906101b8565b60405180910390a15b50565b5f5f61016461016d60201b60201c565b90508091505090565b5f7ff0c57e16840df040f15088dc2f81fe391c3923bec73e23a9662efc9c229c6a005f1b905090565b5f67ffffffffffffffff82169050919050565b6101b281610196565b82525050565b5f6020820190506101cb5f8301846101a9565b92915050565b6080516147f66101f75f395f8181612b0c01528181612b610152612d1b01526147f65ff3fe608060405260043610610165575f3560e01c80638da5cb5b116100d0578063af07c7c711610089578063cda54b1411610063578063cda54b14146104dc578063f25f4b5614610504578063f2fde38b1461052e578063f6f751091461055657610165565b8063af07c7c714610462578063c0741b081461048a578063c2b7b868146104b457610165565b80638da5cb5b1461035457806398a06cdc1461037e578063a2ec3594146103a8578063a6a3d199146103e6578063a98ad46c1461040e578063ad3cb1cc1461043857610165565b80634f1ef286116101225780634f1ef2861461027c57806352d1902d146102985780635753d989146102c25780635cec5548146102ec578063715018a61461031457806383d4da021461032a57610165565b8063012f52ee14610169578063059f8454146101ae5780630d720bbc146101d857806332b094fa146102025780633ac793f41461022c578063420f11aa14610254575b5f5ffd5b348015610174575f5ffd5b5061018f600480360381019061018a91906133d0565b61057e565b6040516101a59a99989796959493929190613572565b60405180910390f35b3480156101b9575f5ffd5b506101c2610750565b6040516101cf919061361a565b60405180910390f35b3480156101e3575f5ffd5b506101ec610756565b6040516101f9919061361a565b60405180910390f35b34801561020d575f5ffd5b5061021661075d565b6040516102239190613633565b60405180910390f35b348015610237575f5ffd5b50610252600480360381019061024d91906133d0565b610782565b005b34801561025f575f5ffd5b5061027a60048036038101906102759190613676565b6109a5565b005b61029660048036038101906102919190613806565b610c84565b005b3480156102a3575f5ffd5b506102ac610ca3565b6040516102b99190613878565b60405180910390f35b3480156102cd575f5ffd5b506102d6610cd4565b6040516102e3919061361a565b60405180910390f35b3480156102f7575f5ffd5b50610312600480360381019061030d91906133d0565b610cda565b005b34801561031f575f5ffd5b50610328610fe0565b005b348015610335575f5ffd5b5061033e610ff3565b60405161034b91906138ec565b60405180910390f35b34801561035f575f5ffd5b50610368611017565b6040516103759190613633565b60405180910390f35b348015610389575f5ffd5b5061039261104c565b60405161039f919061361a565b60405180910390f35b3480156103b3575f5ffd5b506103ce60048036038101906103c991906133d0565b611052565b6040516103dd9392919061394b565b60405180910390f35b3480156103f1575f5ffd5b5061040c60048036038101906104079190613980565b6110c3565b005b348015610419575f5ffd5b506104226118b8565b60405161042f9190613633565b60405180910390f35b348015610443575f5ffd5b5061044c6118dd565b60405161045991906139be565b60405180910390f35b34801561046d575f5ffd5b5061048860048036038101906104839190613a7c565b611916565b005b348015610495575f5ffd5b5061049e611a9a565b6040516104ab919061361a565b60405180910390f35b3480156104bf575f5ffd5b506104da60048036038101906104d591906133d0565b611aa0565b005b3480156104e7575f5ffd5b5061050260048036038101906104fd9190613af9565b611fd6565b005b34801561050f575f5ffd5b5061051861281e565b6040516105259190613633565b60405180910390f35b348015610539575f5ffd5b50610554600480360381019061054f9190613bb2565b612843565b005b348015610561575f5ffd5b5061057c600480360381019061057791906133d0565b6128c7565b005b6005602052805f5260405f205f91509050805f01805461059d90613c0a565b80601f01602080910402602001604051908101604052809291908181526020018280546105c990613c0a565b80156106145780601f106105eb57610100808354040283529160200191610614565b820191905f5260205f20905b8154815290600101906020018083116105f757829003601f168201915b50505050509080600101805461062990613c0a565b80601f016020809104026020016040519081016040528092919081815260200182805461065590613c0a565b80156106a05780601f10610677576101008083540402835291602001916106a0565b820191905f5260205f20905b81548152906001019060200180831161068357829003601f168201915b505050505090806002015f9054906101000a900473ffffffffffffffffffffffffffffffffffffffff1690806003015f9054906101000a900473ffffffffffffffffffffffffffffffffffffffff1690806004015f9054906101000a900473ffffffffffffffffffffffffffffffffffffffff1690806005015490806006015490806007015490806008015f9054906101000a900460ff16908060080160019054906101000a900460ff1690508a565b61138881565b620f424081565b60035f9054906101000a900473ffffffffffffffffffffffffffffffffffffffff1681565b5f60055f8381526020019081526020015f2090503373ffffffffffffffffffffffffffffffffffffffff16816002015f9054906101000a900473ffffffffffffffffffffffffffffffffffffffff1673ffffffffffffffffffffffffffffffffffffffff161461081e576040517fc7e1fa0900000000000000000000000000000000000000000000000000000000815260040160405180910390fd5b5f6005811115610831576108306134b9565b5b816008015f9054906101000a900460ff166005811115610854576108536134b9565b5b1461088b576040517f340eba5300000000000000000000000000000000000000000000000000000000815260040160405180910390fd5b42816007015411156108c9576040517f244bf27000000000000000000000000000000000000000000000000000000000815260040160405180910390fd5b6004816008015f6101000a81548160ff021916908360058111156108f0576108ef6134b9565b5b021790555061096a30826002015f9054906101000a900473ffffffffffffffffffffffffffffffffffffffff16836005015460045f9054906101000a900473ffffffffffffffffffffffffffffffffffffffff1673ffffffffffffffffffffffffffffffffffffffff16612a75909392919063ffffffff16565b7f81d538679dddab34d84d65b3b1e62fbad528fb0418d049dacd14e2176a4c251e816040516109999190613f01565b60405180910390a15050565b5f6109ae612af7565b90505f815f0160089054906101000a900460ff161590505f825f015f9054906101000a900467ffffffffffffffff1690505f5f8267ffffffffffffffff161480156109f65750825b90505f60018367ffffffffffffffff16148015610a2957505f3073ffffffffffffffffffffffffffffffffffffffff163b145b905081158015610a37575080155b15610a6e576040517ff92ee8a900000000000000000000000000000000000000000000000000000000815260040160405180910390fd5b6001855f015f6101000a81548167ffffffffffffffff021916908367ffffffffffffffff1602179055508315610abb576001855f0160086101000a81548160ff0219169083151502179055505b5f73ffffffffffffffffffffffffffffffffffffffff168973ffffffffffffffffffffffffffffffffffffffff1603610b20576040517fd92e233d00000000000000000000000000000000000000000000000000000000815260040160405180910390fd5b8760035f6101000a81548173ffffffffffffffffffffffffffffffffffffffff021916908373ffffffffffffffffffffffffffffffffffffffff1602179055508860025f6101000a81548173ffffffffffffffffffffffffffffffffffffffff021916908373ffffffffffffffffffffffffffffffffffffffff160217905550865f5f6101000a81548173ffffffffffffffffffffffffffffffffffffffff021916908373ffffffffffffffffffffffffffffffffffffffff1602179055508560045f6101000a81548173ffffffffffffffffffffffffffffffffffffffff021916908373ffffffffffffffffffffffffffffffffffffffff1602179055508315610c79575f855f0160086101000a81548160ff0219169083151502179055507fc7f505b2f371ae2175ee4913f4499e1f2633a7b5936321eed1cdaeb6115181d26001604051610c709190613f6d565b60405180910390a15b505050505050505050565b610c8c612b0a565b610c9582612bf0565b610c9f8282612bfb565b5050565b5f610cac612d19565b7f360894a13ba1a3210667c828492db98dca3e2076cc3735a920a3ca505d382bbc5f1b905090565b60015481565b5f60055f8381526020019081526020015f2090503373ffffffffffffffffffffffffffffffffffffffff16816002015f9054906101000a900473ffffffffffffffffffffffffffffffffffffffff1673ffffffffffffffffffffffffffffffffffffffff1614610d76576040517fc7e1fa0900000000000000000000000000000000000000000000000000000000815260040160405180910390fd5b60026005811115610d8a57610d896134b9565b5b816008015f9054906101000a900460ff166005811115610dad57610dac6134b9565b5b14610de4576040517fa448418400000000000000000000000000000000000000000000000000000000815260040160405180910390fd5b600580811115610df757610df66134b9565b5b816008015f9054906101000a900460ff166005811115610e1a57610e196134b9565b5b03610e51576040517f0a30a94d00000000000000000000000000000000000000000000000000000000815260040160405180910390fd5b6003816008015f6101000a81548160ff02191690836005811115610e7857610e776134b9565b5b02179055505f620f424082600601548360050154610e969190613fb3565b610ea09190614021565b9050610f1160035f9054906101000a900473ffffffffffffffffffffffffffffffffffffffff1682846004015f9054906101000a900473ffffffffffffffffffffffffffffffffffffffff1673ffffffffffffffffffffffffffffffffffffffff16612da09092919063ffffffff16565b610f91826003015f9054906101000a900473ffffffffffffffffffffffffffffffffffffffff16828460050154610f489190614051565b846004015f9054906101000a900473ffffffffffffffffffffffffffffffffffffffff1673ffffffffffffffffffffffffffffffffffffffff16612da09092919063ffffffff16565b7fc4abb47cccf4c118e86345c29b25e4b5a4fae5896c39648e2bcb9b220dae233282828460050154610fc39190614051565b83604051610fd393929190614084565b60405180910390a1505050565b610fe8612e1f565b610ff15f612ea6565b565b5f5f9054906101000a900473ffffffffffffffffffffffffffffffffffffffff1681565b5f5f611021612f77565b9050805f015f9054906101000a900473ffffffffffffffffffffffffffffffffffffffff1691505090565b61271081565b6006602052805f5260405f205f91509050805f015f9054906101000a900473ffffffffffffffffffffffffffffffffffffffff1690806001015f9054906101000a900473ffffffffffffffffffffffffffffffffffffffff16908060010160149054906101000a900460ff16905083565b5f60055f8481526020019081526020015f2090503373ffffffffffffffffffffffffffffffffffffffff16816002015f9054906101000a900473ffffffffffffffffffffffffffffffffffffffff1673ffffffffffffffffffffffffffffffffffffffff1614158061118457503373ffffffffffffffffffffffffffffffffffffffff16816003015f9054906101000a900473ffffffffffffffffffffffffffffffffffffffff1673ffffffffffffffffffffffffffffffffffffffff1614155b156111bb576040517fc7e1fa0900000000000000000000000000000000000000000000000000000000815260040160405180910390fd5b6001808111156111ce576111cd6134b9565b5b8160080160019054906101000a900460ff1660018111156111f2576111f16134b9565b5b14801561120257506317d7840082105b15611239576040517f58d620b300000000000000000000000000000000000000000000000000000000815260040160405180910390fd5b5f600181111561124c5761124b6134b9565b5b8160080160019054906101000a900460ff1660018111156112705761126f6134b9565b5b14801561127f575062e4e1c082105b156112b6576040517f58d620b300000000000000000000000000000000000000000000000000000000815260040160405180910390fd5b5f5f60018111156112ca576112c96134b9565b5b8260080160019054906101000a900460ff1660018111156112ee576112ed6134b9565b5b0361132557620f424061138883600501546113099190613fb3565b6113139190614021565b8361131e91906140c0565b9050611390565b600180811115611338576113376134b9565b5b8260080160019054906101000a900460ff16600181111561135c5761135b6134b9565b5b0361138f57620f42406109c483600501546113779190613fb3565b6113819190614021565b8361138c91906140c0565b90505b5b8060045f9054906101000a900473ffffffffffffffffffffffffffffffffffffffff1673ffffffffffffffffffffffffffffffffffffffff1663dd62ed3e335f5f9054906101000a900473ffffffffffffffffffffffffffffffffffffffff166040518363ffffffff1660e01b815260040161140d9291906140f3565b602060405180830381865afa158015611428573d5f5f3e3d5ffd5b505050506040513d601f19601f8201168201806040525081019061144c919061412e565b1015611484576040517f13be252b00000000000000000000000000000000000000000000000000000000815260040160405180910390fd5b5f826003015f9054906101000a900473ffffffffffffffffffffffffffffffffffffffff1673ffffffffffffffffffffffffffffffffffffffff163373ffffffffffffffffffffffffffffffffffffffff16036115f3575f5f9054906101000a900473ffffffffffffffffffffffffffffffffffffffff1673ffffffffffffffffffffffffffffffffffffffff1663a97e32db846002015f9054906101000a900473ffffffffffffffffffffffffffffffffffffffff16855f01866003015f9054906101000a900473ffffffffffffffffffffffffffffffffffffffff16876001018860050154620f42406109c48b600501546115819190613fb3565b61158b9190614021565b6040518763ffffffff1660e01b81526004016115ac969594939291906141da565b6020604051808303815f875af11580156115c8573d5f5f3e3d5ffd5b505050506040513d601f19601f820116820180604052508101906115ec919061425b565b905061175e565b826002015f9054906101000a900473ffffffffffffffffffffffffffffffffffffffff1673ffffffffffffffffffffffffffffffffffffffff163373ffffffffffffffffffffffffffffffffffffffff160361175d575f5f9054906101000a900473ffffffffffffffffffffffffffffffffffffffff1673ffffffffffffffffffffffffffffffffffffffff1663a97e32db846003015f9054906101000a900473ffffffffffffffffffffffffffffffffffffffff1685600101866002015f9054906101000a900473ffffffffffffffffffffffffffffffffffffffff16875f018860050154620f42406109c48b600501546116ef9190613fb3565b6116f99190614021565b6040518763ffffffff1660e01b815260040161171a969594939291906141da565b6020604051808303815f875af1158015611736573d5f5f3e3d5ffd5b505050506040513d601f19601f8201168201806040525081019061175a919061425b565b90505b5b60405180606001604052808273ffffffffffffffffffffffffffffffffffffffff1681526020015f73ffffffffffffffffffffffffffffffffffffffff1681526020015f60028111156117b4576117b36134b9565b5b81525060065f8781526020019081526020015f205f820151815f015f6101000a81548173ffffffffffffffffffffffffffffffffffffffff021916908373ffffffffffffffffffffffffffffffffffffffff1602179055506020820151816001015f6101000a81548173ffffffffffffffffffffffffffffffffffffffff021916908373ffffffffffffffffffffffffffffffffffffffff16021790555060408201518160010160146101000a81548160ff0219169083600281111561187d5761187c6134b9565b5b02179055509050506005836008015f6101000a81548160ff021916908360058111156118ac576118ab6134b9565b5b02179055505050505050565b60045f9054906101000a900473ffffffffffffffffffffffffffffffffffffffff1681565b6040518060400160405280600581526020017f352e302e3000000000000000000000000000000000000000000000000000000081525081565b5f60055f8481526020019081526020015f2090503373ffffffffffffffffffffffffffffffffffffffff16816003015f9054906101000a900473ffffffffffffffffffffffffffffffffffffffff1673ffffffffffffffffffffffffffffffffffffffff16146119b2576040517fc7e1fa0900000000000000000000000000000000000000000000000000000000815260040160405180910390fd5b600160058111156119c6576119c56134b9565b5b816008015f9054906101000a900460ff1660058111156119e9576119e86134b9565b5b14611a20576040517fb047b51700000000000000000000000000000000000000000000000000000000815260040160405180910390fd5b81816001019081611a31919061440b565b506002816008015f6101000a81548160ff02191690836005811115611a5957611a586134b9565b5b02179055507f2f71df1cfec0059a19a6a7c0cc3ce7692df1f1ebf2a9e3a434e68cf874564a4781604051611a8d9190613f01565b60405180910390a1505050565b6109c481565b5f60055f8381526020019081526020015f2090503373ffffffffffffffffffffffffffffffffffffffff16816002015f9054906101000a900473ffffffffffffffffffffffffffffffffffffffff1673ffffffffffffffffffffffffffffffffffffffff16141580611b6157503373ffffffffffffffffffffffffffffffffffffffff16816003015f9054906101000a900473ffffffffffffffffffffffffffffffffffffffff1673ffffffffffffffffffffffffffffffffffffffff1614155b15611b98576040517fc7e1fa0900000000000000000000000000000000000000000000000000000000815260040160405180910390fd5b600580811115611bab57611baa6134b9565b5b816008015f9054906101000a900460ff166005811115611bce57611bcd6134b9565b5b14611c05576040517f49dfe70300000000000000000000000000000000000000000000000000000000815260040160405180910390fd5b5f60065f8481526020019081526020015f2090505f815f015f9054906101000a900473ffffffffffffffffffffffffffffffffffffffff1673ffffffffffffffffffffffffffffffffffffffff16631973f0286040518163ffffffff1660e01b8152600401606060405180830381865afa158015611c85573d5f5f3e3d5ffd5b505050506040513d601f19601f82011682018060405250810190611ca991906144da565b925050505f73ffffffffffffffffffffffffffffffffffffffff168173ffffffffffffffffffffffffffffffffffffffff1603611d12576040517fd6c1175c00000000000000000000000000000000000000000000000000000000815260040160405180910390fd5b80826001015f6101000a81548173ffffffffffffffffffffffffffffffffffffffff021916908373ffffffffffffffffffffffffffffffffffffffff16021790555060018260010160146101000a81548160ff02191690836002811115611d7c57611d7b6134b9565b5b0217905550826002015f9054906101000a900473ffffffffffffffffffffffffffffffffffffffff1673ffffffffffffffffffffffffffffffffffffffff168173ffffffffffffffffffffffffffffffffffffffff1603611e5a576004836008015f6101000a81548160ff02191690836005811115611dfe57611dfd6134b9565b5b0217905550611e55818460050154856004015f9054906101000a900473ffffffffffffffffffffffffffffffffffffffff1673ffffffffffffffffffffffffffffffffffffffff16612da09092919063ffffffff16565b611fd0565b826003015f9054906101000a900473ffffffffffffffffffffffffffffffffffffffff1673ffffffffffffffffffffffffffffffffffffffff168173ffffffffffffffffffffffffffffffffffffffff1603611fcf576003836008015f6101000a81548160ff02191690836005811115611ed757611ed66134b9565b5b02179055505f620f424084600601548560050154611ef59190613fb3565b611eff9190614021565b9050611f7060035f9054906101000a900473ffffffffffffffffffffffffffffffffffffffff1682866004015f9054906101000a900473ffffffffffffffffffffffffffffffffffffffff1673ffffffffffffffffffffffffffffffffffffffff16612da09092919063ffffffff16565b611fcd82828660050154611f849190614051565b866004015f9054906101000a900473ffffffffffffffffffffffffffffffffffffffff1673ffffffffffffffffffffffffffffffffffffffff16612da09092919063ffffffff16565b505b5b50505050565b5f73ffffffffffffffffffffffffffffffffffffffff168673ffffffffffffffffffffffffffffffffffffffff160361203b576040517fd92e233d00000000000000000000000000000000000000000000000000000000815260040160405180910390fd5b5f8414801561204957505f83145b15612080576040517f1f2a200500000000000000000000000000000000000000000000000000000000815260040160405180910390fd5b428211156120ba576040517f6f7eac2600000000000000000000000000000000000000000000000000000000815260040160405180910390fd5b5f60018111156120cd576120cc6134b9565b5b8160018111156120e0576120df6134b9565b5b1415801561211257506001808111156120fc576120fb6134b9565b5b81600181111561210f5761210e6134b9565b5b14155b15612149576040517f97cf712c00000000000000000000000000000000000000000000000000000000815260040160405180910390fd5b60045f9054906101000a900473ffffffffffffffffffffffffffffffffffffffff1673ffffffffffffffffffffffffffffffffffffffff168573ffffffffffffffffffffffffffffffffffffffff16146121cf576040517f2d28e92b00000000000000000000000000000000000000000000000000000000815260040160405180910390fd5b60015f8154809291906121e19061452a565b91905055506122393330620f4240612710886121fd9190613fb3565b6122079190614021565b8761221291906140c0565b8873ffffffffffffffffffffffffffffffffffffffff16612a75909392919063ffffffff16565b6122a23060025f9054906101000a900473ffffffffffffffffffffffffffffffffffffffff16620f4240612710886122719190613fb3565b61227b9190614021565b8873ffffffffffffffffffffffffffffffffffffffff16612a75909392919063ffffffff16565b60405180610140016040528088815260200160405180602001604052805f81525081526020013373ffffffffffffffffffffffffffffffffffffffff1681526020018773ffffffffffffffffffffffffffffffffffffffff1681526020018673ffffffffffffffffffffffffffffffffffffffff1681526020018581526020018481526020018381526020015f6005811115612341576123406134b9565b5b8152602001826001811115612359576123586134b9565b5b81525060055f60015481526020019081526020015f205f820151815f019081612382919061440b565b506020820151816001019081612398919061440b565b506040820151816002015f6101000a81548173ffffffffffffffffffffffffffffffffffffffff021916908373ffffffffffffffffffffffffffffffffffffffff1602179055506060820151816003015f6101000a81548173ffffffffffffffffffffffffffffffffffffffff021916908373ffffffffffffffffffffffffffffffffffffffff1602179055506080820151816004015f6101000a81548173ffffffffffffffffffffffffffffffffffffffff021916908373ffffffffffffffffffffffffffffffffffffffff16021790555060a0820151816005015560c0820151816006015560e08201518160070155610100820151816008015f6101000a81548160ff021916908360058111156124b4576124b36134b9565b5b02179055506101208201518160080160016101000a81548160ff021916908360018111156124e5576124e46134b9565b5b02179055509050505f60055f60015481526020019081526020015f20604051806101400160405290815f8201805461251c90613c0a565b80601f016020809104026020016040519081016040528092919081815260200182805461254890613c0a565b80156125935780601f1061256a57610100808354040283529160200191612593565b820191905f5260205f20905b81548152906001019060200180831161257657829003601f168201915b505050505081526020016001820180546125ac90613c0a565b80601f01602080910402602001604051908101604052809291908181526020018280546125d890613c0a565b80156126235780601f106125fa57610100808354040283529160200191612623565b820191905f5260205f20905b81548152906001019060200180831161260657829003601f168201915b50505050508152602001600282015f9054906101000a900473ffffffffffffffffffffffffffffffffffffffff1673ffffffffffffffffffffffffffffffffffffffff1673ffffffffffffffffffffffffffffffffffffffff168152602001600382015f9054906101000a900473ffffffffffffffffffffffffffffffffffffffff1673ffffffffffffffffffffffffffffffffffffffff1673ffffffffffffffffffffffffffffffffffffffff168152602001600482015f9054906101000a900473ffffffffffffffffffffffffffffffffffffffff1673ffffffffffffffffffffffffffffffffffffffff1673ffffffffffffffffffffffffffffffffffffffff168152602001600582015481526020016006820154815260200160078201548152602001600882015f9054906101000a900460ff16600581111561276d5761276c6134b9565b5b600581111561277f5761277e6134b9565b5b81526020016008820160019054906101000a900460ff1660018111156127a8576127a76134b9565b5b60018111156127ba576127b96134b9565b5b8152505090507f1889f5d9aee00d8955165043fb4069894c7b82f1889bc77791fa6dbd7cb16f3581620f4240612710886127f49190613fb3565b6127fe9190614021565b60405161280c929190614687565b60405180910390a15050505050505050565b60025f9054906101000a900473ffffffffffffffffffffffffffffffffffffffff1681565b61284b612e1f565b5f73ffffffffffffffffffffffffffffffffffffffff168173ffffffffffffffffffffffffffffffffffffffff16036128bb575f6040517f1e4fbdf70000000000000000000000000000000000000000000000000000000081526004016128b29190613633565b60405180910390fd5b6128c481612ea6565b50565b5f60055f8381526020019081526020015f2090503373ffffffffffffffffffffffffffffffffffffffff16816003015f9054906101000a900473ffffffffffffffffffffffffffffffffffffffff1673ffffffffffffffffffffffffffffffffffffffff1614612963576040517fc7e1fa0900000000000000000000000000000000000000000000000000000000815260040160405180910390fd5b5f6005811115612976576129756134b9565b5b816008015f9054906101000a900460ff166005811115612999576129986134b9565b5b146129d0576040517f340eba5300000000000000000000000000000000000000000000000000000000815260040160405180910390fd5b4281600701541015612a0e576040517f3c4fac2d00000000000000000000000000000000000000000000000000000000815260040160405180910390fd5b6001816008015f6101000a81548160ff02191690836005811115612a3557612a346134b9565b5b02179055507f8c947a322b02eda8686bb699570c494240341ee10b82e6e30b51ab522edd198881604051612a699190613f01565b60405180910390a15050565b612af1848573ffffffffffffffffffffffffffffffffffffffff166323b872dd868686604051602401612aaa939291906146b5565b604051602081830303815290604052915060e01b6020820180517bffffffffffffffffffffffffffffffffffffffffffffffffffffffff8381831617835250505050612f9e565b50505050565b5f5f612b01613039565b90508091505090565b7f000000000000000000000000000000000000000000000000000000000000000073ffffffffffffffffffffffffffffffffffffffff163073ffffffffffffffffffffffffffffffffffffffff161480612bb757507f000000000000000000000000000000000000000000000000000000000000000073ffffffffffffffffffffffffffffffffffffffff16612b9e613062565b73ffffffffffffffffffffffffffffffffffffffff1614155b15612bee576040517fe07c8dba00000000000000000000000000000000000000000000000000000000815260040160405180910390fd5b565b612bf8612e1f565b50565b8173ffffffffffffffffffffffffffffffffffffffff166352d1902d6040518163ffffffff1660e01b8152600401602060405180830381865afa925050508015612c6357506040513d601f19601f82011682018060405250810190612c609190614714565b60015b612ca457816040517f4c9c8ce3000000000000000000000000000000000000000000000000000000008152600401612c9b9190613633565b60405180910390fd5b7f360894a13ba1a3210667c828492db98dca3e2076cc3735a920a3ca505d382bbc5f1b8114612d0a57806040517faa1d49a4000000000000000000000000000000000000000000000000000000008152600401612d019190613878565b60405180910390fd5b612d1483836130b5565b505050565b7f000000000000000000000000000000000000000000000000000000000000000073ffffffffffffffffffffffffffffffffffffffff163073ffffffffffffffffffffffffffffffffffffffff1614612d9e576040517fe07c8dba00000000000000000000000000000000000000000000000000000000815260040160405180910390fd5b565b612e1a838473ffffffffffffffffffffffffffffffffffffffff1663a9059cbb8585604051602401612dd392919061473f565b604051602081830303815290604052915060e01b6020820180517bffffffffffffffffffffffffffffffffffffffffffffffffffffffff8381831617835250505050612f9e565b505050565b612e27613127565b73ffffffffffffffffffffffffffffffffffffffff16612e45611017565b73ffffffffffffffffffffffffffffffffffffffff1614612ea457612e68613127565b6040517f118cdaa7000000000000000000000000000000000000000000000000000000008152600401612e9b9190613633565b60405180910390fd5b565b5f612eaf612f77565b90505f815f015f9054906101000a900473ffffffffffffffffffffffffffffffffffffffff16905082825f015f6101000a81548173ffffffffffffffffffffffffffffffffffffffff021916908373ffffffffffffffffffffffffffffffffffffffff1602179055508273ffffffffffffffffffffffffffffffffffffffff168173ffffffffffffffffffffffffffffffffffffffff167f8be0079c531659141344cd1fd0a4f28419497f9722a3daafe3b4186f6b6457e060405160405180910390a3505050565b5f7f9016d09d72d40fdae2fd8ceac6b6234c7706214fd39c1cd1e609a0528c199300905090565b5f5f60205f8451602086015f885af180612fbd576040513d5f823e3d81fd5b3d92505f519150505f8214612fd6576001811415612ff1565b5f8473ffffffffffffffffffffffffffffffffffffffff163b145b1561303357836040517f5274afe700000000000000000000000000000000000000000000000000000000815260040161302a9190613633565b60405180910390fd5b50505050565b5f7ff0c57e16840df040f15088dc2f81fe391c3923bec73e23a9662efc9c229c6a005f1b905090565b5f61308e7f360894a13ba1a3210667c828492db98dca3e2076cc3735a920a3ca505d382bbc5f1b61312e565b5f015f9054906101000a900473ffffffffffffffffffffffffffffffffffffffff16905090565b6130be82613137565b8173ffffffffffffffffffffffffffffffffffffffff167fbc7cd75a20ee27fd9adebab32041f755214dbc6bffa90cc0225b39da2e5c2d3b60405160405180910390a25f8151111561311a576131148282613200565b50613123565b613122613280565b5b5050565b5f33905090565b5f819050919050565b5f8173ffffffffffffffffffffffffffffffffffffffff163b0361319257806040517f4c9c8ce30000000000000000000000000000000000000000000000000000000081526004016131899190613633565b60405180910390fd5b806131be7f360894a13ba1a3210667c828492db98dca3e2076cc3735a920a3ca505d382bbc5f1b61312e565b5f015f6101000a81548173ffffffffffffffffffffffffffffffffffffffff021916908373ffffffffffffffffffffffffffffffffffffffff16021790555050565b60605f5f8473ffffffffffffffffffffffffffffffffffffffff168460405161322991906147aa565b5f60405180830381855af49150503d805f8114613261576040519150601f19603f3d011682016040523d82523d5f602084013e613266565b606091505b50915091506132768583836132bc565b9250505092915050565b5f3411156132ba576040517fb398979f00000000000000000000000000000000000000000000000000000000815260040160405180910390fd5b565b6060826132d1576132cc82613349565b613341565b5f82511480156132f757505f8473ffffffffffffffffffffffffffffffffffffffff163b145b1561333957836040517f9996b3150000000000000000000000000000000000000000000000000000000081526004016133309190613633565b60405180910390fd5b819050613342565b5b9392505050565b5f8151111561335a57805160208201fd5b6040517fd6bda27500000000000000000000000000000000000000000000000000000000815260040160405180910390fd5b5f604051905090565b5f5ffd5b5f5ffd5b5f819050919050565b6133af8161339d565b81146133b9575f5ffd5b50565b5f813590506133ca816133a6565b92915050565b5f602082840312156133e5576133e4613395565b5b5f6133f2848285016133bc565b91505092915050565b5f81519050919050565b5f82825260208201905092915050565b8281835e5f83830152505050565b5f601f19601f8301169050919050565b5f61343d826133fb565b6134478185613405565b9350613457818560208601613415565b61346081613423565b840191505092915050565b5f73ffffffffffffffffffffffffffffffffffffffff82169050919050565b5f6134948261346b565b9050919050565b6134a48161348a565b82525050565b6134b38161339d565b82525050565b7f4e487b71000000000000000000000000000000000000000000000000000000005f52602160045260245ffd5b600681106134f7576134f66134b9565b5b50565b5f819050613507826134e6565b919050565b5f613516826134fa565b9050919050565b6135268161350c565b82525050565b6002811061353d5761353c6134b9565b5b50565b5f81905061354d8261352c565b919050565b5f61355c82613540565b9050919050565b61356c81613552565b82525050565b5f610140820190508181035f83015261358b818d613433565b9050818103602083015261359f818c613433565b90506135ae604083018b61349b565b6135bb606083018a61349b565b6135c8608083018961349b565b6135d560a08301886134aa565b6135e260c08301876134aa565b6135ef60e08301866134aa565b6135fd61010083018561351d565b61360b610120830184613563565b9b9a5050505050505050505050565b5f60208201905061362d5f8301846134aa565b92915050565b5f6020820190506136465f83018461349b565b92915050565b6136558161348a565b811461365f575f5ffd5b50565b5f813590506136708161364c565b92915050565b5f5f5f5f6080858703121561368e5761368d613395565b5b5f61369b87828801613662565b94505060206136ac87828801613662565b93505060406136bd87828801613662565b92505060606136ce87828801613662565b91505092959194509250565b5f5ffd5b5f5ffd5b7f4e487b71000000000000000000000000000000000000000000000000000000005f52604160045260245ffd5b61371882613423565b810181811067ffffffffffffffff82111715613737576137366136e2565b5b80604052505050565b5f61374961338c565b9050613755828261370f565b919050565b5f67ffffffffffffffff821115613774576137736136e2565b5b61377d82613423565b9050602081019050919050565b828183375f83830152505050565b5f6137aa6137a58461375a565b613740565b9050828152602081018484840111156137c6576137c56136de565b5b6137d184828561378a565b509392505050565b5f82601f8301126137ed576137ec6136da565b5b81356137fd848260208601613798565b91505092915050565b5f5f6040838503121561381c5761381b613395565b5b5f61382985828601613662565b925050602083013567ffffffffffffffff81111561384a57613849613399565b5b613856858286016137d9565b9150509250929050565b5f819050919050565b61387281613860565b82525050565b5f60208201905061388b5f830184613869565b92915050565b5f819050919050565b5f6138b46138af6138aa8461346b565b613891565b61346b565b9050919050565b5f6138c58261389a565b9050919050565b5f6138d6826138bb565b9050919050565b6138e6816138cc565b82525050565b5f6020820190506138ff5f8301846138dd565b92915050565b60038110613916576139156134b9565b5b50565b5f81905061392682613905565b919050565b5f61393582613919565b9050919050565b6139458161392b565b82525050565b5f60608201905061395e5f83018661349b565b61396b602083018561349b565b613978604083018461393c565b949350505050565b5f5f6040838503121561399657613995613395565b5b5f6139a3858286016133bc565b92505060206139b4858286016133bc565b9150509250929050565b5f6020820190508181035f8301526139d68184613433565b905092915050565b5f67ffffffffffffffff8211156139f8576139f76136e2565b5b613a0182613423565b9050602081019050919050565b5f613a20613a1b846139de565b613740565b905082815260208101848484011115613a3c57613a3b6136de565b5b613a4784828561378a565b509392505050565b5f82601f830112613a6357613a626136da565b5b8135613a73848260208601613a0e565b91505092915050565b5f5f60408385031215613a9257613a91613395565b5b5f613a9f858286016133bc565b925050602083013567ffffffffffffffff811115613ac057613abf613399565b5b613acc85828601613a4f565b9150509250929050565b60028110613ae2575f5ffd5b50565b5f81359050613af381613ad6565b92915050565b5f5f5f5f5f5f5f60e0888a031215613b1457613b13613395565b5b5f88013567ffffffffffffffff811115613b3157613b30613399565b5b613b3d8a828b01613a4f565b9750506020613b4e8a828b01613662565b9650506040613b5f8a828b01613662565b9550506060613b708a828b016133bc565b9450506080613b818a828b016133bc565b93505060a0613b928a828b016133bc565b92505060c0613ba38a828b01613ae5565b91505092959891949750929550565b5f60208284031215613bc757613bc6613395565b5b5f613bd484828501613662565b91505092915050565b7f4e487b71000000000000000000000000000000000000000000000000000000005f52602260045260245ffd5b5f6002820490506001821680613c2157607f821691505b602082108103613c3457613c33613bdd565b5b50919050565b5f82825260208201905092915050565b5f819050815f5260205f209050919050565b5f8154613c6881613c0a565b613c728186613c3a565b9450600182165f8114613c8c5760018114613ca257613cd4565b60ff198316865281151560200286019350613cd4565b613cab85613c4a565b5f5b83811015613ccc57815481890152600182019150602081019050613cad565b808801955050505b50505092915050565b5f815f1c9050919050565b5f73ffffffffffffffffffffffffffffffffffffffff82169050919050565b5f613d19613d1483613cdd565b613ce8565b9050919050565b613d298161348a565b82525050565b5f819050919050565b5f613d4a613d4583613cdd565b613d2f565b9050919050565b613d5a8161339d565b82525050565b5f60ff82169050919050565b5f613d7e613d7983613cdd565b613d60565b9050919050565b613d8e8161350c565b82525050565b5f8160081c9050919050565b5f60ff82169050919050565b5f613dbe613db983613d94565b613da0565b9050919050565b613dce81613552565b82525050565b5f61014083015f5f84018583035f870152613def8382613c5c565b925050600184018583036020870152613e088382613c5c565b92505060028401549050613e1b81613d07565b613e286040870182613d20565b5060038401549050613e3981613d07565b613e466060870182613d20565b5060048401549050613e5781613d07565b613e646080870182613d20565b5060058401549050613e7581613d38565b613e8260a0870182613d51565b5060068401549050613e9381613d38565b613ea060c0870182613d51565b5060078401549050613eb181613d38565b613ebe60e0870182613d51565b5060088401549050613ecf81613d6c565b613edd610100870182613d85565b50613ee781613dac565b613ef5610120870182613dc5565b50819250505092915050565b5f6020820190508181035f830152613f198184613dd4565b905092915050565b5f819050919050565b5f67ffffffffffffffff82169050919050565b5f613f57613f52613f4d84613f21565b613891565b613f2a565b9050919050565b613f6781613f3d565b82525050565b5f602082019050613f805f830184613f5e565b92915050565b7f4e487b71000000000000000000000000000000000000000000000000000000005f52601160045260245ffd5b5f613fbd8261339d565b9150613fc88361339d565b9250828202613fd68161339d565b91508282048414831517613fed57613fec613f86565b5b5092915050565b7f4e487b71000000000000000000000000000000000000000000000000000000005f52601260045260245ffd5b5f61402b8261339d565b91506140368361339d565b92508261404657614045613ff4565b5b828204905092915050565b5f61405b8261339d565b91506140668361339d565b925082820390508181111561407e5761407d613f86565b5b92915050565b5f6060820190508181035f83015261409c8186613dd4565b90506140ab60208301856134aa565b6140b860408301846134aa565b949350505050565b5f6140ca8261339d565b91506140d58361339d565b92508282019050808211156140ed576140ec613f86565b5b92915050565b5f6040820190506141065f83018561349b565b614113602083018461349b565b9392505050565b5f81519050614128816133a6565b92915050565b5f6020828403121561414357614142613395565b5b5f6141508482850161411a565b91505092915050565b5f815461416581613c0a565b61416f8186613405565b9450600182165f8114614189576001811461419f576141d1565b60ff1983168652811515602002860193506141d1565b6141a885613c4a565b5f5b838110156141c9578154818901526001820191506020810190506141aa565b808801955050505b50505092915050565b5f60c0820190506141ed5f83018961349b565b81810360208301526141ff8188614159565b905061420e604083018761349b565b81810360608301526142208186614159565b905061422f60808301856134aa565b61423c60a08301846134aa565b979650505050505050565b5f815190506142558161364c565b92915050565b5f602082840312156142705761426f613395565b5b5f61427d84828501614247565b91505092915050565b5f6020601f8301049050919050565b5f82821b905092915050565b5f600883026142d07fffffffffffffffffffffffffffffffffffffffffffffffffffffffffffffffff82614295565b6142da8683614295565b95508019841693508086168417925050509392505050565b5f61430c6143076143028461339d565b613891565b61339d565b9050919050565b5f819050919050565b614325836142f2565b61433961433182614313565b8484546142a1565b825550505050565b5f5f905090565b614350614341565b61435b81848461431c565b505050565b5b8181101561437e576143735f82614348565b600181019050614361565b5050565b601f8211156143c35761439481613c4a565b61439d84614286565b810160208510156143ac578190505b6143c06143b885614286565b830182614360565b50505b505050565b5f82821c905092915050565b5f6143e35f19846008026143c8565b1980831691505092915050565b5f6143fb83836143d4565b9150826002028217905092915050565b614414826133fb565b67ffffffffffffffff81111561442d5761442c6136e2565b5b6144378254613c0a565b614442828285614382565b5f60209050601f831160018114614473575f8415614461578287015190505b61446b85826143f0565b8655506144d2565b601f19841661448186613c4a565b5f5b828110156144a857848901518255600182019150602085019450602081019050614483565b868310156144c557848901516144c1601f8916826143d4565b8355505b6001600288020188555050505b505050505050565b5f5f5f606084860312156144f1576144f0613395565b5b5f6144fe8682870161411a565b935050602061450f8682870161411a565b925050604061452086828701614247565b9150509250925092565b5f6145348261339d565b91507fffffffffffffffffffffffffffffffffffffffffffffffffffffffffffffffff820361456657614565613f86565b5b600182019050919050565b5f61457b826133fb565b6145858185613c3a565b9350614595818560208601613415565b61459e81613423565b840191505092915050565b5f61014083015f8301518482035f8601526145c48282614571565b915050602083015184820360208601526145de8282614571565b91505060408301516145f36040860182613d20565b5060608301516146066060860182613d20565b5060808301516146196080860182613d20565b5060a083015161462c60a0860182613d51565b5060c083015161463f60c0860182613d51565b5060e083015161465260e0860182613d51565b50610100830151614667610100860182613d85565b5061012083015161467c610120860182613dc5565b508091505092915050565b5f6040820190508181035f83015261469f81856145a9565b90506146ae60208301846134aa565b9392505050565b5f6060820190506146c85f83018661349b565b6146d5602083018561349b565b6146e260408301846134aa565b949350505050565b6146f381613860565b81146146fd575f5ffd5b50565b5f8151905061470e816146ea565b92915050565b5f6020828403121561472957614728613395565b5b5f61473684828501614700565b91505092915050565b5f6040820190506147525f83018561349b565b61475f60208301846134aa565b9392505050565b5f81519050919050565b5f81905092915050565b5f61478482614766565b61478e8185614770565b935061479e818560208601613415565b80840191505092915050565b5f6147b5828461477a565b91508190509291505056fea2646970667358221220d53c62ee9cb8ebbdd5e91af4db235340f371780a91381ed1b73277ecf157cb0e64736f6c634300081d0033","linkReferences":{}},"methodIdentifiers":{"AcceptEscrow(uint256)":"f6f75109","CreateDispute(uint256,uint256)":"a6a3d199","CreateEscrow(string,address,address,uint256,uint256,uint256,uint8)":"cda54b14","Initialize(address,address,address,address)":"420f11aa","PPM()":"0d720bbc","RefundEscrow(uint256)":"3ac793f4","ReleaseEscrow(uint256)":"5cec5548","SubmitEscrow(uint256,string)":"af07c7c7","UPGRADE_INTERFACE_VERSION()":"ad3cb1cc","escrowId()":"5753d989","escrowPlatformFee()":"98a06cdc","escrows(uint256)":"012f52ee","escrowtoDispute(uint256)":"a2ec3594","feeWallet()":"f25f4b56","miniDisputeDealSizeFee()":"059f8454","owner()":"8da5cb5b","proxiableUUID()":"52d1902d","regularDisputeDealSizeFee()":"c0741b08","renounceOwnership()":"715018a6","resolveDispute(uint256)":"c2b7b868","swapandBurnContract()":"32b094fa","tomiDisputeAddress()":"83d4da02","transferOwnership(address)":"f2fde38b","upgradeToAndCall(address,bytes)":"4f1ef286","usdtToken()":"a98ad46c"},"id":38}