{"abi":[{"type":"constructor","inputs":[],"stateMutability":"nonpayable"},{"type":"function","name":"APPEAL_TIME_DISPUTE_AI","inputs":[],"outputs":[{"name":"","type":"uint256","internalType":"uint256"}],"stateMutability":"view"},{"type":"function","name":"AcceptEscrow","inputs":[{"name":"escrowID","type":"uint256","internalType":"uint256"}],"outputs":[],"stateMutability":"nonpayable"},{"type":"function","name":"CreateDispute","inputs":[{"name":"escrowID","type":"uint256","internalType":"uint256"},{"name":"amountinUSD","type":"uint256","internalType":"uint256"}],"outputs":[],"stateMutability":"nonpayable"},{"type":"function","name":"CreateEscrow","inputs":[{"name":"detailsURI","type":"string","internalType":"string"},{"name":"toAddress","type":"address","internalType":"address"},{"name":"tokenAddress","type":"address","internalType":"address"},{"name":"amountInUSDT","type":"uint256","internalType":"uint256"},{"name":"feeinPPM","type":"uint256","internalType":"uint256"},{"name":"deadline","type":"uint256","internalType":"uint256"},{"name":"disputeType","type":"uint8","internalType":"enum EscrowPayment.DisputeType"}],"outputs":[],"stateMutability":"nonpayable"},{"type":"function","name":"DENIED_REFUND_TIME","inputs":[],"outputs":[{"name":"","type":"uint256","internalType":"uint256"}],"stateMutability":"view"},{"type":"function","name":"DenyEscrow","inputs":[{"name":"escrowID","type":"uint256","internalType":"uint256"}],"outputs":[],"stateMutability":"nonpayable"},{"type":"function","name":"Initialize","inputs":[{"name":"feeWalletAddress","type":"address","internalType":"address"},{"name":"swapandBurnContractAddress","type":"address","internalType":"address"},{"name":"tomiDisputeaddress","type":"address","internalType":"address"},{"name":"usdtAddress","type":"address","internalType":"address"},{"name":"resolverAIAddress","type":"address","internalType":"address"},{"name":"resolverFeeAmount","type":"uint256","internalType":"uint256"}],"outputs":[],"stateMutability":"nonpayable"},{"type":"function","name":"PPM","inputs":[],"outputs":[{"name":"","type":"uint256","internalType":"uint256"}],"stateMutability":"view"},{"type":"function","name":"RefundEscrow","inputs":[{"name":"escrowID","type":"uint256","internalType":"uint256"}],"outputs":[],"stateMutability":"nonpayable"},{"type":"function","name":"ReleaseEscrow","inputs":[{"name":"escrowID","type":"uint256","internalType":"uint256"}],"outputs":[],"stateMutability":"nonpayable"},{"type":"function","name":"SubmitEscrow","inputs":[{"name":"escrowID","type":"uint256","internalType":"uint256"},{"name":"submissionURI","type":"string","internalType":"string"}],"outputs":[],"stateMutability":"nonpayable"},{"type":"function","name":"UPGRADE_INTERFACE_VERSION","inputs":[],"outputs":[{"name":"","type":"string","internalType":"string"}],"stateMutability":"view"},{"type":"function","name":"claimAIDispute","inputs":[{"name":"escrowID","type":"uint256","internalType":"uint256"}],"outputs":[],"stateMutability":"nonpayable"},{"type":"function","name":"createAIDispute","inputs":[{"name":"escrowID","type":"uint256","internalType":"uint256"},{"name":"resolverFee","type":"uint256","internalType":"uint256"}],"outputs":[],"stateMutability":"nonpayable"},{"type":"function","name":"escrowIDtoAIDispute","inputs":[{"name":"escrowID","type":"uint256","internalType":"uint256"}],"outputs":[{"name":"created","type":"bool","internalType":"bool"}],"stateMutability":"view"},{"type":"function","name":"escrowId","inputs":[],"outputs":[{"name":"","type":"uint256","internalType":"uint256"}],"stateMutability":"view"},{"type":"function","name":"escrowPlatformFee","inputs":[],"outputs":[{"name":"","type":"uint256","internalType":"uint256"}],"stateMutability":"view"},{"type":"function","name":"escrows","inputs":[{"name":"escrowID","type":"uint256","internalType":"uint256"}],"outputs":[{"name":"escrowDetialsURI","type":"string","internalType":"string"},{"name":"submissionURI","type":"string","internalType":"string"},{"name":"fromAddress","type":"address","internalType":"address"},{"name":"toAddress","type":"address","internalType":"address"},{"name":"tokenAddress","type":"address","internalType":"address"},{"name":"tokenAmount","type":"uint256","internalType":"uint256"},{"name":"feeinPPM","type":"uint256","internalType":"uint256"},{"name":"submissionDeadline","type":"uint256","internalType":"uint256"},{"name":"resultTime","type":"uint256","internalType":"uint256"},{"name":"status","type":"uint8","internalType":"enum EscrowPayment.EscrowStatus"},{"name":"disputeType","type":"uint8","internalType":"enum EscrowPayment.DisputeType"}],"stateMutability":"view"},{"type":"function","name":"escrowtoDisputeAI","inputs":[{"name":"escrowID","type":"uint256","internalType":"uint256"}],"outputs":[{"name":"escrowID","type":"uint256","internalType":"uint256"},{"name":"resolveTime","type":"uint256","internalType":"uint256"},{"name":"winnerAddress","type":"address","internalType":"address"}],"stateMutability":"view"},{"type":"function","name":"escrowtoDisputeOracle","inputs":[{"name":"escrowID","type":"uint256","internalType":"uint256"}],"outputs":[{"name":"disputeContract","type":"address","internalType":"address"},{"name":"winnerAddress","type":"address","internalType":"address"},{"name":"status","type":"uint8","internalType":"enum EscrowPayment.DisputeStatus"}],"stateMutability":"view"},{"type":"function","name":"feeWallet","inputs":[],"outputs":[{"name":"","type":"address","internalType":"address"}],"stateMutability":"view"},{"type":"function","name":"miniDisputeDealSizeFee","inputs":[],"outputs":[{"name":"","type":"uint256","internalType":"uint256"}],"stateMutability":"view"},{"type":"function","name":"owner","inputs":[],"outputs":[{"name":"","type":"address","internalType":"address"}],"stateMutability":"view"},{"type":"function","name":"proxiableUUID","inputs":[],"outputs":[{"name":"","type":"bytes32","internalType":"bytes32"}],"stateMutability":"view"},{"type":"function","name":"regularDisputeDealSizeFee","inputs":[],"outputs":[{"name":"","type":"uint256","internalType":"uint256"}],"stateMutability":"view"},{"type":"function","name":"renounceOwnership","inputs":[],"outputs":[],"stateMutability":"nonpayable"},{"type":"function","name":"resolveDisputeOracle","inputs":[{"name":"escrowID","type":"uint256","internalType":"uint256"}],"outputs":[],"stateMutability":"nonpayable"},{"type":"function","name":"resolveViaAI","inputs":[{"name":"escrowID","type":"uint256","internalType":"uint256"},{"name":"winnerAddress","type":"address","internalType":"address"}],"outputs":[],"stateMutability":"nonpayable"},{"type":"function","name":"resolverAI","inputs":[],"outputs":[{"name":"","type":"address","internalType":"address"}],"stateMutability":"view"},{"type":"function","name":"resolverFeeAI","inputs":[],"outputs":[{"name":"","type":"uint256","internalType":"uint256"}],"stateMutability":"view"},{"type":"function","name":"submitProofAgain","inputs":[{"name":"escrowID","type":"uint256","internalType":"uint256"},{"name":"proofURI","type":"string","internalType":"string"}],"outputs":[],"stateMutability":"nonpayable"},{"type":"function","name":"swapandBurnContract","inputs":[],"outputs":[{"name":"","type":"address","internalType":"address"}],"stateMutability":"view"},{"type":"function","name":"tomiDisputeAddress","inputs":[],"outputs":[{"name":"","type":"address","internalType":"contract ITomiDispute"}],"stateMutability":"view"},{"type":"function","name":"transferOwnership","inputs":[{"name":"newOwner","type":"address","internalType":"address"}],"outputs":[],"stateMutability":"nonpayable"},{"type":"function","name":"updateFeeWallet","inputs":[{"name":"_feeWalletAddress","type":"address","internalType":"address"}],"outputs":[],"stateMutability":"nonpayable"},{"type":"function","name":"updateResolverAddress","inputs":[{"name":"_updatedResolverAddress","type":"address","internalType":"address"}],"outputs":[],"stateMutability":"nonpayable"},{"type":"function","name":"updateResolverFee","inputs":[{"name":"_updatedResolverFee","type":"uint256","internalType":"uint256"}],"outputs":[],"stateMutability":"nonpayable"},{"type":"function","name":"updateSwapAndBurnContract","inputs":[{"name":"_swapAndBurnAddress","type":"address","internalType":"address"}],"outputs":[],"stateMutability":"nonpayable"},{"type":"function","name":"updateTomiDisputeAddress","inputs":[{"name":"_updatedTomiDisputeAddress","type":"address","internalType":"address"}],"outputs":[],"stateMutability":"nonpayable"},{"type":"function","name":"upgradeToAndCall","inputs":[{"name":"newImplementation","type":"address","internalType":"address"},{"name":"data","type":"bytes","internalType":"bytes"}],"outputs":[],"stateMutability":"payable"},{"type":"function","name":"usdtToken","inputs":[],"outputs":[{"name":"","type":"address","internalType":"address"}],"stateMutability":"view"},{"type":"event","name":"AI_DisputeClaimed","inputs":[{"name":"escrowId","type":"uint256","indexed":false,"internalType":"uint256"},{"name":"escrowIdStatus","type":"uint8","indexed":false,"internalType":"enum EscrowPayment.EscrowStatus"}],"anonymous":false},{"type":"event","name":"DipsuteAICreated","inputs":[{"name":"escrowID","type":"uint256","indexed":false,"internalType":"uint256"},{"name":"disputerAddress","type":"address","indexed":false,"internalType":"address"}],"anonymous":false},{"type":"event","name":"DisputeOracleCreated","inputs":[{"name":"escrowID","type":"uint256","indexed":false,"internalType":"uint256"},{"name":"disputerAddress","type":"address","indexed":false,"internalType":"address"}],"anonymous":false},{"type":"event","name":"DisputeResolvedByAI","inputs":[{"name":"escrowID","type":"uint256","indexed":false,"internalType":"uint256"},{"name":"winnerAddress","type":"address","indexed":false,"internalType":"address"},{"name":"timeStamp","type":"uint256","indexed":false,"internalType":"uint256"}],"anonymous":false},{"type":"event","name":"DisputeResolvedByOracle","inputs":[{"name":"escrowID","type":"uint256","indexed":false,"internalType":"uint256"},{"name":"disputeContract","type":"address","indexed":false,"internalType":"address"},{"name":"winnerAddress","type":"address","indexed":false,"internalType":"address"},{"name":"timeStamp","type":"uint256","indexed":false,"internalType":"uint256"}],"anonymous":false},{"type":"event","name":"EscrowAccepted","inputs":[{"name":"escrowId","type":"uint256","indexed":false,"internalType":"uint256"},{"name":"escrowIdStatus","type":"uint8","indexed":false,"internalType":"enum EscrowPayment.EscrowStatus"}],"anonymous":false},{"type":"event","name":"EscrowCreated","inputs":[{"name":"escrowdetails","type":"tuple","indexed":false,"internalType":"struct EscrowPayment.Escrow","components":[{"name":"escrowDetialsURI","type":"string","internalType":"string"},{"name":"submissionURI","type":"string","internalType":"string"},{"name":"fromAddress","type":"address","internalType":"address"},{"name":"toAddress","type":"address","internalType":"address"},{"name":"tokenAddress","type":"address","internalType":"address"},{"name":"tokenAmount","type":"uint256","internalType":"uint256"},{"name":"feeinPPM","type":"uint256","internalType":"uint256"},{"name":"submissionDeadline","type":"uint256","internalType":"uint256"},{"name":"resultTime","type":"uint256","internalType":"uint256"},{"name":"status","type":"uint8","internalType":"enum EscrowPayment.EscrowStatus"},{"name":"disputeType","type":"uint8","internalType":"enum EscrowPayment.DisputeType"}]},{"name":"escrowFee","type":"uint256","indexed":false,"internalType":"uint256"}],"anonymous":false},{"type":"event","name":"EscrowDenied","inputs":[{"name":"escrowId","type":"uint256","indexed":false,"internalType":"uint256"},{"name":"escrowIdStatus","type":"uint8","indexed":false,"internalType":"enum EscrowPayment.EscrowStatus"}],"anonymous":false},{"type":"event","name":"EscrowRefunded","inputs":[{"name":"escrowId","type":"uint256","indexed":false,"internalType":"uint256"},{"name":"escrowIdStatus","type":"uint8","indexed":false,"internalType":"enum EscrowPayment.EscrowStatus"}],"anonymous":false},{"type":"event","name":"EscrowReleased","inputs":[{"name":"escrowId","type":"uint256","indexed":false,"internalType":"uint256"},{"name":"escrowIdStatus","type":"uint8","indexed":false,"internalType":"enum EscrowPayment.EscrowStatus"},{"name":"amountReleased","type":"uint256","indexed":false,"internalType":"uint256"},{"name":"feeForSwapandBurn","type":"uint256","indexed":false,"internalType":"uint256"}],"anonymous":false},{"type":"event","name":"EscrowSubmitted","inputs":[{"name":"escrowId","type":"uint256","indexed":false,"internalType":"uint256"},{"name":"escrowIdStatus","type":"uint8","indexed":false,"internalType":"enum EscrowPayment.EscrowStatus"}],"anonymous":false},{"type":"event","name":"Initialized","inputs":[{"name":"version","type":"uint64","indexed":false,"internalType":"uint64"}],"anonymous":false},{"type":"event","name":"OwnershipTransferred","inputs":[{"name":"previousOwner","type":"address","indexed":true,"internalType":"address"},{"name":"newOwner","type":"address","indexed":true,"internalType":"address"}],"anonymous":false},{"type":"event","name":"ProofSubmitted","inputs":[{"name":"escrowId","type":"uint256","indexed":false,"internalType":"uint256"},{"name":"disputeContract","type":"address","indexed":false,"internalType":"address"},{"name":"submittedBy","type":"address","indexed":false,"internalType":"address"},{"name":"proofURI","type":"string","indexed":false,"internalType":"string"}],"anonymous":false},{"type":"event","name":"Upgraded","inputs":[{"name":"implementation","type":"address","indexed":true,"internalType":"address"}],"anonymous":false},{"type":"error","name":"AddressEmptyCode","inputs":[{"name":"target","type":"address","internalType":"address"}]},{"type":"error","name":"AppealTimeNotPassedYet","inputs":[]},{"type":"error","name":"AppealWindowOver","inputs":[]},{"type":"error","name":"ERC1967InvalidImplementation","inputs":[{"name":"implementation","type":"address","internalType":"address"}]},{"type":"error","name":"ERC1967NonPayable","inputs":[]},{"type":"error","name":"EscrowExpired","inputs":[]},{"type":"error","name":"EscrowNotExpiredYet","inputs":[]},{"type":"error","name":"FailedCall","inputs":[]},{"type":"error","name":"InDispute","inputs":[]},{"type":"error","name":"InsufficientAllowance","inputs":[]},{"type":"error","name":"InvalidDisputeType","inputs":[]},{"type":"error","name":"InvalidFee","inputs":[]},{"type":"error","name":"InvalidInitialization","inputs":[]},{"type":"error","name":"InvalidResponse","inputs":[]},{"type":"error","name":"InvalidTime","inputs":[]},{"type":"error","name":"NotInDispute","inputs":[]},{"type":"error","name":"NotInitializing","inputs":[]},{"type":"error","name":"OnlyAcceptedOneAreAllowed","inputs":[]},{"type":"error","name":"OnlyCreatedOneAreAllowed","inputs":[]},{"type":"error","name":"OnlySubmittedOneAreAllowed","inputs":[]},{"type":"error","name":"OnlyUsdtAllowed","inputs":[]},{"type":"error","name":"OwnableInvalidOwner","inputs":[{"name":"owner","type":"address","internalType":"address"}]},{"type":"error","name":"OwnableUnauthorizedAccount","inputs":[{"name":"account","type":"address","internalType":"address"}]},{"type":"error","name":"RefundNotAllowed","inputs":[]},{"type":"error","name":"SafeERC20FailedOperation","inputs":[{"name":"token","type":"address","internalType":"address"}]},{"type":"error","name":"SameAsLastOne","inputs":[]},{"type":"error","name":"UUPSUnauthorizedCallContext","inputs":[]},{"type":"error","name":"UUPSUnsupportedProxiableUUID","inputs":[{"name":"slot","type":"bytes32","internalType":"bytes32"}]},{"type":"error","name":"WinnnerNotRevealedYet","inputs":[]},{"type":"error","name":"WinnnerRevealed","inputs":[]},{"type":"error","name":"YouAreNotAuthorized","inputs":[]},{"type":"error","name":"ZeroAddress","inputs":[]},{"type":"error","name":"ZeroAmount","inputs":[]}],"bytecode":{"object":"0x60a060405230608052348015610013575f5ffd5b5061001c610021565b6100d3565b7ff0c57e16840df040f15088dc2f81fe391c3923bec73e23a9662efc9c229c6a00805468010000000000000000900460ff16156100715760405163f92ee8a960e01b815260040160405180910390fd5b80546001600160401b03908116146100d05780546001600160401b0319166001600160401b0390811782556040519081527fc7f505b2f371ae2175ee4913f4499e1f2633a7b5936321eed1cdaeb6115181d29060200160405180910390a15b50565b608051614fba6100f95f395f8181613cf701528181613d200152613f3c0152614fba5ff3fe6080604052600436106102b6575f3560e01c8063684858c711610170578063ad3cb1cc116100d1578063dd1a17ee11610087578063f6f7510911610062578063f6f7510914610844578063f8b7f36314610863578063ff0e2dc51461088f575f5ffd5b8063dd1a17ee146107da578063f25f4b56146107f9578063f2fde38b14610825575f5ffd5b8063af07c7c7116100b7578063af07c7c714610787578063c0741b08146107a6578063cda54b14146107bb575f5ffd5b8063ad3cb1cc14610713578063ae1539b914610768575f5ffd5b80639109879611610126578063a6a3d1991161010c578063a6a3d199146106a9578063a8b9bde4146106c8578063a98ad46c146106e7575f5ffd5b8063910987961461067f57806398a06cdc14610694575f5ffd5b806383d4da021161015657806383d4da02146105f5578063874c7ebb146106205780638da5cb5b14610636575f5ffd5b8063684858c7146105c2578063715018a6146105e1575f5ffd5b8063335beaa21161021a57806352d1902d116101d05780635cec5548116101b65780635cec55481461056557806362f9c01c1461058457806366718524146105a3575f5ffd5b806352d1902d1461053c5780635753d98914610550575f5ffd5b80633ac793f4116102005780633ac793f4146104eb5780633ae8c3571461050a5780634f1ef28614610529575f5ffd5b8063335beaa2146104b7578063342b9695146104cc575f5ffd5b80632ca7f5091161026f57806330f6472c1161025557806330f6472c146103b057806332b094fa146104285780633304924614610479575f5ffd5b80632ca7f509146103725780632f6073bc14610391575f5ffd5b8063059f84541161029f578063059f84541461031a5780630d720bbc1461033d578063128e42fa14610353575f5ffd5b8063012f52ee146102ba57806302dcd3cb146102f9575b5f5ffd5b3480156102c5575f5ffd5b506102d96102d43660046143e5565b610910565b6040516102f09b9a99989796959493929190614499565b60405180910390f35b348015610304575f5ffd5b506103186103133660046143e5565b610a94565b005b348015610325575f5ffd5b5061032f61138881565b6040519081526020016102f0565b348015610348575f5ffd5b5061032f620f424081565b34801561035e575f5ffd5b5061031861036d36600461457c565b610ebe565b34801561037d575f5ffd5b5061031861038c36600461457c565b610fae565b34801561039c575f5ffd5b506103186103ab366004614597565b61109f565b3480156103bb575f5ffd5b506104196103ca3660046143e5565b600a6020525f90815260409020805460019091015473ffffffffffffffffffffffffffffffffffffffff9182169181169074010000000000000000000000000000000000000000900460ff1683565b6040516102f09392919061460c565b348015610433575f5ffd5b506002546104549073ffffffffffffffffffffffffffffffffffffffff1681565b60405173ffffffffffffffffffffffffffffffffffffffff90911681526020016102f0565b348015610484575f5ffd5b506104a76104933660046143e5565b60086020525f908152604090205460ff1681565b60405190151581526020016102f0565b3480156104c2575f5ffd5b5061032f60065481565b3480156104d7575f5ffd5b506103186104e636600461464f565b611398565b3480156104f6575f5ffd5b506103186105053660046143e5565b611887565b348015610515575f5ffd5b506103186105243660046146c6565b611b01565b6103186105373660046147a8565b611e16565b348015610547575f5ffd5b5061032f611e35565b34801561055b575f5ffd5b5061032f60055481565b348015610570575f5ffd5b5061031861057f3660046143e5565b611e63565b34801561058f575f5ffd5b5061031861059e3660046143e5565b61203e565b3480156105ae575f5ffd5b506103186105bd36600461457c565b6123a7565b3480156105cd575f5ffd5b506103186105dc36600461457c565b612498565b3480156105ec575f5ffd5b50610318612587565b348015610600575f5ffd5b505f546104549073ffffffffffffffffffffffffffffffffffffffff1681565b34801561062b575f5ffd5b5061032f6203f48081565b348015610641575f5ffd5b507f9016d09d72d40fdae2fd8ceac6b6234c7706214fd39c1cd1e609a0528c1993005473ffffffffffffffffffffffffffffffffffffffff16610454565b34801561068a575f5ffd5b5061032f61070881565b34801561069f575f5ffd5b5061032f61271081565b3480156106b4575f5ffd5b506103186106c33660046146c6565b61259a565b3480156106d3575f5ffd5b506103186106e23660046143e5565b612d6f565b3480156106f2575f5ffd5b506003546104549073ffffffffffffffffffffffffffffffffffffffff1681565b34801561071e575f5ffd5b5061075b6040518060400160405280600581526020017f352e302e3000000000000000000000000000000000000000000000000000000081525081565b6040516102f09190614808565b348015610773575f5ffd5b5061031861078236600461481a565b612df0565b348015610792575f5ffd5b506103186107a1366004614866565b613018565b3480156107b1575f5ffd5b5061032f6109c481565b3480156107c6575f5ffd5b506103186107d53660046148a0565b61319f565b3480156107e5575f5ffd5b506103186107f43660046143e5565b61386b565b348015610804575f5ffd5b506001546104549073ffffffffffffffffffffffffffffffffffffffff1681565b348015610830575f5ffd5b5061031861083f36600461457c565b613984565b34801561084f575f5ffd5b5061031861085e3660046143e5565b6139ec565b34801561086e575f5ffd5b506004546104549073ffffffffffffffffffffffffffffffffffffffff1681565b34801561089a575f5ffd5b506108df6108a93660046143e5565b60096020525f908152604090208054600182015460029092015490919073ffffffffffffffffffffffffffffffffffffffff1683565b60408051938452602084019290925273ffffffffffffffffffffffffffffffffffffffff16908201526060016102f0565b60076020525f908152604090208054819061092a90614931565b80601f016020809104026020016040519081016040528092919081815260200182805461095690614931565b80156109a15780601f10610978576101008083540402835291602001916109a1565b820191905f5260205f20905b81548152906001019060200180831161098457829003601f168201915b5050505050908060010180546109b690614931565b80601f01602080910402602001604051908101604052809291908181526020018280546109e290614931565b8015610a2d5780601f10610a0457610100808354040283529160200191610a2d565b820191905f5260205f20905b815481529060010190602001808311610a1057829003601f168201915b505050506002830154600384015460048501546005860154600687015460078801546008890154600990990154979873ffffffffffffffffffffffffffffffffffffffff968716989587169750959093169491939092919060ff808216916101009004168b565b5f818152600760205260409020600281015473ffffffffffffffffffffffffffffffffffffffff1633141580610ae45750600381015473ffffffffffffffffffffffffffffffffffffffff163314155b15610b1b576040517fc7e1fa0900000000000000000000000000000000000000000000000000000000815260040160405180910390fd5b6008600982015460ff166008811115610b3657610b36614448565b14610b6d576040517f49dfe70300000000000000000000000000000000000000000000000000000000815260040160405180910390fd5b5f828152600a6020526040808220805482517f1973f028000000000000000000000000000000000000000000000000000000008152925191939273ffffffffffffffffffffffffffffffffffffffff90911691631973f028916004808201926060929091908290030181865afa925050508015610c25575060408051601f3d9081017fffffffffffffffffffffffffffffffffffffffffffffffffffffffffffffffe0168201909252610c2291810190614982565b60015b610c5b576040517fd6c1175c00000000000000000000000000000000000000000000000000000000815260040160405180910390fd5b9250505073ffffffffffffffffffffffffffffffffffffffff8116610cac576040517fd6c1175c00000000000000000000000000000000000000000000000000000000815260040160405180910390fd5b60018201805473ffffffffffffffffffffffffffffffffffffffff8381167fffffffffffffffffffffff0000000000000000000000000000000000000000009092168217740100000000000000000000000000000000000000001790925560028501549091169003610d79576009830180547fffffffffffffffffffffffffffffffffffffffffffffffffffffffffffffff001660059081179091558301546004840154610d749173ffffffffffffffffffffffffffffffffffffffff909116908390613b3c565b610e57565b600383015473ffffffffffffffffffffffffffffffffffffffff90811690821603610e57576009830180547fffffffffffffffffffffffffffffffffffffffffffffffffffffffffffffff00166003179055600683015460058401545f91620f424091610de691906149e6565b610df091906149fd565b6002546004860154919250610e1f9173ffffffffffffffffffffffffffffffffffffffff908116911683613b3c565b610e5582828660050154610e339190614a35565b600487015473ffffffffffffffffffffffffffffffffffffffff169190613b3c565b505b81546040805186815273ffffffffffffffffffffffffffffffffffffffff9283166020820152918316908201524260608201527f3e8615c2f445043aada662bd9eb6e01a6be7146a0ac3745dff1085b3a1ee060d906080015b60405180910390a150505050565b610ec6613bc2565b73ffffffffffffffffffffffffffffffffffffffff8116610f13576040517fd92e233d00000000000000000000000000000000000000000000000000000000815260040160405180910390fd5b60025473ffffffffffffffffffffffffffffffffffffffff808316911603610f67576040517fdd5991bf00000000000000000000000000000000000000000000000000000000815260040160405180910390fd5b600280547fffffffffffffffffffffffff00000000000000000000000000000000000000001673ffffffffffffffffffffffffffffffffffffffff92909216919091179055565b610fb6613bc2565b73ffffffffffffffffffffffffffffffffffffffff8116611003576040517fd92e233d00000000000000000000000000000000000000000000000000000000815260040160405180910390fd5b60045473ffffffffffffffffffffffffffffffffffffffff90811690821603611058576040517fdd5991bf00000000000000000000000000000000000000000000000000000000815260040160405180910390fd5b600480547fffffffffffffffffffffffff00000000000000000000000000000000000000001673ffffffffffffffffffffffffffffffffffffffff92909216919091179055565b5f6110a8613c50565b805490915060ff68010000000000000000820416159067ffffffffffffffff165f811580156110d45750825b90505f8267ffffffffffffffff1660011480156110f05750303b155b9050811580156110fe575080155b15611135576040517ff92ee8a900000000000000000000000000000000000000000000000000000000815260040160405180910390fd5b84547fffffffffffffffffffffffffffffffffffffffffffffffff000000000000000016600117855583156111965784547fffffffffffffffffffffffffffffffffffffffffffffff00ffffffffffffffff16680100000000000000001785555b73ffffffffffffffffffffffffffffffffffffffff8b1615806111cd575073ffffffffffffffffffffffffffffffffffffffff8a16155b806111ec575073ffffffffffffffffffffffffffffffffffffffff8916155b8061120b575073ffffffffffffffffffffffffffffffffffffffff8816155b8061122a575073ffffffffffffffffffffffffffffffffffffffff8716155b15611261576040517fd92e233d00000000000000000000000000000000000000000000000000000000815260040160405180910390fd5b855f0361129a576040517f1f2a200500000000000000000000000000000000000000000000000000000000815260040160405180910390fd5b6112a333613c7a565b6112ab613c8b565b600280547fffffffffffffffffffffffff000000000000000000000000000000000000000090811673ffffffffffffffffffffffffffffffffffffffff8d8116919091179092556001805482168e84161790555f805482168c84161790556003805482168b8416179055600480549091169189169190911790556006869055831561138b5784547fffffffffffffffffffffffffffffffffffffffffffffff00ffffffffffffffff168555604051600181527fc7f505b2f371ae2175ee4913f4499e1f2633a7b5936321eed1cdaeb6115181d29060200160405180910390a15b5050505050505050505050565b5f83815260076020526040808220815161016081019092528054829082906113bf90614931565b80601f01602080910402602001604051908101604052809291908181526020018280546113eb90614931565b80156114365780601f1061140d57610100808354040283529160200191611436565b820191905f5260205f20905b81548152906001019060200180831161141957829003601f168201915b5050505050815260200160018201805461144f90614931565b80601f016020809104026020016040519081016040528092919081815260200182805461147b90614931565b80156114c65780601f1061149d576101008083540402835291602001916114c6565b820191905f5260205f20905b8154815290600101906020018083116114a957829003601f168201915b5050509183525050600282015473ffffffffffffffffffffffffffffffffffffffff9081166020830152600383015481166040830152600483015416606082015260058201546080820152600682015460a0820152600782015460c082015260088083015460e083015260098301546101009092019160ff169081111561154f5761154f614448565b600881111561156057611560614448565b81526020016009820160019054906101000a900460ff16600181111561158857611588614448565b600181111561159957611599614448565b905250604081015190915073ffffffffffffffffffffffffffffffffffffffff16331415806115e25750606081015173ffffffffffffffffffffffffffffffffffffffff163314155b15611619576040517fc7e1fa0900000000000000000000000000000000000000000000000000000000815260040160405180910390fd5b6008816101200151600881111561163257611632614448565b14611669576040517f49dfe70300000000000000000000000000000000000000000000000000000000815260040160405180910390fd5b5f848152600a602090815260408083208151606081018352815473ffffffffffffffffffffffffffffffffffffffff908116825260018301549081169482019490945292909183019074010000000000000000000000000000000000000000900460ff1660028111156116de576116de614448565b60028111156116ef576116ef614448565b8152505090505f815f015173ffffffffffffffffffffffffffffffffffffffff16631973f0286040518163ffffffff1660e01b8152600401606060405180830381865afa158015611742573d5f5f3e3d5ffd5b505050506040513d601f19601f820116820180604052508101906117669190614982565b9250505073ffffffffffffffffffffffffffffffffffffffff8116156117b8576040517fec642a9100000000000000000000000000000000000000000000000000000000815260040160405180910390fd5b81516040517fe25d50b400000000000000000000000000000000000000000000000000000000815273ffffffffffffffffffffffffffffffffffffffff9091169063e25d50b49061181190339089908990600401614a8f565b5f604051808303815f87803b158015611828575f5ffd5b505af115801561183a573d5f5f3e3d5ffd5b505083516040517f5eecb9ffeea0ca5bfc343c90bade18643b2a9b004243a0e542d963eaee8aa3509350611877925089919033908a908a90614abe565b60405180910390a1505050505050565b5f818152600760205260409020600281015473ffffffffffffffffffffffffffffffffffffffff1633146118e7576040517fc7e1fa0900000000000000000000000000000000000000000000000000000000815260040160405180910390fd5b5f600982015460ff16600881111561190157611901614448565b14611a59576001600982015460ff16600881111561192157611921614448565b03611969578060070154421015611964576040517f244bf27000000000000000000000000000000000000000000000000000000000815260040160405180910390fd5b611a59565b6008600982015460ff16600881111561198457611984614448565b036119bb576040517f0a30a94d00000000000000000000000000000000000000000000000000000000815260040160405180910390fd5b6004600982015460ff1660088111156119d6576119d6614448565b03611a2757426203f48082600801546119ef9190614b1a565b1115611964576040517f0fef244b00000000000000000000000000000000000000000000000000000000815260040160405180910390fd5b6040517f089c998700000000000000000000000000000000000000000000000000000000815260040160405180910390fd5b6009810180547fffffffffffffffffffffffffffffffffffffffffffffffffffffffffffffff001660059081179091556002820154908201546004830154611abc9273ffffffffffffffffffffffffffffffffffffffff91821692911690613b3c565b60098101546040517f1bce42b66f8cc4fc6a3fd89937a5fa068eee02da60eabdaee04fe642ccd05edf91611af591859160ff1690614b2d565b60405180910390a15050565b5f828152600760205260409020600381015473ffffffffffffffffffffffffffffffffffffffff163314611b61576040517fc7e1fa0900000000000000000000000000000000000000000000000000000000815260040160405180910390fd5b6002600982015460ff166008811115611b7c57611b7c614448565b14158015611ba357506004600982015460ff166008811115611ba057611ba0614448565b14155b15611bda576040517fa448418400000000000000000000000000000000000000000000000000000000815260040160405180910390fd5b6003546040517fdd62ed3e000000000000000000000000000000000000000000000000000000008152336004820152306024820152839173ffffffffffffffffffffffffffffffffffffffff169063dd62ed3e90604401602060405180830381865afa158015611c4c573d5f5f3e3d5ffd5b505050506040513d601f19601f82011682018060405250810190611c709190614b41565b1015611ca8576040517f13be252b00000000000000000000000000000000000000000000000000000000815260040160405180910390fd5b600654821015611ce4576040517f58d620b300000000000000000000000000000000000000000000000000000000815260040160405180910390fd5b600454600354611d109173ffffffffffffffffffffffffffffffffffffffff9182169133911685613c93565b5f838152600860205260409020805460017fffffffffffffffffffffffffffffffffffffffffffffffffffffffffffffff00918216811790925560098301805460069391921690830217905550604080516060810182528481525f60208083018281528385018381528884526009835292859020935184555160018401559051600290920180547fffffffffffffffffffffffff00000000000000000000000000000000000000001673ffffffffffffffffffffffffffffffffffffffff90931692909217909155815185815233918101919091527f36f34604e6e8b4015923e49ea5b13bf88360bc45d2bc624593f7c721c71c997f91015b60405180910390a1505050565b611e1e613cdf565b611e2782613de3565b611e318282613deb565b5050565b5f611e3e613f24565b507f360894a13ba1a3210667c828492db98dca3e2076cc3735a920a3ca505d382bbc90565b5f818152600760205260409020600281015473ffffffffffffffffffffffffffffffffffffffff163314611ec3576040517fc7e1fa0900000000000000000000000000000000000000000000000000000000815260040160405180910390fd5b6002600982015460ff166008811115611ede57611ede614448565b14611f15576040517fa448418400000000000000000000000000000000000000000000000000000000815260040160405180910390fd5b6009810180547fffffffffffffffffffffffffffffffffffffffffffffffffffffffffffffff00166003179055426008820155600681015460058201545f91620f424091611f6391906149e6565b611f6d91906149fd565b6002546004840154919250611f9c9173ffffffffffffffffffffffffffffffffffffffff908116911683613b3c565b60038201546005830154611fee9173ffffffffffffffffffffffffffffffffffffffff1690611fcc908490614a35565b600485015473ffffffffffffffffffffffffffffffffffffffff169190613b3c565b600982015460058301547fa03ba435daf8f0f487dd336d633b4849feca9bfc582732e1690833d3fa78cd2491859160ff9091169061202d908590614a35565b84604051611e099493929190614b58565b5f818152600760205260409020600281015473ffffffffffffffffffffffffffffffffffffffff16331480159061208f5750600381015473ffffffffffffffffffffffffffffffffffffffff163314155b156120c6576040517fc7e1fa0900000000000000000000000000000000000000000000000000000000815260040160405180910390fd5b6007600982015460ff1660088111156120e1576120e1614448565b14612118576040517f49dfe70300000000000000000000000000000000000000000000000000000000815260040160405180910390fd5b5f82815260096020908152604091829020825160608101845281548152600182015492810183905260029091015473ffffffffffffffffffffffffffffffffffffffff16928101929092526121709061070890614b1a565b4210156121a9576040517f0fef244b00000000000000000000000000000000000000000000000000000000815260040160405180910390fd5b604081015173ffffffffffffffffffffffffffffffffffffffff166121fa576040517fd6c1175c00000000000000000000000000000000000000000000000000000000815260040160405180910390fd5b6002820154604082015173ffffffffffffffffffffffffffffffffffffffff918216911603612288576009820180547fffffffffffffffffffffffffffffffffffffffffffffffffffffffffffffff0016600590811790915560408201519083015460048401546122839273ffffffffffffffffffffffffffffffffffffffff90911691613b3c565b61236e565b6003820154604082015173ffffffffffffffffffffffffffffffffffffffff91821691160361236e576009820180547fffffffffffffffffffffffffffffffffffffffffffffffffffffffffffffff00166003179055600682015460058301545f91620f4240916122f991906149e6565b61230391906149fd565b60025460048501549192506123329173ffffffffffffffffffffffffffffffffffffffff908116911683613b3c565b61236c826040015182856005015461234a9190614a35565b600486015473ffffffffffffffffffffffffffffffffffffffff169190613b3c565b505b60098201546040517ff99fa374979490944cafd02424ae4bed0ac02734aa88f62f4d3094cc55c7138a91611e0991869160ff1690614b2d565b6123af613bc2565b73ffffffffffffffffffffffffffffffffffffffff81166123fc576040517fd92e233d00000000000000000000000000000000000000000000000000000000815260040160405180910390fd5b60015473ffffffffffffffffffffffffffffffffffffffff90811690821603612451576040517fdd5991bf00000000000000000000000000000000000000000000000000000000815260040160405180910390fd5b600180547fffffffffffffffffffffffff00000000000000000000000000000000000000001673ffffffffffffffffffffffffffffffffffffffff92909216919091179055565b6124a0613bc2565b73ffffffffffffffffffffffffffffffffffffffff81166124ed576040517fd92e233d00000000000000000000000000000000000000000000000000000000815260040160405180910390fd5b5f5473ffffffffffffffffffffffffffffffffffffffff90811690821603612541576040517fdd5991bf00000000000000000000000000000000000000000000000000000000815260040160405180910390fd5b5f80547fffffffffffffffffffffffff00000000000000000000000000000000000000001673ffffffffffffffffffffffffffffffffffffffff92909216919091179055565b61258f613bc2565b6125985f613f93565b565b5f828152600760205260409020600281015473ffffffffffffffffffffffffffffffffffffffff1633148015906125eb5750600381015473ffffffffffffffffffffffffffffffffffffffff163314155b15612622576040517fc7e1fa0900000000000000000000000000000000000000000000000000000000815260040160405180910390fd5b6002600982015460ff16600881111561263d5761263d614448565b148061266157506004600982015460ff16600881111561265f5761265f614448565b145b612807576007600982015460ff16600881111561268057612680614448565b036127d5575f83815260096020908152604091829020825160608101845281548152600182015492810183905260029091015473ffffffffffffffffffffffffffffffffffffffff16928101929092526126dd9061070890614b1a565b421115612716576040517f748fbb0600000000000000000000000000000000000000000000000000000000815260040160405180910390fd5b600282015460408201515f9173ffffffffffffffffffffffffffffffffffffffff91821691161461276157600283015473ffffffffffffffffffffffffffffffffffffffff1661277d565b600383015473ffffffffffffffffffffffffffffffffffffffff165b90503373ffffffffffffffffffffffffffffffffffffffff8216146127ce576040517fc7e1fa0900000000000000000000000000000000000000000000000000000000815260040160405180910390fd5b5050612807565b6040517fa448418400000000000000000000000000000000000000000000000000000000815260040160405180910390fd5b60016009820154610100900460ff16600181111561282757612827614448565b14801561283757506317d7840082105b1561286e576040517f58d620b300000000000000000000000000000000000000000000000000000000815260040160405180910390fd5b5f6009820154610100900460ff16600181111561288d5761288d614448565b14801561289c575062e4e1c082105b156128d3576040517f58d620b300000000000000000000000000000000000000000000000000000000815260040160405180910390fd5b5f806009830154610100900460ff1660018111156128f3576128f3614448565b0361292957620f4240611388836005015461290e91906149e6565b61291891906149fd565b6129229084614b1a565b905061297b565b60016009830154610100900460ff16600181111561294957612949614448565b0361297b57620f42406109c4836005015461296491906149e6565b61296e91906149fd565b6129789084614b1a565b90505b6003545f546040517fdd62ed3e00000000000000000000000000000000000000000000000000000000815233600482015273ffffffffffffffffffffffffffffffffffffffff91821660248201528392919091169063dd62ed3e90604401602060405180830381865afa1580156129f4573d5f5f3e3d5ffd5b505050506040513d601f19601f82011682018060405250810190612a189190614b41565b1015612a50576040517f13be252b00000000000000000000000000000000000000000000000000000000815260040160405180910390fd5b60038201545f9073ffffffffffffffffffffffffffffffffffffffff163303612b32575f5460028401546003850154600586015473ffffffffffffffffffffffffffffffffffffffff9384169363a97e32db9381169288929116906001830190620f4240612ac06109c4836149e6565b612aca91906149fd565b6040518763ffffffff1660e01b8152600401612aeb96959493929190614c1b565b6020604051808303815f875af1158015612b07573d5f5f3e3d5ffd5b505050506040513d601f19601f82011682018060405250810190612b2b9190614c8d565b9050612c0e565b600283015473ffffffffffffffffffffffffffffffffffffffff163303612c0e575f5460038401546002850154600586015473ffffffffffffffffffffffffffffffffffffffff9384169363a97e32db9381169260018901929116908890620f4240612ba06109c4836149e6565b612baa91906149fd565b6040518763ffffffff1660e01b8152600401612bcb96959493929190614c1b565b6020604051808303815f875af1158015612be7573d5f5f3e3d5ffd5b505050506040513d601f19601f82011682018060405250810190612c0b9190614c8d565b90505b6040805160608101825273ffffffffffffffffffffffffffffffffffffffff831681525f6020820181905290918201525f868152600a60209081526040918290208351815473ffffffffffffffffffffffffffffffffffffffff9182167fffffffffffffffffffffffff0000000000000000000000000000000000000000918216178355928501516001830180549190921693811684178255938501519193919290917fffffffffffffffffffffff000000000000000000000000000000000000000000161774010000000000000000000000000000000000000000836002811115612cfc57612cfc614448565b021790555050506009830180547fffffffffffffffffffffffffffffffffffffffffffffffffffffffffffffff00166008179055604080518681523360208201527f9eebb460aaaebd5056d7d5275b538763f133d10c31c851fc4ca7f3172550f682910160405180910390a15050505050565b612d77613bc2565b805f03612db0576040517f1f2a200500000000000000000000000000000000000000000000000000000000815260040160405180910390fd5b6006548103612deb576040517fdd5991bf00000000000000000000000000000000000000000000000000000000815260040160405180910390fd5b600655565b60045473ffffffffffffffffffffffffffffffffffffffff163314612e41576040517fc7e1fa0900000000000000000000000000000000000000000000000000000000815260040160405180910390fd5b5f82815260076020908152604080832060089092529091205460ff161515600114801590612e8857506006600982015460ff166008811115612e8557612e85614448565b14155b15612ebf576040517f49dfe70300000000000000000000000000000000000000000000000000000000815260040160405180910390fd5b600281015473ffffffffffffffffffffffffffffffffffffffff838116911614801590612f095750600381015473ffffffffffffffffffffffffffffffffffffffff838116911614155b15612f40576040517fc715138d00000000000000000000000000000000000000000000000000000000815260040160405180910390fd5b5f8381526009602081815260408084206002810180547fffffffffffffffffffffffff00000000000000000000000000000000000000001673ffffffffffffffffffffffffffffffffffffffff89169081179091554260018301819055948701805460077fffffffffffffffffffffffffffffffffffffffffffffffffffffffffffffff0091821617909155600885529583902080549096169095558151888152928301949094528101919091527fb37918f4f3a6a3e4fa48b01d23f6b8b1bae190b646d31c800763e13e1bb18f4d90606001610eb0565b5f828152600760205260409020600381015473ffffffffffffffffffffffffffffffffffffffff163314613078576040517fc7e1fa0900000000000000000000000000000000000000000000000000000000815260040160405180910390fd5b6001600982015460ff16600881111561309357613093614448565b141580156130ba57506002600982015460ff1660088111156130b7576130b7614448565b14155b156130f1576040517fb047b51700000000000000000000000000000000000000000000000000000000815260040160405180910390fd5b806007015442111561312f576040517f3c4fac2d00000000000000000000000000000000000000000000000000000000815260040160405180910390fd5b6001810161313d8382614cf3565b506009810180547fffffffffffffffffffffffffffffffffffffffffffffffffffffffffffffff001660029081179091556040517f4a52b7a90c0f06455590390d40301a63e3eeb740fb12f65b1a54cd5665235d0991611e0991869190614b2d565b73ffffffffffffffffffffffffffffffffffffffff86166131ec576040517fd92e233d00000000000000000000000000000000000000000000000000000000815260040160405180910390fd5b8315806131f7575082155b1561322e576040517f1f2a200500000000000000000000000000000000000000000000000000000000815260040160405180910390fd5b428211613267576040517f6f7eac2600000000000000000000000000000000000000000000000000000000815260040160405180910390fd5b5f81600181111561327a5761327a614448565b1415801561329a5750600181600181111561329757613297614448565b14155b156132d1576040517f97cf712c00000000000000000000000000000000000000000000000000000000815260040160405180910390fd5b60035473ffffffffffffffffffffffffffffffffffffffff868116911614613325576040517f2d28e92b00000000000000000000000000000000000000000000000000000000815260040160405180910390fd5b60058054905f61333483614e0a565b919050555060405180610160016040528088815260200160405180602001604052805f81525081526020013373ffffffffffffffffffffffffffffffffffffffff1681526020018773ffffffffffffffffffffffffffffffffffffffff1681526020018673ffffffffffffffffffffffffffffffffffffffff1681526020018581526020018481526020018381526020015f81526020015f60088111156133dd576133dd614448565b81526020018260018111156133f4576133f4614448565b90526005545f908152600760205260409020815181906134149082614cf3565b50602082015160018201906134299082614cf3565b50604082015160028201805473ffffffffffffffffffffffffffffffffffffffff9283167fffffffffffffffffffffffff0000000000000000000000000000000000000000918216179091556060840151600384018054918416918316919091179055608084015160048401805491909316911617905560a0820151600582015560c0820151600682015560e08201516007820155610100820151600880830191909155610120830151600983018054919290917fffffffffffffffffffffffffffffffffffffffffffffffffffffffffffffff001690600190849081111561351457613514614448565b02179055506101408201516009820180547fffffffffffffffffffffffffffffffffffffffffffffffffffffffffffff00ff1661010083600181111561355c5761355c614448565b02179055509050505f60075f60055481526020019081526020015f20604051806101600160405290815f8201805461359390614931565b80601f01602080910402602001604051908101604052809291908181526020018280546135bf90614931565b801561360a5780601f106135e15761010080835404028352916020019161360a565b820191905f5260205f20905b8154815290600101906020018083116135ed57829003601f168201915b5050505050815260200160018201805461362390614931565b80601f016020809104026020016040519081016040528092919081815260200182805461364f90614931565b801561369a5780601f106136715761010080835404028352916020019161369a565b820191905f5260205f20905b81548152906001019060200180831161367d57829003601f168201915b5050509183525050600282015473ffffffffffffffffffffffffffffffffffffffff9081166020830152600383015481166040830152600483015416606082015260058201546080820152600682015460a0820152600782015460c082015260088083015460e083015260098301546101009092019160ff169081111561372357613723614448565b600881111561373457613734614448565b81526020016009820160019054906101000a900460ff16600181111561375c5761375c614448565b600181111561376d5761376d614448565b90525090506137ba3330620f42406137876127108a6149e6565b61379191906149fd565b61379b9089614b1a565b73ffffffffffffffffffffffffffffffffffffffff8a16929190613c93565b60015461380f9073ffffffffffffffffffffffffffffffffffffffff16620f42406137e7612710896149e6565b6137f191906149fd565b73ffffffffffffffffffffffffffffffffffffffff89169190613b3c565b7f5973f61b9a8e5c40cafbe5a3c0a1ea6b5f554c156abca8606c4aa58108cb05f981620f4240613841612710896149e6565b61384b91906149fd565b604051613859929190614e41565b60405180910390a15050505050505050565b5f818152600760205260409020600281015473ffffffffffffffffffffffffffffffffffffffff1633146138cb576040517fc7e1fa0900000000000000000000000000000000000000000000000000000000815260040160405180910390fd5b6002600982015460ff1660088111156138e6576138e6614448565b1461391d576040517fa448418400000000000000000000000000000000000000000000000000000000815260040160405180910390fd5b6009810180547fffffffffffffffffffffffffffffffffffffffffffffffffffffffffffffff001660049081179091554260088301556040517fadbbfcc607ca29567798c8ca6290a0134f10f6efd1a94600c60e88016861e8f491611af591859190614b2d565b61398c613bc2565b73ffffffffffffffffffffffffffffffffffffffff81166139e0576040517f1e4fbdf70000000000000000000000000000000000000000000000000000000081525f60048201526024015b60405180910390fd5b6139e981613f93565b50565b5f818152600760205260409020600381015473ffffffffffffffffffffffffffffffffffffffff163314613a4c576040517fc7e1fa0900000000000000000000000000000000000000000000000000000000815260040160405180910390fd5b5f600982015460ff166008811115613a6657613a66614448565b14613a9d576040517f340eba5300000000000000000000000000000000000000000000000000000000815260040160405180910390fd5b4281600701541015613adb576040517f3c4fac2d00000000000000000000000000000000000000000000000000000000815260040160405180910390fd5b6009810180547fffffffffffffffffffffffffffffffffffffffffffffffffffffffffffffff001660019081179091556040517f2e7e3f2a85e019a371c7c29675cbe0e33b4d1ff733f45c46eeb3e02083bab73c91611af591859190614b2d565b60405173ffffffffffffffffffffffffffffffffffffffff838116602483015260448201839052613bbd91859182169063a9059cbb906064015b604051602081830303815290604052915060e01b6020820180517bffffffffffffffffffffffffffffffffffffffffffffffffffffffff8381831617835250505050614028565b505050565b33613c017f9016d09d72d40fdae2fd8ceac6b6234c7706214fd39c1cd1e609a0528c1993005473ffffffffffffffffffffffffffffffffffffffff1690565b73ffffffffffffffffffffffffffffffffffffffff1614612598576040517f118cdaa70000000000000000000000000000000000000000000000000000000081523360048201526024016139d7565b5f807ff0c57e16840df040f15088dc2f81fe391c3923bec73e23a9662efc9c229c6a005b92915050565b613c826140c7565b6139e981614105565b6125986140c7565b60405173ffffffffffffffffffffffffffffffffffffffff8481166024830152838116604483015260648201839052613cd99186918216906323b872dd90608401613b76565b50505050565b3073ffffffffffffffffffffffffffffffffffffffff7f0000000000000000000000000000000000000000000000000000000000000000161480613dac57507f000000000000000000000000000000000000000000000000000000000000000073ffffffffffffffffffffffffffffffffffffffff16613d937f360894a13ba1a3210667c828492db98dca3e2076cc3735a920a3ca505d382bbc5473ffffffffffffffffffffffffffffffffffffffff1690565b73ffffffffffffffffffffffffffffffffffffffff1614155b15612598576040517fe07c8dba00000000000000000000000000000000000000000000000000000000815260040160405180910390fd5b6139e9613bc2565b8173ffffffffffffffffffffffffffffffffffffffff166352d1902d6040518163ffffffff1660e01b8152600401602060405180830381865afa925050508015613e70575060408051601f3d9081017fffffffffffffffffffffffffffffffffffffffffffffffffffffffffffffffe0168201909252613e6d91810190614b41565b60015b613ebe576040517f4c9c8ce300000000000000000000000000000000000000000000000000000000815273ffffffffffffffffffffffffffffffffffffffff831660048201526024016139d7565b7f360894a13ba1a3210667c828492db98dca3e2076cc3735a920a3ca505d382bbc8114613f1a576040517faa1d49a4000000000000000000000000000000000000000000000000000000008152600481018290526024016139d7565b613bbd838361410d565b3073ffffffffffffffffffffffffffffffffffffffff7f00000000000000000000000000000000000000000000000000000000000000001614612598576040517fe07c8dba00000000000000000000000000000000000000000000000000000000815260040160405180910390fd5b7f9016d09d72d40fdae2fd8ceac6b6234c7706214fd39c1cd1e609a0528c19930080547fffffffffffffffffffffffff0000000000000000000000000000000000000000811673ffffffffffffffffffffffffffffffffffffffff848116918217845560405192169182907f8be0079c531659141344cd1fd0a4f28419497f9722a3daafe3b4186f6b6457e0905f90a3505050565b5f5f60205f8451602086015f885af180614047576040513d5f823e3d81fd5b50505f513d9150811561405e578060011415614078565b73ffffffffffffffffffffffffffffffffffffffff84163b155b15613cd9576040517f5274afe700000000000000000000000000000000000000000000000000000000815273ffffffffffffffffffffffffffffffffffffffff851660048201526024016139d7565b6140cf61416f565b612598576040517fd7e6bcf800000000000000000000000000000000000000000000000000000000815260040160405180910390fd5b61398c6140c7565b6141168261418d565b60405173ffffffffffffffffffffffffffffffffffffffff8316907fbc7cd75a20ee27fd9adebab32041f755214dbc6bffa90cc0225b39da2e5c2d3b905f90a280511561416757613bbd828261425b565b611e316142da565b5f614178613c50565b5468010000000000000000900460ff16919050565b8073ffffffffffffffffffffffffffffffffffffffff163b5f036141f5576040517f4c9c8ce300000000000000000000000000000000000000000000000000000000815273ffffffffffffffffffffffffffffffffffffffff821660048201526024016139d7565b7f360894a13ba1a3210667c828492db98dca3e2076cc3735a920a3ca505d382bbc80547fffffffffffffffffffffffff00000000000000000000000000000000000000001673ffffffffffffffffffffffffffffffffffffffff92909216919091179055565b60605f5f8473ffffffffffffffffffffffffffffffffffffffff16846040516142849190614f6e565b5f60405180830381855af49150503d805f81146142bc576040519150601f19603f3d011682016040523d82523d5f602084013e6142c1565b606091505b50915091506142d1858383614312565b95945050505050565b3415612598576040517fb398979f00000000000000000000000000000000000000000000000000000000815260040160405180910390fd5b60608261432757614322826143a4565b61439d565b815115801561434b575073ffffffffffffffffffffffffffffffffffffffff84163b155b1561439a576040517f9996b31500000000000000000000000000000000000000000000000000000000815273ffffffffffffffffffffffffffffffffffffffff851660048201526024016139d7565b50805b9392505050565b8051156143b357805160208201fd5b6040517fd6bda27500000000000000000000000000000000000000000000000000000000815260040160405180910390fd5b5f602082840312156143f5575f5ffd5b5035919050565b5f81518084528060208401602086015e5f6020828601015260207fffffffffffffffffffffffffffffffffffffffffffffffffffffffffffffffe0601f83011685010191505092915050565b7f4e487b71000000000000000000000000000000000000000000000000000000005f52602160045260245ffd5b6009811061448557614485614448565b9052565b6002811061448557614485614448565b61016081525f6144ad61016083018e6143fc565b82810360208401526144bf818e6143fc565b91505073ffffffffffffffffffffffffffffffffffffffff8b16604083015273ffffffffffffffffffffffffffffffffffffffff8a16606083015273ffffffffffffffffffffffffffffffffffffffff891660808301528760a08301528660c08301528560e08301528461010083015261453d610120830185614475565b61454b610140830184614489565b9c9b505050505050505050505050565b73ffffffffffffffffffffffffffffffffffffffff811681146139e9575f5ffd5b5f6020828403121561458c575f5ffd5b813561439d8161455b565b5f5f5f5f5f5f60c087890312156145ac575f5ffd5b86356145b78161455b565b955060208701356145c78161455b565b945060408701356145d78161455b565b935060608701356145e78161455b565b925060808701356145f78161455b565b9598949750929591949360a090920135925050565b73ffffffffffffffffffffffffffffffffffffffff848116825283166020820152606081016003831061464157614641614448565b826040830152949350505050565b5f5f5f60408486031215614661575f5ffd5b83359250602084013567ffffffffffffffff81111561467e575f5ffd5b8401601f8101861361468e575f5ffd5b803567ffffffffffffffff8111156146a4575f5ffd5b8660208284010111156146b5575f5ffd5b939660209190910195509293505050565b5f5f604083850312156146d7575f5ffd5b50508035926020909101359150565b7f4e487b71000000000000000000000000000000000000000000000000000000005f52604160045260245ffd5b5f5f67ffffffffffffffff84111561472d5761472d6146e6565b506040517fffffffffffffffffffffffffffffffffffffffffffffffffffffffffffffffe0601f85018116603f0116810181811067ffffffffffffffff8211171561477a5761477a6146e6565b604052838152905080828401851015614791575f5ffd5b838360208301375f60208583010152509392505050565b5f5f604083850312156147b9575f5ffd5b82356147c48161455b565b9150602083013567ffffffffffffffff8111156147df575f5ffd5b8301601f810185136147ef575f5ffd5b6147fe85823560208401614713565b9150509250929050565b602081525f61439d60208301846143fc565b5f5f6040838503121561482b575f5ffd5b82359150602083013561483d8161455b565b809150509250929050565b5f82601f830112614857575f5ffd5b61439d83833560208501614713565b5f5f60408385031215614877575f5ffd5b82359150602083013567ffffffffffffffff811115614894575f5ffd5b6147fe85828601614848565b5f5f5f5f5f5f5f60e0888a0312156148b6575f5ffd5b873567ffffffffffffffff8111156148cc575f5ffd5b6148d88a828b01614848565b97505060208801356148e98161455b565b955060408801356148f98161455b565b9450606088013593506080880135925060a0880135915060c088013560028110614921575f5ffd5b8091505092959891949750929550565b600181811c9082168061494557607f821691505b60208210810361497c577f4e487b71000000000000000000000000000000000000000000000000000000005f52602260045260245ffd5b50919050565b5f5f5f60608486031215614994575f5ffd5b83516020850151604086015191945092506149ae8161455b565b809150509250925092565b7f4e487b71000000000000000000000000000000000000000000000000000000005f52601160045260245ffd5b8082028115828204841417613c7457613c746149b9565b5f82614a30577f4e487b71000000000000000000000000000000000000000000000000000000005f52601260045260245ffd5b500490565b81810381811115613c7457613c746149b9565b81835281816020850137505f602082840101525f60207fffffffffffffffffffffffffffffffffffffffffffffffffffffffffffffffe0601f840116840101905092915050565b73ffffffffffffffffffffffffffffffffffffffff84168152604060208201525f6142d1604083018486614a48565b85815273ffffffffffffffffffffffffffffffffffffffff8516602082015273ffffffffffffffffffffffffffffffffffffffff84166040820152608060608201525f614b0f608083018486614a48565b979650505050505050565b80820180821115613c7457613c746149b9565b8281526040810161439d6020830184614475565b5f60208284031215614b51575f5ffd5b5051919050565b84815260808101614b6c6020830186614475565b60408201939093526060015292915050565b5f8154614b8a81614931565b808552600182168015614ba45760018114614bde57614c12565b7fffffffffffffffffffffffffffffffffffffffffffffffffffffffffffffff0083166020870152602082151560051b8701019350614c12565b845f5260205f205f5b83811015614c095781546020828a010152600182019150602081019050614be7565b87016020019450505b50505092915050565b73ffffffffffffffffffffffffffffffffffffffff8716815260c060208201525f614c4960c0830188614b7e565b73ffffffffffffffffffffffffffffffffffffffff871660408401528281036060840152614c778187614b7e565b6080840195909552505060a00152949350505050565b5f60208284031215614c9d575f5ffd5b815161439d8161455b565b601f821115613bbd57805f5260205f20601f840160051c81016020851015614ccd5750805b601f840160051c820191505b81811015614cec575f8155600101614cd9565b5050505050565b815167ffffffffffffffff811115614d0d57614d0d6146e6565b614d2181614d1b8454614931565b84614ca8565b6020601f821160018114614d72575f8315614d3c5750848201515b7fffffffffffffffffffffffffffffffffffffffffffffffffffffffffffffffff600385901b1c1916600184901b178455614cec565b5f848152602081207fffffffffffffffffffffffffffffffffffffffffffffffffffffffffffffffe08516915b82811015614dbf5787850151825560209485019460019092019101614d9f565b5084821015614dfb57868401517fffffffffffffffffffffffffffffffffffffffffffffffffffffffffffffffff600387901b60f8161c191681555b50505050600190811b01905550565b5f7fffffffffffffffffffffffffffffffffffffffffffffffffffffffffffffffff8203614e3a57614e3a6149b9565b5060010190565b604081525f83516101606040840152614e5e6101a08401826143fc565b905060208501517fffffffffffffffffffffffffffffffffffffffffffffffffffffffffffffffc0848303016060850152614e9982826143fc565b9150506040850151614ec3608085018273ffffffffffffffffffffffffffffffffffffffff169052565b50606085015173ffffffffffffffffffffffffffffffffffffffff811660a085015250608085015173ffffffffffffffffffffffffffffffffffffffff811660c08501525060a085015160e084015260c085015161010084015260e0850151610120840152610100850151610140840152610120850151614f48610160850182614475565b50610140850151614f5d610180850182614489565b506020929092019290925292915050565b5f82518060208501845e5f92019182525091905056fea2646970667358221220b63135ea2a91937e0cf7dca48a2721a0d9c8afdf45c88b258edb76258d1122c664736f6c634300081d0033","linkReferences":{}},"methodIdentifiers":{"APPEAL_TIME_DISPUTE_AI()":"91098796","AcceptEscrow(uint256)":"f6f75109","CreateDispute(uint256,uint256)":"a6a3d199","CreateEscrow(string,address,address,uint256,uint256,uint256,uint8)":"cda54b14","DENIED_REFUND_TIME()":"874c7ebb","DenyEscrow(uint256)":"dd1a17ee","Initialize(address,address,address,address,address,uint256)":"2f6073bc","PPM()":"0d720bbc","RefundEscrow(uint256)":"3ac793f4","ReleaseEscrow(uint256)":"5cec5548","SubmitEscrow(uint256,string)":"af07c7c7","UPGRADE_INTERFACE_VERSION()":"ad3cb1cc","claimAIDispute(uint256)":"62f9c01c","createAIDispute(uint256,uint256)":"3ae8c357","escrowIDtoAIDispute(uint256)":"33049246","escrowId()":"5753d989","escrowPlatformFee()":"98a06cdc","escrows(uint256)":"012f52ee","escrowtoDisputeAI(uint256)":"ff0e2dc5","escrowtoDisputeOracle(uint256)":"30f6472c","feeWallet()":"f25f4b56","miniDisputeDealSizeFee()":"059f8454","owner()":"8da5cb5b","proxiableUUID()":"52d1902d","regularDisputeDealSizeFee()":"c0741b08","renounceOwnership()":"715018a6","resolveDisputeOracle(uint256)":"02dcd3cb","resolveViaAI(uint256,address)":"ae1539b9","resolverAI()":"f8b7f363","resolverFeeAI()":"335beaa2","submitProofAgain(uint256,string)":"342b9695","swapandBurnContract()":"32b094fa","tomiDisputeAddress()":"83d4da02","transferOwnership(address)":"f2fde38b","updateFeeWallet(address)":"66718524","updateResolverAddress(address)":"2ca7f509","updateResolverFee(uint256)":"a8b9bde4","updateSwapAndBurnContract(address)":"128e42fa","updateTomiDisputeAddress(address)":"684858c7","upgradeToAndCall(address,bytes)":"4f1ef286","usdtToken()":"a98ad46c"},"id":38}