{"abi":[{"type":"constructor","inputs":[],"stateMutability":"nonpayable"},{"type":"function","name":"APPEAL_TIME_DISPUTE_AI","inputs":[],"outputs":[{"name":"","type":"uint256","internalType":"uint256"}],"stateMutability":"view"},{"type":"function","name":"AcceptEscrow","inputs":[{"name":"escrowID","type":"uint256","internalType":"uint256"}],"outputs":[],"stateMutability":"nonpayable"},{"type":"function","name":"CreateDispute","inputs":[{"name":"escrowID","type":"uint256","internalType":"uint256"},{"name":"amountinUSD","type":"uint256","internalType":"uint256"}],"outputs":[],"stateMutability":"nonpayable"},{"type":"function","name":"CreateEscrow","inputs":[{"name":"detailsURI","type":"string","internalType":"string"},{"name":"toAddress","type":"address","internalType":"address"},{"name":"tokenAddress","type":"address","internalType":"address"},{"name":"amountInUSDT","type":"uint256","internalType":"uint256"},{"name":"feeinPPM","type":"uint256","internalType":"uint256"},{"name":"deadline","type":"uint256","internalType":"uint256"},{"name":"disputeType","type":"uint8","internalType":"enum EscrowPayment.DisputeType"}],"outputs":[],"stateMutability":"nonpayable"},{"type":"function","name":"DENIED_REFUND_TIME","inputs":[],"outputs":[{"name":"","type":"uint256","internalType":"uint256"}],"stateMutability":"view"},{"type":"function","name":"DenyEscrow","inputs":[{"name":"escrowID","type":"uint256","internalType":"uint256"}],"outputs":[],"stateMutability":"nonpayable"},{"type":"function","name":"Initialize","inputs":[{"name":"feeWalletAddress","type":"address","internalType":"address"},{"name":"swapandBurnContractAddress","type":"address","internalType":"address"},{"name":"tomiDisputeaddress","type":"address","internalType":"address"},{"name":"usdtAddress","type":"address","internalType":"address"},{"name":"resolverAIAddress","type":"address","internalType":"address"},{"name":"signerAddress","type":"address","internalType":"address"},{"name":"resolverFeeAmount","type":"uint256","internalType":"uint256"}],"outputs":[],"stateMutability":"nonpayable"},{"type":"function","name":"PPM","inputs":[],"outputs":[{"name":"","type":"uint256","internalType":"uint256"}],"stateMutability":"view"},{"type":"function","name":"RefundEscrow","inputs":[{"name":"escrowID","type":"uint256","internalType":"uint256"}],"outputs":[],"stateMutability":"nonpayable"},{"type":"function","name":"ReleaseEscrow","inputs":[{"name":"escrowID","type":"uint256","internalType":"uint256"}],"outputs":[],"stateMutability":"nonpayable"},{"type":"function","name":"SubmitEscrow","inputs":[{"name":"escrowID","type":"uint256","internalType":"uint256"},{"name":"submissionURI","type":"string","internalType":"string"}],"outputs":[],"stateMutability":"nonpayable"},{"type":"function","name":"UPGRADE_INTERFACE_VERSION","inputs":[],"outputs":[{"name":"","type":"string","internalType":"string"}],"stateMutability":"view"},{"type":"function","name":"claimAIDispute","inputs":[{"name":"escrowID","type":"uint256","internalType":"uint256"}],"outputs":[],"stateMutability":"nonpayable"},{"type":"function","name":"createAIDispute","inputs":[{"name":"escrowID","type":"uint256","internalType":"uint256"},{"name":"resolverFee","type":"uint256","internalType":"uint256"}],"outputs":[],"stateMutability":"nonpayable"},{"type":"function","name":"escrowIDtoAIDispute","inputs":[{"name":"escrowID","type":"uint256","internalType":"uint256"}],"outputs":[{"name":"created","type":"bool","internalType":"bool"}],"stateMutability":"view"},{"type":"function","name":"escrowId","inputs":[],"outputs":[{"name":"","type":"uint256","internalType":"uint256"}],"stateMutability":"view"},{"type":"function","name":"escrowPlatformFee","inputs":[],"outputs":[{"name":"","type":"uint256","internalType":"uint256"}],"stateMutability":"view"},{"type":"function","name":"escrows","inputs":[{"name":"escrowID","type":"uint256","internalType":"uint256"}],"outputs":[{"name":"escrowDetialsURI","type":"string","internalType":"string"},{"name":"submissionURI","type":"string","internalType":"string"},{"name":"fromAddress","type":"address","internalType":"address"},{"name":"toAddress","type":"address","internalType":"address"},{"name":"tokenAddress","type":"address","internalType":"address"},{"name":"tokenAmount","type":"uint256","internalType":"uint256"},{"name":"feeinPPM","type":"uint256","internalType":"uint256"},{"name":"submissionDeadline","type":"uint256","internalType":"uint256"},{"name":"resultTime","type":"uint256","internalType":"uint256"},{"name":"status","type":"uint8","internalType":"enum EscrowPayment.EscrowStatus"},{"name":"disputeType","type":"uint8","internalType":"enum EscrowPayment.DisputeType"}],"stateMutability":"view"},{"type":"function","name":"escrowtoDisputeAI","inputs":[{"name":"escrowID","type":"uint256","internalType":"uint256"}],"outputs":[{"name":"escrowID","type":"uint256","internalType":"uint256"},{"name":"resolveTime","type":"uint256","internalType":"uint256"},{"name":"winnerAddress","type":"address","internalType":"address"}],"stateMutability":"view"},{"type":"function","name":"escrowtoDisputeOracle","inputs":[{"name":"escrowID","type":"uint256","internalType":"uint256"}],"outputs":[{"name":"disputeContract","type":"address","internalType":"address"},{"name":"winnerAddress","type":"address","internalType":"address"},{"name":"status","type":"uint8","internalType":"enum EscrowPayment.DisputeStatus"}],"stateMutability":"view"},{"type":"function","name":"feeWallet","inputs":[],"outputs":[{"name":"","type":"address","internalType":"address"}],"stateMutability":"view"},{"type":"function","name":"miniDisputeDealSizeFee","inputs":[],"outputs":[{"name":"","type":"uint256","internalType":"uint256"}],"stateMutability":"view"},{"type":"function","name":"owner","inputs":[],"outputs":[{"name":"","type":"address","internalType":"address"}],"stateMutability":"view"},{"type":"function","name":"proxiableUUID","inputs":[],"outputs":[{"name":"","type":"bytes32","internalType":"bytes32"}],"stateMutability":"view"},{"type":"function","name":"regularDisputeDealSizeFee","inputs":[],"outputs":[{"name":"","type":"uint256","internalType":"uint256"}],"stateMutability":"view"},{"type":"function","name":"renounceOwnership","inputs":[],"outputs":[],"stateMutability":"nonpayable"},{"type":"function","name":"resolveDisputeOracle","inputs":[{"name":"escrowID","type":"uint256","internalType":"uint256"},{"name":"deadline","type":"uint256","internalType":"uint256"},{"name":"signature","type":"bytes","internalType":"bytes"}],"outputs":[],"stateMutability":"nonpayable"},{"type":"function","name":"resolveViaAI","inputs":[{"name":"escrowID","type":"uint256","internalType":"uint256"},{"name":"winnerAddress","type":"address","internalType":"address"},{"name":"deadline","type":"uint256","internalType":"uint256"},{"name":"signature","type":"bytes","internalType":"bytes"}],"outputs":[],"stateMutability":"nonpayable"},{"type":"function","name":"resolverAI","inputs":[],"outputs":[{"name":"","type":"address","internalType":"address"}],"stateMutability":"view"},{"type":"function","name":"resolverFeeAI","inputs":[],"outputs":[{"name":"","type":"uint256","internalType":"uint256"}],"stateMutability":"view"},{"type":"function","name":"signatureUsed","inputs":[{"name":"","type":"bytes","internalType":"bytes"}],"outputs":[{"name":"","type":"bool","internalType":"bool"}],"stateMutability":"view"},{"type":"function","name":"signer","inputs":[],"outputs":[{"name":"","type":"address","internalType":"address"}],"stateMutability":"view"},{"type":"function","name":"submitProofAgain","inputs":[{"name":"escrowID","type":"uint256","internalType":"uint256"},{"name":"proofURI","type":"string","internalType":"string"}],"outputs":[],"stateMutability":"nonpayable"},{"type":"function","name":"swapandBurnContract","inputs":[],"outputs":[{"name":"","type":"address","internalType":"address"}],"stateMutability":"view"},{"type":"function","name":"tomiDisputeAddress","inputs":[],"outputs":[{"name":"","type":"address","internalType":"contract ITomiDispute"}],"stateMutability":"view"},{"type":"function","name":"transferOwnership","inputs":[{"name":"newOwner","type":"address","internalType":"address"}],"outputs":[],"stateMutability":"nonpayable"},{"type":"function","name":"updateFeeWallet","inputs":[{"name":"_feeWalletAddress","type":"address","internalType":"address"}],"outputs":[],"stateMutability":"nonpayable"},{"type":"function","name":"updateResolverAddress","inputs":[{"name":"_updatedResolverAddress","type":"address","internalType":"address"}],"outputs":[],"stateMutability":"nonpayable"},{"type":"function","name":"updateResolverFee","inputs":[{"name":"_updatedResolverFee","type":"uint256","internalType":"uint256"}],"outputs":[],"stateMutability":"nonpayable"},{"type":"function","name":"updateSwapAndBurnContract","inputs":[{"name":"_swapAndBurnAddress","type":"address","internalType":"address"}],"outputs":[],"stateMutability":"nonpayable"},{"type":"function","name":"updateTomiDisputeAddress","inputs":[{"name":"_updatedTomiDisputeAddress","type":"address","internalType":"address"}],"outputs":[],"stateMutability":"nonpayable"},{"type":"function","name":"upgradeToAndCall","inputs":[{"name":"newImplementation","type":"address","internalType":"address"},{"name":"data","type":"bytes","internalType":"bytes"}],"outputs":[],"stateMutability":"payable"},{"type":"function","name":"usdtToken","inputs":[],"outputs":[{"name":"","type":"address","internalType":"address"}],"stateMutability":"view"},{"type":"event","name":"AI_DisputeClaimed","inputs":[{"name":"escrowId","type":"uint256","indexed":false,"internalType":"uint256"},{"name":"escrowIdStatus","type":"uint8","indexed":false,"internalType":"enum EscrowPayment.EscrowStatus"}],"anonymous":false},{"type":"event","name":"DipsuteAICreated","inputs":[{"name":"escrowID","type":"uint256","indexed":false,"internalType":"uint256"},{"name":"disputerAddress","type":"address","indexed":false,"internalType":"address"}],"anonymous":false},{"type":"event","name":"DisputeOracleCreated","inputs":[{"name":"escrowID","type":"uint256","indexed":false,"internalType":"uint256"},{"name":"disputerAddress","type":"address","indexed":false,"internalType":"address"}],"anonymous":false},{"type":"event","name":"DisputeResolvedByAI","inputs":[{"name":"escrowID","type":"uint256","indexed":false,"internalType":"uint256"},{"name":"winnerAddress","type":"address","indexed":false,"internalType":"address"},{"name":"timeStamp","type":"uint256","indexed":false,"internalType":"uint256"}],"anonymous":false},{"type":"event","name":"DisputeResolvedByOracle","inputs":[{"name":"escrowID","type":"uint256","indexed":false,"internalType":"uint256"},{"name":"disputeContract","type":"address","indexed":false,"internalType":"address"},{"name":"winnerAddress","type":"address","indexed":false,"internalType":"address"},{"name":"timeStamp","type":"uint256","indexed":false,"internalType":"uint256"}],"anonymous":false},{"type":"event","name":"EscrowAccepted","inputs":[{"name":"escrowId","type":"uint256","indexed":false,"internalType":"uint256"},{"name":"escrowIdStatus","type":"uint8","indexed":false,"internalType":"enum EscrowPayment.EscrowStatus"}],"anonymous":false},{"type":"event","name":"EscrowCreated","inputs":[{"name":"escrowdetails","type":"tuple","indexed":false,"internalType":"struct EscrowPayment.Escrow","components":[{"name":"escrowDetialsURI","type":"string","internalType":"string"},{"name":"submissionURI","type":"string","internalType":"string"},{"name":"fromAddress","type":"address","internalType":"address"},{"name":"toAddress","type":"address","internalType":"address"},{"name":"tokenAddress","type":"address","internalType":"address"},{"name":"tokenAmount","type":"uint256","internalType":"uint256"},{"name":"feeinPPM","type":"uint256","internalType":"uint256"},{"name":"submissionDeadline","type":"uint256","internalType":"uint256"},{"name":"resultTime","type":"uint256","internalType":"uint256"},{"name":"status","type":"uint8","internalType":"enum EscrowPayment.EscrowStatus"},{"name":"disputeType","type":"uint8","internalType":"enum EscrowPayment.DisputeType"}]},{"name":"escrowFee","type":"uint256","indexed":false,"internalType":"uint256"}],"anonymous":false},{"type":"event","name":"EscrowDenied","inputs":[{"name":"escrowId","type":"uint256","indexed":false,"internalType":"uint256"},{"name":"escrowIdStatus","type":"uint8","indexed":false,"internalType":"enum EscrowPayment.EscrowStatus"}],"anonymous":false},{"type":"event","name":"EscrowRefunded","inputs":[{"name":"escrowId","type":"uint256","indexed":false,"internalType":"uint256"},{"name":"escrowIdStatus","type":"uint8","indexed":false,"internalType":"enum EscrowPayment.EscrowStatus"}],"anonymous":false},{"type":"event","name":"EscrowReleased","inputs":[{"name":"escrowId","type":"uint256","indexed":false,"internalType":"uint256"},{"name":"escrowIdStatus","type":"uint8","indexed":false,"internalType":"enum EscrowPayment.EscrowStatus"},{"name":"amountReleased","type":"uint256","indexed":false,"internalType":"uint256"},{"name":"feeForSwapandBurn","type":"uint256","indexed":false,"internalType":"uint256"}],"anonymous":false},{"type":"event","name":"EscrowSubmitted","inputs":[{"name":"escrowId","type":"uint256","indexed":false,"internalType":"uint256"},{"name":"escrowIdStatus","type":"uint8","indexed":false,"internalType":"enum EscrowPayment.EscrowStatus"}],"anonymous":false},{"type":"event","name":"Initialized","inputs":[{"name":"version","type":"uint64","indexed":false,"internalType":"uint64"}],"anonymous":false},{"type":"event","name":"OwnershipTransferred","inputs":[{"name":"previousOwner","type":"address","indexed":true,"internalType":"address"},{"name":"newOwner","type":"address","indexed":true,"internalType":"address"}],"anonymous":false},{"type":"event","name":"ProofSubmitted","inputs":[{"name":"escrowId","type":"uint256","indexed":false,"internalType":"uint256"},{"name":"disputeContract","type":"address","indexed":false,"internalType":"address"},{"name":"submittedBy","type":"address","indexed":false,"internalType":"address"},{"name":"proofURI","type":"string","indexed":false,"internalType":"string"}],"anonymous":false},{"type":"event","name":"Upgraded","inputs":[{"name":"implementation","type":"address","indexed":true,"internalType":"address"}],"anonymous":false},{"type":"error","name":"AddressEmptyCode","inputs":[{"name":"target","type":"address","internalType":"address"}]},{"type":"error","name":"AppealTimeNotPassedYet","inputs":[]},{"type":"error","name":"AppealWindowOver","inputs":[]},{"type":"error","name":"ECDSAInvalidSignature","inputs":[]},{"type":"error","name":"ECDSAInvalidSignatureLength","inputs":[{"name":"length","type":"uint256","internalType":"uint256"}]},{"type":"error","name":"ECDSAInvalidSignatureS","inputs":[{"name":"s","type":"bytes32","internalType":"bytes32"}]},{"type":"error","name":"ERC1967InvalidImplementation","inputs":[{"name":"implementation","type":"address","internalType":"address"}]},{"type":"error","name":"ERC1967NonPayable","inputs":[]},{"type":"error","name":"EscrowExpired","inputs":[]},{"type":"error","name":"EscrowNotExpiredYet","inputs":[]},{"type":"error","name":"FailedCall","inputs":[]},{"type":"error","name":"InDispute","inputs":[]},{"type":"error","name":"InsufficientAllowance","inputs":[]},{"type":"error","name":"InvalidDisputeType","inputs":[]},{"type":"error","name":"InvalidFee","inputs":[]},{"type":"error","name":"InvalidInitialization","inputs":[]},{"type":"error","name":"InvalidResponse","inputs":[]},{"type":"error","name":"InvalidSignature","inputs":[]},{"type":"error","name":"InvalidTime","inputs":[]},{"type":"error","name":"NotInDispute","inputs":[]},{"type":"error","name":"NotInitializing","inputs":[]},{"type":"error","name":"OnlyAcceptedOneAreAllowed","inputs":[]},{"type":"error","name":"OnlyCreatedOneAreAllowed","inputs":[]},{"type":"error","name":"OnlySubmittedOneAreAllowed","inputs":[]},{"type":"error","name":"OnlyUsdtAllowed","inputs":[]},{"type":"error","name":"OwnableInvalidOwner","inputs":[{"name":"owner","type":"address","internalType":"address"}]},{"type":"error","name":"OwnableUnauthorizedAccount","inputs":[{"name":"account","type":"address","internalType":"address"}]},{"type":"error","name":"RefundNotAllowed","inputs":[]},{"type":"error","name":"SafeERC20FailedOperation","inputs":[{"name":"token","type":"address","internalType":"address"}]},{"type":"error","name":"SameAsLastOne","inputs":[]},{"type":"error","name":"SignExpired","inputs":[]},{"type":"error","name":"SignatureUsed","inputs":[]},{"type":"error","name":"UUPSUnauthorizedCallContext","inputs":[]},{"type":"error","name":"UUPSUnsupportedProxiableUUID","inputs":[{"name":"slot","type":"bytes32","internalType":"bytes32"}]},{"type":"error","name":"WinnnerNotRevealedYet","inputs":[]},{"type":"error","name":"WinnnerRevealed","inputs":[]},{"type":"error","name":"YouAreNotAuthorized","inputs":[]},{"type":"error","name":"ZeroAddress","inputs":[]},{"type":"error","name":"ZeroAmount","inputs":[]}],"bytecode":{"object":"0x60a060405230608052348015610013575f5ffd5b5061001c610021565b6100d3565b7ff0c57e16840df040f15088dc2f81fe391c3923bec73e23a9662efc9c229c6a00805468010000000000000000900460ff16156100715760405163f92ee8a960e01b815260040160405180910390fd5b80546001600160401b03908116146100d05780546001600160401b0319166001600160401b0390811782556040519081527fc7f505b2f371ae2175ee4913f4499e1f2633a7b5936321eed1cdaeb6115181d29060200160405180910390a15b50565b60805161574b6100f95f395f818161410801528181614131015261434d015261574b5ff3fe6080604052600436106102cc575f3560e01c8063684858c71161017b578063ad3cb1cc116100d1578063dd1a17ee11610087578063f6f7510911610062578063f6f75109146108c0578063f8b7f363146108df578063ff0e2dc51461090b575f5ffd5b8063dd1a17ee14610856578063f25f4b5614610875578063f2fde38b146108a1575f5ffd5b8063bb10c829116100b7578063bb10c829146107e8578063c0741b0814610822578063cda54b1414610837575f5ffd5b8063ad3cb1cc14610774578063af07c7c7146107c9575f5ffd5b80638efa4d1c11610131578063a6a3d1991161010c578063a6a3d1991461070a578063a8b9bde414610729578063a98ad46c14610748575f5ffd5b80638efa4d1c146106c157806391098796146106e057806398a06cdc146106f5575f5ffd5b806383d4da021161016157806383d4da0214610637578063874c7ebb146106625780638da5cb5b14610678575f5ffd5b8063684858c714610604578063715018a614610623575f5ffd5b806333049246116102305780634f1ef286116101e65780635cec5548116101c15780635cec5548146105a757806362f9c01c146105c657806366718524146105e5575f5ffd5b80634f1ef2861461056b57806352d1902d1461057e5780635753d98914610592575f5ffd5b8063342b969511610216578063342b96951461050e5780633ac793f41461052d5780633ae8c3571461054c575f5ffd5b806333049246146104bb578063335beaa2146104f9575f5ffd5b8063238ac933116102855780632ca7f5091161026b5780632ca7f509146103f857806330f6472c1461041757806332b094fa1461048f575f5ffd5b8063238ac933146103885780632c50f88c146103d9575f5ffd5b8063059f8454116102b5578063059f8454146103305780630d720bbc14610353578063128e42fa14610369575f5ffd5b8063012f52ee146102d0578063021e6fa31461030f575b5f5ffd5b3480156102db575f5ffd5b506102ef6102ea366004614aa0565b61098c565b6040516103069b9a99989796959493929190614b54565b60405180910390f35b34801561031a575f5ffd5b5061032e610329366004614c7c565b610b10565b005b34801561033b575f5ffd5b5061034561138881565b604051908152602001610306565b34801561035e575f5ffd5b50610345620f424081565b348015610374575f5ffd5b5061032e610383366004614ce1565b610eea565b348015610393575f5ffd5b506005546103b49073ffffffffffffffffffffffffffffffffffffffff1681565b60405173ffffffffffffffffffffffffffffffffffffffff9091168152602001610306565b3480156103e4575f5ffd5b5061032e6103f3366004614cfc565b610fda565b348015610403575f5ffd5b5061032e610412366004614ce1565b611578565b348015610422575f5ffd5b50610480610431366004614aa0565b600c6020525f90815260409020805460019091015473ffffffffffffffffffffffffffffffffffffffff9182169181169074010000000000000000000000000000000000000000900460ff1683565b60405161030693929190614d4b565b34801561049a575f5ffd5b506002546103b49073ffffffffffffffffffffffffffffffffffffffff1681565b3480156104c6575f5ffd5b506104e96104d5366004614aa0565b600a6020525f908152604090205460ff1681565b6040519015158152602001610306565b348015610504575f5ffd5b5061034560075481565b348015610519575f5ffd5b5061032e610528366004614d8e565b611669565b348015610538575f5ffd5b5061032e610547366004614aa0565b611b58565b348015610557575f5ffd5b5061032e610566366004614dd6565b611dd2565b61032e610579366004614ed2565b6120e7565b348015610589575f5ffd5b50610345612106565b34801561059d575f5ffd5b5061034560065481565b3480156105b2575f5ffd5b5061032e6105c1366004614aa0565b612134565b3480156105d1575f5ffd5b5061032e6105e0366004614aa0565b61230f565b3480156105f0575f5ffd5b5061032e6105ff366004614ce1565b612678565b34801561060f575f5ffd5b5061032e61061e366004614ce1565b612769565b34801561062e575f5ffd5b5061032e612858565b348015610642575f5ffd5b505f546103b49073ffffffffffffffffffffffffffffffffffffffff1681565b34801561066d575f5ffd5b506103456203f48081565b348015610683575f5ffd5b507f9016d09d72d40fdae2fd8ceac6b6234c7706214fd39c1cd1e609a0528c1993005473ffffffffffffffffffffffffffffffffffffffff166103b4565b3480156106cc575f5ffd5b5061032e6106db366004614f1f565b61286b565b3480156106eb575f5ffd5b5061034561070881565b348015610700575f5ffd5b5061034561271081565b348015610715575f5ffd5b5061032e610724366004614dd6565b612b71565b348015610734575f5ffd5b5061032e610743366004614aa0565b613346565b348015610753575f5ffd5b506003546103b49073ffffffffffffffffffffffffffffffffffffffff1681565b34801561077f575f5ffd5b506107bc6040518060400160405280600581526020017f352e302e3000000000000000000000000000000000000000000000000000000081525081565b6040516103069190614fa8565b3480156107d4575f5ffd5b5061032e6107e3366004614fba565b6133c7565b3480156107f3575f5ffd5b506104e9610802366004614fe8565b805160208183018101805160088252928201919093012091525460ff1681565b34801561082d575f5ffd5b506103456109c481565b348015610842575f5ffd5b5061032e610851366004615022565b61354e565b348015610861575f5ffd5b5061032e610870366004614aa0565b613c1a565b348015610880575f5ffd5b506001546103b49073ffffffffffffffffffffffffffffffffffffffff1681565b3480156108ac575f5ffd5b5061032e6108bb366004614ce1565b613d33565b3480156108cb575f5ffd5b5061032e6108da366004614aa0565b613d9b565b3480156108ea575f5ffd5b506004546103b49073ffffffffffffffffffffffffffffffffffffffff1681565b348015610916575f5ffd5b5061095b610925366004614aa0565b600b6020525f908152604090208054600182015460029092015490919073ffffffffffffffffffffffffffffffffffffffff1683565b60408051938452602084019290925273ffffffffffffffffffffffffffffffffffffffff1690820152606001610306565b60096020525f90815260409020805481906109a6906150b3565b80601f01602080910402602001604051908101604052809291908181526020018280546109d2906150b3565b8015610a1d5780601f106109f457610100808354040283529160200191610a1d565b820191905f5260205f20905b815481529060010190602001808311610a0057829003601f168201915b505050505090806001018054610a32906150b3565b80601f0160208091040260200160405190810160405280929190818152602001828054610a5e906150b3565b8015610aa95780601f10610a8057610100808354040283529160200191610aa9565b820191905f5260205f20905b815481529060010190602001808311610a8c57829003601f168201915b505050506002830154600384015460048501546005860154600687015460078801546008890154600990990154979873ffffffffffffffffffffffffffffffffffffffff968716989587169750959093169491939092919060ff808216916101009004168b565b82421115610b4a576040517f82497d1a00000000000000000000000000000000000000000000000000000000815260040160405180910390fd5b60045473ffffffffffffffffffffffffffffffffffffffff163314610b9b576040517fc7e1fa0900000000000000000000000000000000000000000000000000000000815260040160405180910390fd5b60088282604051610bad929190615104565b9081526040519081900360200190205460ff1615610bf7576040517f0d75493300000000000000000000000000000000000000000000000000000000815260040160405180910390fd5b600160088383604051610c0b929190615104565b908152604080516020928190038301812080547fffffffffffffffffffffffffffffffffffffffffffffffffffffffffffffff0016941515949094179093556005549183018890527fffffffffffffffffffffffffffffffffffffffff000000000000000000000000606088811b8216928501929092523390911b16605483015260688201859052610cd19173ffffffffffffffffffffffffffffffffffffffff909116906088015b604051602081830303815290604052805190602001208484613eeb565b610d07576040517f8baa579f00000000000000000000000000000000000000000000000000000000815260040160405180910390fd5b5f858152600960209081526040808320600a9092529091205460ff161515600114801590610d4e57506006600982015460ff166008811115610d4b57610d4b614b03565b14155b15610d85576040517f49dfe70300000000000000000000000000000000000000000000000000000000815260040160405180910390fd5b600281015473ffffffffffffffffffffffffffffffffffffffff868116911614801590610dcf5750600381015473ffffffffffffffffffffffffffffffffffffffff868116911614155b15610e06576040517fc715138d00000000000000000000000000000000000000000000000000000000815260040160405180910390fd5b5f868152600b602090815260408083206002810180547fffffffffffffffffffffffff00000000000000000000000000000000000000001673ffffffffffffffffffffffffffffffffffffffff8b16908117909155426001830181905560098701805460077fffffffffffffffffffffffffffffffffffffffffffffffffffffffffffffff0091821617909155600a865295849020805490961690955582518b815293840152908201929092527fb37918f4f3a6a3e4fa48b01d23f6b8b1bae190b646d31c800763e13e1bb18f4d906060015b60405180910390a150505050505050565b610ef2613f90565b73ffffffffffffffffffffffffffffffffffffffff8116610f3f576040517fd92e233d00000000000000000000000000000000000000000000000000000000815260040160405180910390fd5b60025473ffffffffffffffffffffffffffffffffffffffff808316911603610f93576040517fdd5991bf00000000000000000000000000000000000000000000000000000000815260040160405180910390fd5b600280547fffffffffffffffffffffffff00000000000000000000000000000000000000001673ffffffffffffffffffffffffffffffffffffffff92909216919091179055565b82421115611014576040517f82497d1a00000000000000000000000000000000000000000000000000000000815260040160405180910390fd5b60088282604051611026929190615104565b9081526040519081900360200190205460ff1615611070576040517f0d75493300000000000000000000000000000000000000000000000000000000815260040160405180910390fd5b600160088383604051611084929190615104565b908152604080516020928190038301812080547fffffffffffffffffffffffffffffffffffffffffffffffffffffffffffffff0016941515949094179093556005549183018790527fffffffffffffffffffffffffffffffffffffffff0000000000000000000000003360601b1690830152605482018590526111229173ffffffffffffffffffffffffffffffffffffffff90911690607401610cb4565b611158576040517f8baa579f00000000000000000000000000000000000000000000000000000000815260040160405180910390fd5b5f848152600960205260409020600281015473ffffffffffffffffffffffffffffffffffffffff16331415806111a85750600381015473ffffffffffffffffffffffffffffffffffffffff163314155b156111df576040517fc7e1fa0900000000000000000000000000000000000000000000000000000000815260040160405180910390fd5b6008600982015460ff1660088111156111fa576111fa614b03565b14611231576040517f49dfe70300000000000000000000000000000000000000000000000000000000815260040160405180910390fd5b5f858152600c6020526040808220805482517f1973f028000000000000000000000000000000000000000000000000000000008152925191939273ffffffffffffffffffffffffffffffffffffffff90911691631973f028916004808201926060929091908290030181865afa9250505080156112e9575060408051601f3d9081017fffffffffffffffffffffffffffffffffffffffffffffffffffffffffffffffe01682019092526112e691810190615113565b60015b61131f576040517fd6c1175c00000000000000000000000000000000000000000000000000000000815260040160405180910390fd5b9250505073ffffffffffffffffffffffffffffffffffffffff8116611370576040517fd6c1175c00000000000000000000000000000000000000000000000000000000815260040160405180910390fd5b60018201805473ffffffffffffffffffffffffffffffffffffffff8381167fffffffffffffffffffffff000000000000000000000000000000000000000000909216821774010000000000000000000000000000000000000000179092556002850154909116900361143d576009830180547fffffffffffffffffffffffffffffffffffffffffffffffffffffffffffffff0016600590811790915583015460048401546114389173ffffffffffffffffffffffffffffffffffffffff90911690839061401e565b61151b565b600383015473ffffffffffffffffffffffffffffffffffffffff9081169082160361151b576009830180547fffffffffffffffffffffffffffffffffffffffffffffffffffffffffffffff00166003179055600683015460058401545f91620f4240916114aa9190615177565b6114b4919061518e565b60025460048601549192506114e39173ffffffffffffffffffffffffffffffffffffffff90811691168361401e565b611519828286600501546114f791906151c6565b600487015473ffffffffffffffffffffffffffffffffffffffff16919061401e565b505b81546040805189815273ffffffffffffffffffffffffffffffffffffffff9283166020820152918316908201524260608201527f3e8615c2f445043aada662bd9eb6e01a6be7146a0ac3745dff1085b3a1ee060d90608001610ed9565b611580613f90565b73ffffffffffffffffffffffffffffffffffffffff81166115cd576040517fd92e233d00000000000000000000000000000000000000000000000000000000815260040160405180910390fd5b60045473ffffffffffffffffffffffffffffffffffffffff90811690821603611622576040517fdd5991bf00000000000000000000000000000000000000000000000000000000815260040160405180910390fd5b600480547fffffffffffffffffffffffff00000000000000000000000000000000000000001673ffffffffffffffffffffffffffffffffffffffff92909216919091179055565b5f8381526009602052604080822081516101608101909252805482908290611690906150b3565b80601f01602080910402602001604051908101604052809291908181526020018280546116bc906150b3565b80156117075780601f106116de57610100808354040283529160200191611707565b820191905f5260205f20905b8154815290600101906020018083116116ea57829003601f168201915b50505050508152602001600182018054611720906150b3565b80601f016020809104026020016040519081016040528092919081815260200182805461174c906150b3565b80156117975780601f1061176e57610100808354040283529160200191611797565b820191905f5260205f20905b81548152906001019060200180831161177a57829003601f168201915b5050509183525050600282015473ffffffffffffffffffffffffffffffffffffffff9081166020830152600383015481166040830152600483015416606082015260058201546080820152600682015460a0820152600782015460c082015260088083015460e083015260098301546101009092019160ff169081111561182057611820614b03565b600881111561183157611831614b03565b81526020016009820160019054906101000a900460ff16600181111561185957611859614b03565b600181111561186a5761186a614b03565b905250604081015190915073ffffffffffffffffffffffffffffffffffffffff16331415806118b35750606081015173ffffffffffffffffffffffffffffffffffffffff163314155b156118ea576040517fc7e1fa0900000000000000000000000000000000000000000000000000000000815260040160405180910390fd5b6008816101200151600881111561190357611903614b03565b1461193a576040517f49dfe70300000000000000000000000000000000000000000000000000000000815260040160405180910390fd5b5f848152600c602090815260408083208151606081018352815473ffffffffffffffffffffffffffffffffffffffff908116825260018301549081169482019490945292909183019074010000000000000000000000000000000000000000900460ff1660028111156119af576119af614b03565b60028111156119c0576119c0614b03565b8152505090505f815f015173ffffffffffffffffffffffffffffffffffffffff16631973f0286040518163ffffffff1660e01b8152600401606060405180830381865afa158015611a13573d5f5f3e3d5ffd5b505050506040513d601f19601f82011682018060405250810190611a379190615113565b9250505073ffffffffffffffffffffffffffffffffffffffff811615611a89576040517fec642a9100000000000000000000000000000000000000000000000000000000815260040160405180910390fd5b81516040517fe25d50b400000000000000000000000000000000000000000000000000000000815273ffffffffffffffffffffffffffffffffffffffff9091169063e25d50b490611ae290339089908990600401615220565b5f604051808303815f87803b158015611af9575f5ffd5b505af1158015611b0b573d5f5f3e3d5ffd5b505083516040517f5eecb9ffeea0ca5bfc343c90bade18643b2a9b004243a0e542d963eaee8aa3509350611b48925089919033908a908a9061524f565b60405180910390a1505050505050565b5f818152600960205260409020600281015473ffffffffffffffffffffffffffffffffffffffff163314611bb8576040517fc7e1fa0900000000000000000000000000000000000000000000000000000000815260040160405180910390fd5b5f600982015460ff166008811115611bd257611bd2614b03565b14611d2a576001600982015460ff166008811115611bf257611bf2614b03565b03611c3a578060070154421015611c35576040517f244bf27000000000000000000000000000000000000000000000000000000000815260040160405180910390fd5b611d2a565b6008600982015460ff166008811115611c5557611c55614b03565b03611c8c576040517f0a30a94d00000000000000000000000000000000000000000000000000000000815260040160405180910390fd5b6004600982015460ff166008811115611ca757611ca7614b03565b03611cf857426203f4808260080154611cc091906152ab565b1115611c35576040517f0fef244b00000000000000000000000000000000000000000000000000000000815260040160405180910390fd5b6040517f089c998700000000000000000000000000000000000000000000000000000000815260040160405180910390fd5b6009810180547fffffffffffffffffffffffffffffffffffffffffffffffffffffffffffffff001660059081179091556002820154908201546004830154611d8d9273ffffffffffffffffffffffffffffffffffffffff9182169291169061401e565b60098101546040517f1bce42b66f8cc4fc6a3fd89937a5fa068eee02da60eabdaee04fe642ccd05edf91611dc691859160ff16906152be565b60405180910390a15050565b5f828152600960205260409020600381015473ffffffffffffffffffffffffffffffffffffffff163314611e32576040517fc7e1fa0900000000000000000000000000000000000000000000000000000000815260040160405180910390fd5b6002600982015460ff166008811115611e4d57611e4d614b03565b14158015611e7457506004600982015460ff166008811115611e7157611e71614b03565b14155b15611eab576040517fa448418400000000000000000000000000000000000000000000000000000000815260040160405180910390fd5b6003546040517fdd62ed3e000000000000000000000000000000000000000000000000000000008152336004820152306024820152839173ffffffffffffffffffffffffffffffffffffffff169063dd62ed3e90604401602060405180830381865afa158015611f1d573d5f5f3e3d5ffd5b505050506040513d601f19601f82011682018060405250810190611f4191906152d2565b1015611f79576040517f13be252b00000000000000000000000000000000000000000000000000000000815260040160405180910390fd5b600754821015611fb5576040517f58d620b300000000000000000000000000000000000000000000000000000000815260040160405180910390fd5b600454600354611fe19173ffffffffffffffffffffffffffffffffffffffff91821691339116856140a4565b5f838152600a60205260409020805460017fffffffffffffffffffffffffffffffffffffffffffffffffffffffffffffff00918216811790925560098301805460069391921690830217905550604080516060810182528481525f6020808301828152838501838152888452600b835292859020935184555160018401559051600290920180547fffffffffffffffffffffffff00000000000000000000000000000000000000001673ffffffffffffffffffffffffffffffffffffffff90931692909217909155815185815233918101919091527f36f34604e6e8b4015923e49ea5b13bf88360bc45d2bc624593f7c721c71c997f91015b60405180910390a1505050565b6120ef6140f0565b6120f8826141f4565b61210282826141fc565b5050565b5f61210f614335565b507f360894a13ba1a3210667c828492db98dca3e2076cc3735a920a3ca505d382bbc90565b5f818152600960205260409020600281015473ffffffffffffffffffffffffffffffffffffffff163314612194576040517fc7e1fa0900000000000000000000000000000000000000000000000000000000815260040160405180910390fd5b6002600982015460ff1660088111156121af576121af614b03565b146121e6576040517fa448418400000000000000000000000000000000000000000000000000000000815260040160405180910390fd5b6009810180547fffffffffffffffffffffffffffffffffffffffffffffffffffffffffffffff00166003179055426008820155600681015460058201545f91620f4240916122349190615177565b61223e919061518e565b600254600484015491925061226d9173ffffffffffffffffffffffffffffffffffffffff90811691168361401e565b600382015460058301546122bf9173ffffffffffffffffffffffffffffffffffffffff169061229d9084906151c6565b600485015473ffffffffffffffffffffffffffffffffffffffff16919061401e565b600982015460058301547fa03ba435daf8f0f487dd336d633b4849feca9bfc582732e1690833d3fa78cd2491859160ff909116906122fe9085906151c6565b846040516120da94939291906152e9565b5f818152600960205260409020600281015473ffffffffffffffffffffffffffffffffffffffff1633148015906123605750600381015473ffffffffffffffffffffffffffffffffffffffff163314155b15612397576040517fc7e1fa0900000000000000000000000000000000000000000000000000000000815260040160405180910390fd5b6007600982015460ff1660088111156123b2576123b2614b03565b146123e9576040517f49dfe70300000000000000000000000000000000000000000000000000000000815260040160405180910390fd5b5f828152600b6020908152604091829020825160608101845281548152600182015492810183905260029091015473ffffffffffffffffffffffffffffffffffffffff169281019290925261244190610708906152ab565b42101561247a576040517f0fef244b00000000000000000000000000000000000000000000000000000000815260040160405180910390fd5b604081015173ffffffffffffffffffffffffffffffffffffffff166124cb576040517fd6c1175c00000000000000000000000000000000000000000000000000000000815260040160405180910390fd5b6002820154604082015173ffffffffffffffffffffffffffffffffffffffff918216911603612559576009820180547fffffffffffffffffffffffffffffffffffffffffffffffffffffffffffffff0016600590811790915560408201519083015460048401546125549273ffffffffffffffffffffffffffffffffffffffff9091169161401e565b61263f565b6003820154604082015173ffffffffffffffffffffffffffffffffffffffff91821691160361263f576009820180547fffffffffffffffffffffffffffffffffffffffffffffffffffffffffffffff00166003179055600682015460058301545f91620f4240916125ca9190615177565b6125d4919061518e565b60025460048501549192506126039173ffffffffffffffffffffffffffffffffffffffff90811691168361401e565b61263d826040015182856005015461261b91906151c6565b600486015473ffffffffffffffffffffffffffffffffffffffff16919061401e565b505b60098201546040517ff99fa374979490944cafd02424ae4bed0ac02734aa88f62f4d3094cc55c7138a916120da91869160ff16906152be565b612680613f90565b73ffffffffffffffffffffffffffffffffffffffff81166126cd576040517fd92e233d00000000000000000000000000000000000000000000000000000000815260040160405180910390fd5b60015473ffffffffffffffffffffffffffffffffffffffff90811690821603612722576040517fdd5991bf00000000000000000000000000000000000000000000000000000000815260040160405180910390fd5b600180547fffffffffffffffffffffffff00000000000000000000000000000000000000001673ffffffffffffffffffffffffffffffffffffffff92909216919091179055565b612771613f90565b73ffffffffffffffffffffffffffffffffffffffff81166127be576040517fd92e233d00000000000000000000000000000000000000000000000000000000815260040160405180910390fd5b5f5473ffffffffffffffffffffffffffffffffffffffff90811690821603612812576040517fdd5991bf00000000000000000000000000000000000000000000000000000000815260040160405180910390fd5b5f80547fffffffffffffffffffffffff00000000000000000000000000000000000000001673ffffffffffffffffffffffffffffffffffffffff92909216919091179055565b612860613f90565b6128695f6143a4565b565b5f612874614439565b805490915060ff68010000000000000000820416159067ffffffffffffffff165f811580156128a05750825b90505f8267ffffffffffffffff1660011480156128bc5750303b155b9050811580156128ca575080155b15612901576040517ff92ee8a900000000000000000000000000000000000000000000000000000000815260040160405180910390fd5b84547fffffffffffffffffffffffffffffffffffffffffffffffff000000000000000016600117855583156129625784547fffffffffffffffffffffffffffffffffffffffffffffff00ffffffffffffffff16680100000000000000001785555b73ffffffffffffffffffffffffffffffffffffffff8c161580612999575073ffffffffffffffffffffffffffffffffffffffff8b16155b806129b8575073ffffffffffffffffffffffffffffffffffffffff8a16155b806129d7575073ffffffffffffffffffffffffffffffffffffffff8916155b806129f6575073ffffffffffffffffffffffffffffffffffffffff8816155b15612a2d576040517fd92e233d00000000000000000000000000000000000000000000000000000000815260040160405180910390fd5b855f03612a66576040517f1f2a200500000000000000000000000000000000000000000000000000000000815260040160405180910390fd5b612a6f33614463565b612a77614474565b600280547fffffffffffffffffffffffff000000000000000000000000000000000000000090811673ffffffffffffffffffffffffffffffffffffffff8e8116919091179092556001805482168f84161790555f805482168d84161790556003805482168c84161790556004805482168b84161790556007889055600580549091169189169190911790558315612b635784547fffffffffffffffffffffffffffffffffffffffffffffff00ffffffffffffffff168555604051600181527fc7f505b2f371ae2175ee4913f4499e1f2633a7b5936321eed1cdaeb6115181d29060200160405180910390a15b505050505050505050505050565b5f828152600960205260409020600281015473ffffffffffffffffffffffffffffffffffffffff163314801590612bc25750600381015473ffffffffffffffffffffffffffffffffffffffff163314155b15612bf9576040517fc7e1fa0900000000000000000000000000000000000000000000000000000000815260040160405180910390fd5b6002600982015460ff166008811115612c1457612c14614b03565b1480612c3857506004600982015460ff166008811115612c3657612c36614b03565b145b612dde576007600982015460ff166008811115612c5757612c57614b03565b03612dac575f838152600b6020908152604091829020825160608101845281548152600182015492810183905260029091015473ffffffffffffffffffffffffffffffffffffffff1692810192909252612cb490610708906152ab565b421115612ced576040517f748fbb0600000000000000000000000000000000000000000000000000000000815260040160405180910390fd5b600282015460408201515f9173ffffffffffffffffffffffffffffffffffffffff918216911614612d3857600283015473ffffffffffffffffffffffffffffffffffffffff16612d54565b600383015473ffffffffffffffffffffffffffffffffffffffff165b90503373ffffffffffffffffffffffffffffffffffffffff821614612da5576040517fc7e1fa0900000000000000000000000000000000000000000000000000000000815260040160405180910390fd5b5050612dde565b6040517fa448418400000000000000000000000000000000000000000000000000000000815260040160405180910390fd5b60016009820154610100900460ff166001811115612dfe57612dfe614b03565b148015612e0e57506317d7840082105b15612e45576040517f58d620b300000000000000000000000000000000000000000000000000000000815260040160405180910390fd5b5f6009820154610100900460ff166001811115612e6457612e64614b03565b148015612e73575062e4e1c082105b15612eaa576040517f58d620b300000000000000000000000000000000000000000000000000000000815260040160405180910390fd5b5f806009830154610100900460ff166001811115612eca57612eca614b03565b03612f0057620f42406113888360050154612ee59190615177565b612eef919061518e565b612ef990846152ab565b9050612f52565b60016009830154610100900460ff166001811115612f2057612f20614b03565b03612f5257620f42406109c48360050154612f3b9190615177565b612f45919061518e565b612f4f90846152ab565b90505b6003545f546040517fdd62ed3e00000000000000000000000000000000000000000000000000000000815233600482015273ffffffffffffffffffffffffffffffffffffffff91821660248201528392919091169063dd62ed3e90604401602060405180830381865afa158015612fcb573d5f5f3e3d5ffd5b505050506040513d601f19601f82011682018060405250810190612fef91906152d2565b1015613027576040517f13be252b00000000000000000000000000000000000000000000000000000000815260040160405180910390fd5b60038201545f9073ffffffffffffffffffffffffffffffffffffffff163303613109575f5460028401546003850154600586015473ffffffffffffffffffffffffffffffffffffffff9384169363a97e32db9381169288929116906001830190620f42406130976109c483615177565b6130a1919061518e565b6040518763ffffffff1660e01b81526004016130c2969594939291906153ac565b6020604051808303815f875af11580156130de573d5f5f3e3d5ffd5b505050506040513d601f19601f82011682018060405250810190613102919061541e565b90506131e5565b600283015473ffffffffffffffffffffffffffffffffffffffff1633036131e5575f5460038401546002850154600586015473ffffffffffffffffffffffffffffffffffffffff9384169363a97e32db9381169260018901929116908890620f42406131776109c483615177565b613181919061518e565b6040518763ffffffff1660e01b81526004016131a2969594939291906153ac565b6020604051808303815f875af11580156131be573d5f5f3e3d5ffd5b505050506040513d601f19601f820116820180604052508101906131e2919061541e565b90505b6040805160608101825273ffffffffffffffffffffffffffffffffffffffff831681525f6020820181905290918201525f868152600c60209081526040918290208351815473ffffffffffffffffffffffffffffffffffffffff9182167fffffffffffffffffffffffff0000000000000000000000000000000000000000918216178355928501516001830180549190921693811684178255938501519193919290917fffffffffffffffffffffff0000000000000000000000000000000000000000001617740100000000000000000000000000000000000000008360028111156132d3576132d3614b03565b021790555050506009830180547fffffffffffffffffffffffffffffffffffffffffffffffffffffffffffffff00166008179055604080518681523360208201527f9eebb460aaaebd5056d7d5275b538763f133d10c31c851fc4ca7f3172550f682910160405180910390a15050505050565b61334e613f90565b805f03613387576040517f1f2a200500000000000000000000000000000000000000000000000000000000815260040160405180910390fd5b60075481036133c2576040517fdd5991bf00000000000000000000000000000000000000000000000000000000815260040160405180910390fd5b600755565b5f828152600960205260409020600381015473ffffffffffffffffffffffffffffffffffffffff163314613427576040517fc7e1fa0900000000000000000000000000000000000000000000000000000000815260040160405180910390fd5b6001600982015460ff16600881111561344257613442614b03565b1415801561346957506002600982015460ff16600881111561346657613466614b03565b14155b156134a0576040517fb047b51700000000000000000000000000000000000000000000000000000000815260040160405180910390fd5b80600701544211156134de576040517f3c4fac2d00000000000000000000000000000000000000000000000000000000815260040160405180910390fd5b600181016134ec8382615484565b506009810180547fffffffffffffffffffffffffffffffffffffffffffffffffffffffffffffff001660029081179091556040517f4a52b7a90c0f06455590390d40301a63e3eeb740fb12f65b1a54cd5665235d09916120da918691906152be565b73ffffffffffffffffffffffffffffffffffffffff861661359b576040517fd92e233d00000000000000000000000000000000000000000000000000000000815260040160405180910390fd5b8315806135a6575082155b156135dd576040517f1f2a200500000000000000000000000000000000000000000000000000000000815260040160405180910390fd5b428211613616576040517f6f7eac2600000000000000000000000000000000000000000000000000000000815260040160405180910390fd5b5f81600181111561362957613629614b03565b141580156136495750600181600181111561364657613646614b03565b14155b15613680576040517f97cf712c00000000000000000000000000000000000000000000000000000000815260040160405180910390fd5b60035473ffffffffffffffffffffffffffffffffffffffff8681169116146136d4576040517f2d28e92b00000000000000000000000000000000000000000000000000000000815260040160405180910390fd5b60068054905f6136e38361559b565b919050555060405180610160016040528088815260200160405180602001604052805f81525081526020013373ffffffffffffffffffffffffffffffffffffffff1681526020018773ffffffffffffffffffffffffffffffffffffffff1681526020018673ffffffffffffffffffffffffffffffffffffffff1681526020018581526020018481526020018381526020015f81526020015f600881111561378c5761378c614b03565b81526020018260018111156137a3576137a3614b03565b90526006545f908152600960205260409020815181906137c39082615484565b50602082015160018201906137d89082615484565b50604082015160028201805473ffffffffffffffffffffffffffffffffffffffff9283167fffffffffffffffffffffffff0000000000000000000000000000000000000000918216179091556060840151600384018054918416918316919091179055608084015160048401805491909316911617905560a0820151600582015560c0820151600682015560e08201516007820155610100820151600880830191909155610120830151600983018054919290917fffffffffffffffffffffffffffffffffffffffffffffffffffffffffffffff00169060019084908111156138c3576138c3614b03565b02179055506101408201516009820180547fffffffffffffffffffffffffffffffffffffffffffffffffffffffffffff00ff1661010083600181111561390b5761390b614b03565b02179055509050505f60095f60065481526020019081526020015f20604051806101600160405290815f82018054613942906150b3565b80601f016020809104026020016040519081016040528092919081815260200182805461396e906150b3565b80156139b95780601f10613990576101008083540402835291602001916139b9565b820191905f5260205f20905b81548152906001019060200180831161399c57829003601f168201915b505050505081526020016001820180546139d2906150b3565b80601f01602080910402602001604051908101604052809291908181526020018280546139fe906150b3565b8015613a495780601f10613a2057610100808354040283529160200191613a49565b820191905f5260205f20905b815481529060010190602001808311613a2c57829003601f168201915b5050509183525050600282015473ffffffffffffffffffffffffffffffffffffffff9081166020830152600383015481166040830152600483015416606082015260058201546080820152600682015460a0820152600782015460c082015260088083015460e083015260098301546101009092019160ff1690811115613ad257613ad2614b03565b6008811115613ae357613ae3614b03565b81526020016009820160019054906101000a900460ff166001811115613b0b57613b0b614b03565b6001811115613b1c57613b1c614b03565b9052509050613b693330620f4240613b366127108a615177565b613b40919061518e565b613b4a90896152ab565b73ffffffffffffffffffffffffffffffffffffffff8a169291906140a4565b600154613bbe9073ffffffffffffffffffffffffffffffffffffffff16620f4240613b9661271089615177565b613ba0919061518e565b73ffffffffffffffffffffffffffffffffffffffff8916919061401e565b7f5973f61b9a8e5c40cafbe5a3c0a1ea6b5f554c156abca8606c4aa58108cb05f981620f4240613bf061271089615177565b613bfa919061518e565b604051613c089291906155d2565b60405180910390a15050505050505050565b5f818152600960205260409020600281015473ffffffffffffffffffffffffffffffffffffffff163314613c7a576040517fc7e1fa0900000000000000000000000000000000000000000000000000000000815260040160405180910390fd5b6002600982015460ff166008811115613c9557613c95614b03565b14613ccc576040517fa448418400000000000000000000000000000000000000000000000000000000815260040160405180910390fd5b6009810180547fffffffffffffffffffffffffffffffffffffffffffffffffffffffffffffff001660049081179091554260088301556040517fadbbfcc607ca29567798c8ca6290a0134f10f6efd1a94600c60e88016861e8f491611dc6918591906152be565b613d3b613f90565b73ffffffffffffffffffffffffffffffffffffffff8116613d8f576040517f1e4fbdf70000000000000000000000000000000000000000000000000000000081525f60048201526024015b60405180910390fd5b613d98816143a4565b50565b5f818152600960205260409020600381015473ffffffffffffffffffffffffffffffffffffffff163314613dfb576040517fc7e1fa0900000000000000000000000000000000000000000000000000000000815260040160405180910390fd5b5f600982015460ff166008811115613e1557613e15614b03565b14613e4c576040517f340eba5300000000000000000000000000000000000000000000000000000000815260040160405180910390fd5b4281600701541015613e8a576040517f3c4fac2d00000000000000000000000000000000000000000000000000000000815260040160405180910390fd5b6009810180547fffffffffffffffffffffffffffffffffffffffffffffffffffffffffffffff001660019081179091556040517f2e7e3f2a85e019a371c7c29675cbe0e33b4d1ff733f45c46eeb3e02083bab73c91611dc6918591906152be565b7f19457468657265756d205369676e6564204d6573736167653a0a3332000000005f908152601c849052603c81208573ffffffffffffffffffffffffffffffffffffffff16613f6f8286868080601f0160208091040260200160405190810160405280939291908181526020018383808284375f9201919091525061447c92505050565b73ffffffffffffffffffffffffffffffffffffffff16149695505050505050565b33613fcf7f9016d09d72d40fdae2fd8ceac6b6234c7706214fd39c1cd1e609a0528c1993005473ffffffffffffffffffffffffffffffffffffffff1690565b73ffffffffffffffffffffffffffffffffffffffff1614612869576040517f118cdaa7000000000000000000000000000000000000000000000000000000008152336004820152602401613d86565b60405173ffffffffffffffffffffffffffffffffffffffff83811660248301526044820183905261409f91859182169063a9059cbb906064015b604051602081830303815290604052915060e01b6020820180517bffffffffffffffffffffffffffffffffffffffffffffffffffffffff83818316178352505050506144a4565b505050565b60405173ffffffffffffffffffffffffffffffffffffffff84811660248301528381166044830152606482018390526140ea9186918216906323b872dd90608401614058565b50505050565b3073ffffffffffffffffffffffffffffffffffffffff7f00000000000000000000000000000000000000000000000000000000000000001614806141bd57507f000000000000000000000000000000000000000000000000000000000000000073ffffffffffffffffffffffffffffffffffffffff166141a47f360894a13ba1a3210667c828492db98dca3e2076cc3735a920a3ca505d382bbc5473ffffffffffffffffffffffffffffffffffffffff1690565b73ffffffffffffffffffffffffffffffffffffffff1614155b15612869576040517fe07c8dba00000000000000000000000000000000000000000000000000000000815260040160405180910390fd5b613d98613f90565b8173ffffffffffffffffffffffffffffffffffffffff166352d1902d6040518163ffffffff1660e01b8152600401602060405180830381865afa925050508015614281575060408051601f3d9081017fffffffffffffffffffffffffffffffffffffffffffffffffffffffffffffffe016820190925261427e918101906152d2565b60015b6142cf576040517f4c9c8ce300000000000000000000000000000000000000000000000000000000815273ffffffffffffffffffffffffffffffffffffffff83166004820152602401613d86565b7f360894a13ba1a3210667c828492db98dca3e2076cc3735a920a3ca505d382bbc811461432b576040517faa1d49a400000000000000000000000000000000000000000000000000000000815260048101829052602401613d86565b61409f8383614543565b3073ffffffffffffffffffffffffffffffffffffffff7f00000000000000000000000000000000000000000000000000000000000000001614612869576040517fe07c8dba00000000000000000000000000000000000000000000000000000000815260040160405180910390fd5b7f9016d09d72d40fdae2fd8ceac6b6234c7706214fd39c1cd1e609a0528c19930080547fffffffffffffffffffffffff0000000000000000000000000000000000000000811673ffffffffffffffffffffffffffffffffffffffff848116918217845560405192169182907f8be0079c531659141344cd1fd0a4f28419497f9722a3daafe3b4186f6b6457e0905f90a3505050565b5f807ff0c57e16840df040f15088dc2f81fe391c3923bec73e23a9662efc9c229c6a005b92915050565b61446b6145a5565b613d98816145e3565b6128696145a5565b5f5f5f5f61448a86866145eb565b92509250925061449a8282614634565b5090949350505050565b5f5f60205f8451602086015f885af1806144c3576040513d5f823e3d81fd5b50505f513d915081156144da5780600114156144f4565b73ffffffffffffffffffffffffffffffffffffffff84163b155b156140ea576040517f5274afe700000000000000000000000000000000000000000000000000000000815273ffffffffffffffffffffffffffffffffffffffff85166004820152602401613d86565b61454c82614737565b60405173ffffffffffffffffffffffffffffffffffffffff8316907fbc7cd75a20ee27fd9adebab32041f755214dbc6bffa90cc0225b39da2e5c2d3b905f90a280511561459d5761409f8282614805565b612102614884565b6145ad6148bc565b612869576040517fd7e6bcf800000000000000000000000000000000000000000000000000000000815260040160405180910390fd5b613d3b6145a5565b5f5f5f8351604103614622576020840151604085015160608601515f1a614614888285856148da565b95509550955050505061462d565b505081515f91506002905b9250925092565b5f82600381111561464757614647614b03565b03614650575050565b600182600381111561466457614664614b03565b0361469b576040517ff645eedf00000000000000000000000000000000000000000000000000000000815260040160405180910390fd5b60028260038111156146af576146af614b03565b036146e9576040517ffce698f700000000000000000000000000000000000000000000000000000000815260048101829052602401613d86565b60038260038111156146fd576146fd614b03565b03612102576040517fd78bce0c00000000000000000000000000000000000000000000000000000000815260048101829052602401613d86565b8073ffffffffffffffffffffffffffffffffffffffff163b5f0361479f576040517f4c9c8ce300000000000000000000000000000000000000000000000000000000815273ffffffffffffffffffffffffffffffffffffffff82166004820152602401613d86565b7f360894a13ba1a3210667c828492db98dca3e2076cc3735a920a3ca505d382bbc80547fffffffffffffffffffffffff00000000000000000000000000000000000000001673ffffffffffffffffffffffffffffffffffffffff92909216919091179055565b60605f5f8473ffffffffffffffffffffffffffffffffffffffff168460405161482e91906156ff565b5f60405180830381855af49150503d805f8114614866576040519150601f19603f3d011682016040523d82523d5f602084013e61486b565b606091505b509150915061487b8583836149cd565b95945050505050565b3415612869576040517fb398979f00000000000000000000000000000000000000000000000000000000815260040160405180910390fd5b5f6148c5614439565b5468010000000000000000900460ff16919050565b5f80807f7fffffffffffffffffffffffffffffff5d576e7357a4501ddfe92f46681b20a084111561491357505f915060039050826149c3565b604080515f808252602082018084528a905260ff891692820192909252606081018790526080810186905260019060a0016020604051602081039080840390855afa158015614964573d5f5f3e3d5ffd5b50506040517fffffffffffffffffffffffffffffffffffffffffffffffffffffffffffffffe0015191505073ffffffffffffffffffffffffffffffffffffffff81166149ba57505f9250600191508290506149c3565b92505f91508190505b9450945094915050565b6060826149e2576149dd82614a5f565b614a58565b8151158015614a06575073ffffffffffffffffffffffffffffffffffffffff84163b155b15614a55576040517f9996b31500000000000000000000000000000000000000000000000000000000815273ffffffffffffffffffffffffffffffffffffffff85166004820152602401613d86565b50805b9392505050565b805115614a6e57805160208201fd5b6040517fd6bda27500000000000000000000000000000000000000000000000000000000815260040160405180910390fd5b5f60208284031215614ab0575f5ffd5b5035919050565b5f81518084528060208401602086015e5f6020828601015260207fffffffffffffffffffffffffffffffffffffffffffffffffffffffffffffffe0601f83011685010191505092915050565b7f4e487b71000000000000000000000000000000000000000000000000000000005f52602160045260245ffd5b60098110614b4057614b40614b03565b9052565b60028110614b4057614b40614b03565b61016081525f614b6861016083018e614ab7565b8281036020840152614b7a818e614ab7565b91505073ffffffffffffffffffffffffffffffffffffffff8b16604083015273ffffffffffffffffffffffffffffffffffffffff8a16606083015273ffffffffffffffffffffffffffffffffffffffff891660808301528760a08301528660c08301528560e083015284610100830152614bf8610120830185614b30565b614c06610140830184614b44565b9c9b505050505050505050505050565b73ffffffffffffffffffffffffffffffffffffffff81168114613d98575f5ffd5b5f5f83601f840112614c47575f5ffd5b50813567ffffffffffffffff811115614c5e575f5ffd5b602083019150836020828501011115614c75575f5ffd5b9250929050565b5f5f5f5f5f60808688031215614c90575f5ffd5b853594506020860135614ca281614c16565b935060408601359250606086013567ffffffffffffffff811115614cc4575f5ffd5b614cd088828901614c37565b969995985093965092949392505050565b5f60208284031215614cf1575f5ffd5b8135614a5881614c16565b5f5f5f5f60608587031215614d0f575f5ffd5b8435935060208501359250604085013567ffffffffffffffff811115614d33575f5ffd5b614d3f87828801614c37565b95989497509550505050565b73ffffffffffffffffffffffffffffffffffffffff8481168252831660208201526060810160038310614d8057614d80614b03565b826040830152949350505050565b5f5f5f60408486031215614da0575f5ffd5b83359250602084013567ffffffffffffffff811115614dbd575f5ffd5b614dc986828701614c37565b9497909650939450505050565b5f5f60408385031215614de7575f5ffd5b50508035926020909101359150565b7f4e487b71000000000000000000000000000000000000000000000000000000005f52604160045260245ffd5b5f82601f830112614e32575f5ffd5b8135602083015f5f67ffffffffffffffff841115614e5257614e52614df6565b506040517fffffffffffffffffffffffffffffffffffffffffffffffffffffffffffffffe0601f85018116603f0116810181811067ffffffffffffffff82111715614e9f57614e9f614df6565b604052838152905080828401871015614eb6575f5ffd5b838360208301375f602085830101528094505050505092915050565b5f5f60408385031215614ee3575f5ffd5b8235614eee81614c16565b9150602083013567ffffffffffffffff811115614f09575f5ffd5b614f1585828601614e23565b9150509250929050565b5f5f5f5f5f5f5f60e0888a031215614f35575f5ffd5b8735614f4081614c16565b96506020880135614f5081614c16565b95506040880135614f6081614c16565b94506060880135614f7081614c16565b93506080880135614f8081614c16565b925060a0880135614f9081614c16565b96999598509396929591949193505060c09091013590565b602081525f614a586020830184614ab7565b5f5f60408385031215614fcb575f5ffd5b82359150602083013567ffffffffffffffff811115614f09575f5ffd5b5f60208284031215614ff8575f5ffd5b813567ffffffffffffffff81111561500e575f5ffd5b61501a84828501614e23565b949350505050565b5f5f5f5f5f5f5f60e0888a031215615038575f5ffd5b873567ffffffffffffffff81111561504e575f5ffd5b61505a8a828b01614e23565b975050602088013561506b81614c16565b9550604088013561507b81614c16565b9450606088013593506080880135925060a0880135915060c0880135600281106150a3575f5ffd5b8091505092959891949750929550565b600181811c908216806150c757607f821691505b6020821081036150fe577f4e487b71000000000000000000000000000000000000000000000000000000005f52602260045260245ffd5b50919050565b818382375f9101908152919050565b5f5f5f60608486031215615125575f5ffd5b835160208501516040860151919450925061513f81614c16565b809150509250925092565b7f4e487b71000000000000000000000000000000000000000000000000000000005f52601160045260245ffd5b808202811582820484141761445d5761445d61514a565b5f826151c1577f4e487b71000000000000000000000000000000000000000000000000000000005f52601260045260245ffd5b500490565b8181038181111561445d5761445d61514a565b81835281816020850137505f602082840101525f60207fffffffffffffffffffffffffffffffffffffffffffffffffffffffffffffffe0601f840116840101905092915050565b73ffffffffffffffffffffffffffffffffffffffff84168152604060208201525f61487b6040830184866151d9565b85815273ffffffffffffffffffffffffffffffffffffffff8516602082015273ffffffffffffffffffffffffffffffffffffffff84166040820152608060608201525f6152a06080830184866151d9565b979650505050505050565b8082018082111561445d5761445d61514a565b82815260408101614a586020830184614b30565b5f602082840312156152e2575f5ffd5b5051919050565b848152608081016152fd6020830186614b30565b60408201939093526060015292915050565b5f815461531b816150b3565b808552600182168015615335576001811461536f576153a3565b7fffffffffffffffffffffffffffffffffffffffffffffffffffffffffffffff0083166020870152602082151560051b87010193506153a3565b845f5260205f205f5b8381101561539a5781546020828a010152600182019150602081019050615378565b87016020019450505b50505092915050565b73ffffffffffffffffffffffffffffffffffffffff8716815260c060208201525f6153da60c083018861530f565b73ffffffffffffffffffffffffffffffffffffffff871660408401528281036060840152615408818761530f565b6080840195909552505060a00152949350505050565b5f6020828403121561542e575f5ffd5b8151614a5881614c16565b601f82111561409f57805f5260205f20601f840160051c8101602085101561545e5750805b601f840160051c820191505b8181101561547d575f815560010161546a565b5050505050565b815167ffffffffffffffff81111561549e5761549e614df6565b6154b2816154ac84546150b3565b84615439565b6020601f821160018114615503575f83156154cd5750848201515b7fffffffffffffffffffffffffffffffffffffffffffffffffffffffffffffffff600385901b1c1916600184901b17845561547d565b5f848152602081207fffffffffffffffffffffffffffffffffffffffffffffffffffffffffffffffe08516915b828110156155505787850151825560209485019460019092019101615530565b508482101561558c57868401517fffffffffffffffffffffffffffffffffffffffffffffffffffffffffffffffff600387901b60f8161c191681555b50505050600190811b01905550565b5f7fffffffffffffffffffffffffffffffffffffffffffffffffffffffffffffffff82036155cb576155cb61514a565b5060010190565b604081525f835161016060408401526155ef6101a0840182614ab7565b905060208501517fffffffffffffffffffffffffffffffffffffffffffffffffffffffffffffffc084830301606085015261562a8282614ab7565b9150506040850151615654608085018273ffffffffffffffffffffffffffffffffffffffff169052565b50606085015173ffffffffffffffffffffffffffffffffffffffff811660a085015250608085015173ffffffffffffffffffffffffffffffffffffffff811660c08501525060a085015160e084015260c085015161010084015260e08501516101208401526101008501516101408401526101208501516156d9610160850182614b30565b506101408501516156ee610180850182614b44565b506020929092019290925292915050565b5f82518060208501845e5f92019182525091905056fea2646970667358221220045dbb62312ca278f48f7bbd95de8e834ce3221e1af1fa7e63fc0f7c7ce6523d64736f6c634300081d0033","linkReferences":{}},"methodIdentifiers":{"APPEAL_TIME_DISPUTE_AI()":"91098796","AcceptEscrow(uint256)":"f6f75109","CreateDispute(uint256,uint256)":"a6a3d199","CreateEscrow(string,address,address,uint256,uint256,uint256,uint8)":"cda54b14","DENIED_REFUND_TIME()":"874c7ebb","DenyEscrow(uint256)":"dd1a17ee","Initialize(address,address,address,address,address,address,uint256)":"8efa4d1c","PPM()":"0d720bbc","RefundEscrow(uint256)":"3ac793f4","ReleaseEscrow(uint256)":"5cec5548","SubmitEscrow(uint256,string)":"af07c7c7","UPGRADE_INTERFACE_VERSION()":"ad3cb1cc","claimAIDispute(uint256)":"62f9c01c","createAIDispute(uint256,uint256)":"3ae8c357","escrowIDtoAIDispute(uint256)":"33049246","escrowId()":"5753d989","escrowPlatformFee()":"98a06cdc","escrows(uint256)":"012f52ee","escrowtoDisputeAI(uint256)":"ff0e2dc5","escrowtoDisputeOracle(uint256)":"30f6472c","feeWallet()":"f25f4b56","miniDisputeDealSizeFee()":"059f8454","owner()":"8da5cb5b","proxiableUUID()":"52d1902d","regularDisputeDealSizeFee()":"c0741b08","renounceOwnership()":"715018a6","resolveDisputeOracle(uint256,uint256,bytes)":"2c50f88c","resolveViaAI(uint256,address,uint256,bytes)":"021e6fa3","resolverAI()":"f8b7f363","resolverFeeAI()":"335beaa2","signatureUsed(bytes)":"bb10c829","signer()":"238ac933","submitProofAgain(uint256,string)":"342b9695","swapandBurnContract()":"32b094fa","tomiDisputeAddress()":"83d4da02","transferOwnership(address)":"f2fde38b","updateFeeWallet(address)":"66718524","updateResolverAddress(address)":"2ca7f509","updateResolverFee(uint256)":"a8b9bde4","updateSwapAndBurnContract(address)":"128e42fa","updateTomiDisputeAddress(address)":"684858c7","upgradeToAndCall(address,bytes)":"4f1ef286","usdtToken()":"a98ad46c"},"id":45}