{"abi":[{"type":"constructor","inputs":[],"stateMutability":"nonpayable"},{"type":"function","name":"UPGRADE_INTERFACE_VERSION","inputs":[],"outputs":[{"name":"","type":"string","internalType":"string"}],"stateMutability":"view"},{"type":"function","name":"initialize","inputs":[],"outputs":[],"stateMutability":"nonpayable"},{"type":"function","name":"owner","inputs":[],"outputs":[{"name":"","type":"address","internalType":"address"}],"stateMutability":"view"},{"type":"function","name":"proxiableUUID","inputs":[],"outputs":[{"name":"","type":"bytes32","internalType":"bytes32"}],"stateMutability":"view"},{"type":"function","name":"renounceOwnership","inputs":[],"outputs":[],"stateMutability":"nonpayable"},{"type":"function","name":"transferOwnership","inputs":[{"name":"newOwner","type":"address","internalType":"address"}],"outputs":[],"stateMutability":"nonpayable"},{"type":"function","name":"upgradeToAndCall","inputs":[{"name":"newImplementation","type":"address","internalType":"address"},{"name":"data","type":"bytes","internalType":"bytes"}],"outputs":[],"stateMutability":"payable"},{"type":"event","name":"Initialized","inputs":[{"name":"version","type":"uint64","indexed":false,"internalType":"uint64"}],"anonymous":false},{"type":"event","name":"OwnershipTransferred","inputs":[{"name":"previousOwner","type":"address","indexed":true,"internalType":"address"},{"name":"newOwner","type":"address","indexed":true,"internalType":"address"}],"anonymous":false},{"type":"event","name":"Upgraded","inputs":[{"name":"implementation","type":"address","indexed":true,"internalType":"address"}],"anonymous":false},{"type":"error","name":"AddressEmptyCode","inputs":[{"name":"target","type":"address","internalType":"address"}]},{"type":"error","name":"ERC1967InvalidImplementation","inputs":[{"name":"implementation","type":"address","internalType":"address"}]},{"type":"error","name":"ERC1967NonPayable","inputs":[]},{"type":"error","name":"FailedCall","inputs":[]},{"type":"error","name":"InvalidInitialization","inputs":[]},{"type":"error","name":"NotInitializing","inputs":[]},{"type":"error","name":"OwnableInvalidOwner","inputs":[{"name":"owner","type":"address","internalType":"address"}]},{"type":"error","name":"OwnableUnauthorizedAccount","inputs":[{"name":"account","type":"address","internalType":"address"}]},{"type":"error","name":"UUPSUnauthorizedCallContext","inputs":[]},{"type":"error","name":"UUPSUnsupportedProxiableUUID","inputs":[{"name":"slot","type":"bytes32","internalType":"bytes32"}]}],"bytecode":{"object":"0x60a06040523073ffffffffffffffffffffffffffffffffffffffff1660809073ffffffffffffffffffffffffffffffffffffffff16815250348015610042575f5ffd5b5061005161005660201b60201c565b6101d1565b5f61006561015460201b60201c565b9050805f0160089054906101000a900460ff16156100af576040517ff92ee8a900000000000000000000000000000000000000000000000000000000815260040160405180910390fd5b67ffffffffffffffff8016815f015f9054906101000a900467ffffffffffffffff1667ffffffffffffffff16146101515767ffffffffffffffff815f015f6101000a81548167ffffffffffffffff021916908367ffffffffffffffff1602179055507fc7f505b2f371ae2175ee4913f4499e1f2633a7b5936321eed1cdaeb6115181d267ffffffffffffffff60405161014891906101b8565b60405180910390a15b50565b5f5f61016461016d60201b60201c565b90508091505090565b5f7ff0c57e16840df040f15088dc2f81fe391c3923bec73e23a9662efc9c229c6a005f1b905090565b5f67ffffffffffffffff82169050919050565b6101b281610196565b82525050565b5f6020820190506101cb5f8301846101a9565b92915050565b6080516110006101f75f395f818161042f01528181610484015261063e01526110005ff3fe60806040526004361061006f575f3560e01c80638129fc1c1161004d5780638129fc1c146100cf5780638da5cb5b146100e5578063ad3cb1cc1461010f578063f2fde38b146101395761006f565b80634f1ef2861461007357806352d1902d1461008f578063715018a6146100b9575b5f5ffd5b61008d60048036038101906100889190610d4f565b610161565b005b34801561009a575f5ffd5b506100a3610180565b6040516100b09190610dc1565b60405180910390f35b3480156100c4575f5ffd5b506100cd6101b1565b005b3480156100da575f5ffd5b506100e36101c4565b005b3480156100f0575f5ffd5b506100f961033b565b6040516101069190610de9565b60405180910390f35b34801561011a575f5ffd5b50610123610370565b6040516101309190610e62565b60405180910390f35b348015610144575f5ffd5b5061015f600480360381019061015a9190610e82565b6103a9565b005b61016961042d565b61017282610513565b61017c828261051e565b5050565b5f61018961063c565b7f360894a13ba1a3210667c828492db98dca3e2076cc3735a920a3ca505d382bbc5f1b905090565b6101b96106c3565b6101c25f61074a565b565b5f6101cd61081b565b90505f815f0160089054906101000a900460ff161590505f825f015f9054906101000a900467ffffffffffffffff1690505f5f8267ffffffffffffffff161480156102155750825b90505f60018367ffffffffffffffff1614801561024857505f3073ffffffffffffffffffffffffffffffffffffffff163b145b905081158015610256575080155b1561028d576040517ff92ee8a900000000000000000000000000000000000000000000000000000000815260040160405180910390fd5b6001855f015f6101000a81548167ffffffffffffffff021916908367ffffffffffffffff16021790555083156102da576001855f0160086101000a81548160ff0219169083151502179055505b8315610334575f855f0160086101000a81548160ff0219169083151502179055507fc7f505b2f371ae2175ee4913f4499e1f2633a7b5936321eed1cdaeb6115181d2600160405161032b9190610f02565b60405180910390a15b5050505050565b5f5f61034561082e565b9050805f015f9054906101000a900473ffffffffffffffffffffffffffffffffffffffff1691505090565b6040518060400160405280600581526020017f352e302e3000000000000000000000000000000000000000000000000000000081525081565b6103b16106c3565b5f73ffffffffffffffffffffffffffffffffffffffff168173ffffffffffffffffffffffffffffffffffffffff1603610421575f6040517f1e4fbdf70000000000000000000000000000000000000000000000000000000081526004016104189190610de9565b60405180910390fd5b61042a8161074a565b50565b7f000000000000000000000000000000000000000000000000000000000000000073ffffffffffffffffffffffffffffffffffffffff163073ffffffffffffffffffffffffffffffffffffffff1614806104da57507f000000000000000000000000000000000000000000000000000000000000000073ffffffffffffffffffffffffffffffffffffffff166104c1610855565b73ffffffffffffffffffffffffffffffffffffffff1614155b15610511576040517fe07c8dba00000000000000000000000000000000000000000000000000000000815260040160405180910390fd5b565b61051b6106c3565b50565b8173ffffffffffffffffffffffffffffffffffffffff166352d1902d6040518163ffffffff1660e01b8152600401602060405180830381865afa92505050801561058657506040513d601f19601f820116820180604052508101906105839190610f45565b60015b6105c757816040517f4c9c8ce30000000000000000000000000000000000000000000000000000000081526004016105be9190610de9565b60405180910390fd5b7f360894a13ba1a3210667c828492db98dca3e2076cc3735a920a3ca505d382bbc5f1b811461062d57806040517faa1d49a40000000000000000000000000000000000000000000000000000000081526004016106249190610dc1565b60405180910390fd5b61063783836108a8565b505050565b7f000000000000000000000000000000000000000000000000000000000000000073ffffffffffffffffffffffffffffffffffffffff163073ffffffffffffffffffffffffffffffffffffffff16146106c1576040517fe07c8dba00000000000000000000000000000000000000000000000000000000815260040160405180910390fd5b565b6106cb61091a565b73ffffffffffffffffffffffffffffffffffffffff166106e961033b565b73ffffffffffffffffffffffffffffffffffffffff16146107485761070c61091a565b6040517f118cdaa700000000000000000000000000000000000000000000000000000000815260040161073f9190610de9565b60405180910390fd5b565b5f61075361082e565b90505f815f015f9054906101000a900473ffffffffffffffffffffffffffffffffffffffff16905082825f015f6101000a81548173ffffffffffffffffffffffffffffffffffffffff021916908373ffffffffffffffffffffffffffffffffffffffff1602179055508273ffffffffffffffffffffffffffffffffffffffff168173ffffffffffffffffffffffffffffffffffffffff167f8be0079c531659141344cd1fd0a4f28419497f9722a3daafe3b4186f6b6457e060405160405180910390a3505050565b5f5f610825610921565b90508091505090565b5f7f9016d09d72d40fdae2fd8ceac6b6234c7706214fd39c1cd1e609a0528c199300905090565b5f6108817f360894a13ba1a3210667c828492db98dca3e2076cc3735a920a3ca505d382bbc5f1b61094a565b5f015f9054906101000a900473ffffffffffffffffffffffffffffffffffffffff16905090565b6108b182610953565b8173ffffffffffffffffffffffffffffffffffffffff167fbc7cd75a20ee27fd9adebab32041f755214dbc6bffa90cc0225b39da2e5c2d3b60405160405180910390a25f8151111561090d576109078282610a1c565b50610916565b610915610a9c565b5b5050565b5f33905090565b5f7ff0c57e16840df040f15088dc2f81fe391c3923bec73e23a9662efc9c229c6a005f1b905090565b5f819050919050565b5f8173ffffffffffffffffffffffffffffffffffffffff163b036109ae57806040517f4c9c8ce30000000000000000000000000000000000000000000000000000000081526004016109a59190610de9565b60405180910390fd5b806109da7f360894a13ba1a3210667c828492db98dca3e2076cc3735a920a3ca505d382bbc5f1b61094a565b5f015f6101000a81548173ffffffffffffffffffffffffffffffffffffffff021916908373ffffffffffffffffffffffffffffffffffffffff16021790555050565b60605f5f8473ffffffffffffffffffffffffffffffffffffffff1684604051610a459190610fb4565b5f60405180830381855af49150503d805f8114610a7d576040519150601f19603f3d011682016040523d82523d5f602084013e610a82565b606091505b5091509150610a92858383610ad8565b9250505092915050565b5f341115610ad6576040517fb398979f00000000000000000000000000000000000000000000000000000000815260040160405180910390fd5b565b606082610aed57610ae882610b65565b610b5d565b5f8251148015610b1357505f8473ffffffffffffffffffffffffffffffffffffffff163b145b15610b5557836040517f9996b315000000000000000000000000000000000000000000000000000000008152600401610b4c9190610de9565b60405180910390fd5b819050610b5e565b5b9392505050565b5f81511115610b7657805160208201fd5b6040517fd6bda27500000000000000000000000000000000000000000000000000000000815260040160405180910390fd5b5f604051905090565b5f5ffd5b5f5ffd5b5f73ffffffffffffffffffffffffffffffffffffffff82169050919050565b5f610be282610bb9565b9050919050565b610bf281610bd8565b8114610bfc575f5ffd5b50565b5f81359050610c0d81610be9565b92915050565b5f5ffd5b5f5ffd5b5f601f19601f8301169050919050565b7f4e487b71000000000000000000000000000000000000000000000000000000005f52604160045260245ffd5b610c6182610c1b565b810181811067ffffffffffffffff82111715610c8057610c7f610c2b565b5b80604052505050565b5f610c92610ba8565b9050610c9e8282610c58565b919050565b5f67ffffffffffffffff821115610cbd57610cbc610c2b565b5b610cc682610c1b565b9050602081019050919050565b828183375f83830152505050565b5f610cf3610cee84610ca3565b610c89565b905082815260208101848484011115610d0f57610d0e610c17565b5b610d1a848285610cd3565b509392505050565b5f82601f830112610d3657610d35610c13565b5b8135610d46848260208601610ce1565b91505092915050565b5f5f60408385031215610d6557610d64610bb1565b5b5f610d7285828601610bff565b925050602083013567ffffffffffffffff811115610d9357610d92610bb5565b5b610d9f85828601610d22565b9150509250929050565b5f819050919050565b610dbb81610da9565b82525050565b5f602082019050610dd45f830184610db2565b92915050565b610de381610bd8565b82525050565b5f602082019050610dfc5f830184610dda565b92915050565b5f81519050919050565b5f82825260208201905092915050565b8281835e5f83830152505050565b5f610e3482610e02565b610e3e8185610e0c565b9350610e4e818560208601610e1c565b610e5781610c1b565b840191505092915050565b5f6020820190508181035f830152610e7a8184610e2a565b905092915050565b5f60208284031215610e9757610e96610bb1565b5b5f610ea484828501610bff565b91505092915050565b5f819050919050565b5f67ffffffffffffffff82169050919050565b5f819050919050565b5f610eec610ee7610ee284610ead565b610ec9565b610eb6565b9050919050565b610efc81610ed2565b82525050565b5f602082019050610f155f830184610ef3565b92915050565b610f2481610da9565b8114610f2e575f5ffd5b50565b5f81519050610f3f81610f1b565b92915050565b5f60208284031215610f5a57610f59610bb1565b5b5f610f6784828501610f31565b91505092915050565b5f81519050919050565b5f81905092915050565b5f610f8e82610f70565b610f988185610f7a565b9350610fa8818560208601610e1c565b80840191505092915050565b5f610fbf8284610f84565b91508190509291505056fea26469706673582212207742debed2107dc73422f5f51d7156785c3160900bbabd1880573f40114e953464736f6c634300081d0033","linkReferences":{}},"methodIdentifiers":{"UPGRADE_INTERFACE_VERSION()":"ad3cb1cc","initialize()":"8129fc1c","owner()":"8da5cb5b","proxiableUUID()":"52d1902d","renounceOwnership()":"715018a6","transferOwnership(address)":"f2fde38b","upgradeToAndCall(address,bytes)":"4f1ef286"},"id":43}