{"abi":[{"type":"function","name":"calculateWinnerReadOnly","inputs":[],"outputs":[{"name":"","type":"uint256","internalType":"uint256"},{"name":"","type":"uint256","internalType":"uint256"},{"name":"","type":"address","internalType":"address"}],"stateMutability":"pure"},{"type":"function","name":"createTomiDispute","inputs":[{"name":"disputedAddress","type":"address","internalType":"address"},{"name":"","type":"string","internalType":"string"},{"name":"disputor","type":"address","internalType":"address"},{"name":"","type":"string","internalType":"string"},{"name":"","type":"uint256","internalType":"uint256"},{"name":"","type":"uint256","internalType":"uint256"}],"outputs":[{"name":"","type":"address","internalType":"address"}],"stateMutability":"nonpayable"},{"type":"function","name":"lastDisputeCreator","inputs":[],"outputs":[{"name":"","type":"address","internalType":"address"}],"stateMutability":"view"},{"type":"function","name":"lastDisputedAddress","inputs":[],"outputs":[{"name":"","type":"address","internalType":"address"}],"stateMutability":"view"},{"type":"function","name":"submitProof","inputs":[{"name":"","type":"address","internalType":"address"},{"name":"","type":"string","internalType":"string"}],"outputs":[],"stateMutability":"nonpayable"},{"type":"error","name":"EvmError","inputs":[]}],"bytecode":{"object":"0x6080604052348015600e575f5ffd5b506103e08061001c5f395ff3fe608060405234801561000f575f5ffd5b5060043610610064575f3560e01c8063a97e32db1161004d578063a97e32db146100d0578063e25d50b41461013d578063e76b8d8814610151575f5ffd5b80631973f02814610068578063493313491461008b575b5f5ffd5b604080515f80825260208201819052918101919091526060015b60405180910390f35b6001546100ab9073ffffffffffffffffffffffffffffffffffffffff1681565b60405173ffffffffffffffffffffffffffffffffffffffff9091168152602001610082565b6100ab6100de3660046101dd565b50505f805473ffffffffffffffffffffffffffffffffffffffff9485167fffffffffffffffffffffffff000000000000000000000000000000000000000091821617909155600180549790941696169590951790915550309392505050565b61014f61014b3660046102a9565b5050565b005b5f546100ab9073ffffffffffffffffffffffffffffffffffffffff1681565b803573ffffffffffffffffffffffffffffffffffffffff81168114610193575f5ffd5b919050565b5f5f83601f8401126101a8575f5ffd5b50813567ffffffffffffffff8111156101bf575f5ffd5b6020830191508360208285010111156101d6575f5ffd5b9250929050565b5f5f5f5f5f5f5f5f60c0898b0312156101f4575f5ffd5b6101fd89610170565b9750602089013567ffffffffffffffff811115610218575f5ffd5b6102248b828c01610198565b9098509650610237905060408a01610170565b9450606089013567ffffffffffffffff811115610252575f5ffd5b61025e8b828c01610198565b999c989b5096999598969760808701359660a0013595509350505050565b7f4e487b71000000000000000000000000000000000000000000000000000000005f52604160045260245ffd5b5f5f604083850312156102ba575f5ffd5b6102c383610170565b9150602083013567ffffffffffffffff8111156102de575f5ffd5b8301601f810185136102ee575f5ffd5b803567ffffffffffffffff8111156103085761030861027c565b6040517fffffffffffffffffffffffffffffffffffffffffffffffffffffffffffffffe0603f7fffffffffffffffffffffffffffffffffffffffffffffffffffffffffffffffe0601f8501160116810181811067ffffffffffffffff821117156103745761037461027c565b60405281815282820160200187101561038b575f5ffd5b816020840160208301375f60208383010152809350505050925092905056fea2646970667358221220498588cca1834273800b5fed187153cfec519429d76c72ac948d1a2ff985d7c664736f6c634300081d0033","linkReferences":{}},"methodIdentifiers":{"calculateWinnerReadOnly()":"1973f028","createTomiDispute(address,string,address,string,uint256,uint256)":"a97e32db","lastDisputeCreator()":"e76b8d88","lastDisputedAddress()":"49331349","submitProof(address,string)":"e25d50b4"},"id":46}