{"abi":[{"type":"constructor","inputs":[],"stateMutability":"nonpayable"},{"type":"function","name":"PPM","inputs":[],"outputs":[{"name":"","type":"uint256","internalType":"uint256"}],"stateMutability":"view"},{"type":"function","name":"UPGRADE_INTERFACE_VERSION","inputs":[],"outputs":[{"name":"","type":"string","internalType":"string"}],"stateMutability":"view"},{"type":"function","name":"USDT","inputs":[],"outputs":[{"name":"","type":"address","internalType":"address"}],"stateMutability":"view"},{"type":"function","name":"acceptEscrow","inputs":[{"name":"escrowID","type":"uint256","internalType":"uint256"}],"outputs":[],"stateMutability":"nonpayable"},{"type":"function","name":"approveEscrow","inputs":[{"name":"escrowID","type":"uint256","internalType":"uint256"}],"outputs":[],"stateMutability":"nonpayable"},{"type":"function","name":"createDispute","inputs":[{"name":"escrowID","type":"uint256","internalType":"uint256"},{"name":"amountinUSD","type":"uint256","internalType":"uint256"}],"outputs":[],"stateMutability":"nonpayable"},{"type":"function","name":"createEscrow","inputs":[{"name":"detailsURI","type":"string","internalType":"string"},{"name":"toAddress","type":"address","internalType":"address"},{"name":"tokenAddress","type":"address","internalType":"address"},{"name":"amountInUSDT","type":"uint256","internalType":"uint256"},{"name":"feeinPPM","type":"uint256","internalType":"uint256"},{"name":"deadline","type":"uint256","internalType":"uint256"},{"name":"disputeType","type":"uint8","internalType":"enum EscrowPayment.DisputeType"}],"outputs":[],"stateMutability":"nonpayable"},{"type":"function","name":"escrowId","inputs":[],"outputs":[{"name":"","type":"uint256","internalType":"uint256"}],"stateMutability":"view"},{"type":"function","name":"escrowPlatformFee","inputs":[],"outputs":[{"name":"","type":"uint256","internalType":"uint256"}],"stateMutability":"view"},{"type":"function","name":"escrowToDisputeType","inputs":[{"name":"escrowID","type":"uint256","internalType":"uint256"}],"outputs":[{"name":"disputeType","type":"uint8","internalType":"enum EscrowPayment.DisputeType"}],"stateMutability":"view"},{"type":"function","name":"escrows","inputs":[{"name":"taskId","type":"uint256","internalType":"uint256"}],"outputs":[{"name":"escrowDetialsURI","type":"string","internalType":"string"},{"name":"fromAddress","type":"address","internalType":"address"},{"name":"toAddress","type":"address","internalType":"address"},{"name":"tokenAddress","type":"address","internalType":"address"},{"name":"tokenAmount","type":"uint256","internalType":"uint256"},{"name":"feeinPPM","type":"uint256","internalType":"uint256"},{"name":"submissionDeadline","type":"uint256","internalType":"uint256"},{"name":"status","type":"uint8","internalType":"enum EscrowPayment.EscrowStatus"},{"name":"disputeType","type":"uint8","internalType":"enum EscrowPayment.DisputeType"}],"stateMutability":"view"},{"type":"function","name":"feeWallet","inputs":[],"outputs":[{"name":"","type":"address","internalType":"address"}],"stateMutability":"view"},{"type":"function","name":"initialize","inputs":[{"name":"feeWalletAddress","type":"address","internalType":"address"}],"outputs":[],"stateMutability":"nonpayable"},{"type":"function","name":"miniDisputeDealSizeFee","inputs":[],"outputs":[{"name":"","type":"uint256","internalType":"uint256"}],"stateMutability":"view"},{"type":"function","name":"owner","inputs":[],"outputs":[{"name":"","type":"address","internalType":"address"}],"stateMutability":"view"},{"type":"function","name":"proxiableUUID","inputs":[],"outputs":[{"name":"","type":"bytes32","internalType":"bytes32"}],"stateMutability":"view"},{"type":"function","name":"refundEscrow","inputs":[{"name":"escrowID","type":"uint256","internalType":"uint256"}],"outputs":[],"stateMutability":"nonpayable"},{"type":"function","name":"regularDisputeDealSizeFee","inputs":[],"outputs":[{"name":"","type":"uint256","internalType":"uint256"}],"stateMutability":"view"},{"type":"function","name":"renounceOwnership","inputs":[],"outputs":[],"stateMutability":"nonpayable"},{"type":"function","name":"resolveDispute","inputs":[{"name":"escrowID","type":"uint256","internalType":"uint256"}],"outputs":[],"stateMutability":"nonpayable"},{"type":"function","name":"swapandBurnContract","inputs":[],"outputs":[{"name":"","type":"address","internalType":"address"}],"stateMutability":"view"},{"type":"function","name":"tomiDisputeAddress","inputs":[],"outputs":[{"name":"","type":"address","internalType":"contract ITomiDispute"}],"stateMutability":"view"},{"type":"function","name":"transferOwnership","inputs":[{"name":"newOwner","type":"address","internalType":"address"}],"outputs":[],"stateMutability":"nonpayable"},{"type":"function","name":"upgradeToAndCall","inputs":[{"name":"newImplementation","type":"address","internalType":"address"},{"name":"data","type":"bytes","internalType":"bytes"}],"outputs":[],"stateMutability":"payable"},{"type":"event","name":"Initialized","inputs":[{"name":"version","type":"uint64","indexed":false,"internalType":"uint64"}],"anonymous":false},{"type":"event","name":"OwnershipTransferred","inputs":[{"name":"previousOwner","type":"address","indexed":true,"internalType":"address"},{"name":"newOwner","type":"address","indexed":true,"internalType":"address"}],"anonymous":false},{"type":"event","name":"Upgraded","inputs":[{"name":"implementation","type":"address","indexed":true,"internalType":"address"}],"anonymous":false},{"type":"error","name":"AddressEmptyCode","inputs":[{"name":"target","type":"address","internalType":"address"}]},{"type":"error","name":"AlreadyPaid","inputs":[]},{"type":"error","name":"ERC1967InvalidImplementation","inputs":[{"name":"implementation","type":"address","internalType":"address"}]},{"type":"error","name":"ERC1967NonPayable","inputs":[]},{"type":"error","name":"EscrowExpired","inputs":[]},{"type":"error","name":"FailedCall","inputs":[]},{"type":"error","name":"InDispute","inputs":[]},{"type":"error","name":"InsufficientAllowance","inputs":[]},{"type":"error","name":"InvalidDisputeType","inputs":[]},{"type":"error","name":"InvalidFee","inputs":[]},{"type":"error","name":"InvalidInitialization","inputs":[]},{"type":"error","name":"InvalidTime","inputs":[]},{"type":"error","name":"NotInDispute","inputs":[]},{"type":"error","name":"NotInitializing","inputs":[]},{"type":"error","name":"OnlyCreatedOneAreAllowed","inputs":[]},{"type":"error","name":"OnlySubmittedOneAreAllowed","inputs":[]},{"type":"error","name":"OnlyUsdtAllowed","inputs":[]},{"type":"error","name":"OwnableInvalidOwner","inputs":[{"name":"owner","type":"address","internalType":"address"}]},{"type":"error","name":"OwnableUnauthorizedAccount","inputs":[{"name":"account","type":"address","internalType":"address"}]},{"type":"error","name":"SafeERC20FailedOperation","inputs":[{"name":"token","type":"address","internalType":"address"}]},{"type":"error","name":"UUPSUnauthorizedCallContext","inputs":[]},{"type":"error","name":"UUPSUnsupportedProxiableUUID","inputs":[{"name":"slot","type":"bytes32","internalType":"bytes32"}]},{"type":"error","name":"YouAreNotAuthorized","inputs":[]},{"type":"error","name":"ZeroAddress","inputs":[]},{"type":"error","name":"ZeroAmount","inputs":[]}],"bytecode":{"object":"0x60a06040523073ffffffffffffffffffffffffffffffffffffffff1660809073ffffffffffffffffffffffffffffffffffffffff16815250348015610042575f5ffd5b5061005161005660201b60201c565b6101d1565b5f61006561015460201b60201c565b9050805f0160089054906101000a900460ff16156100af576040517ff92ee8a900000000000000000000000000000000000000000000000000000000815260040160405180910390fd5b67ffffffffffffffff8016815f015f9054906101000a900467ffffffffffffffff1667ffffffffffffffff16146101515767ffffffffffffffff815f015f6101000a81548167ffffffffffffffff021916908367ffffffffffffffff1602179055507fc7f505b2f371ae2175ee4913f4499e1f2633a7b5936321eed1cdaeb6115181d267ffffffffffffffff60405161014891906101b8565b60405180910390a15b50565b5f5f61016461016d60201b60201c565b90508091505090565b5f7ff0c57e16840df040f15088dc2f81fe391c3923bec73e23a9662efc9c229c6a005f1b905090565b5f67ffffffffffffffff82169050919050565b6101b281610196565b82525050565b5f6020820190506101cb5f8301846101a9565b92915050565b6080516133a96101f75f395f8181611e3301528181611e88015261204201526133a95ff3fe60806040526004361061014a575f3560e01c80638da5cb5b116100b5578063c4d66de81161006e578063c4d66de814610444578063c54e44eb1461046c578063ee28ea6214610496578063f25f4b56146104be578063f26999cd146104e8578063f2fde38b146105105761014a565b80638da5cb5b1461033857806398a06cdc14610362578063ad3cb1cc1461038c578063bec9028a146103b6578063c0741b08146103f2578063c2b7b8681461041c5761014a565b80634f1ef286116101075780634f1ef2861461026057806352d1902d1461027c5780635753d989146102a6578063715018a6146102d057806383d4da02146102e65780638a9c4102146103105761014a565b8063012f52ee1461014e57806303fce7ef14610192578063059f8454146101ba5780630d720bbc146101e457806332b094fa1461020e578063356f9dfd14610238575b5f5ffd5b348015610159575f5ffd5b50610174600480360381019061016f919061268b565b610538565b6040516101899998979695949392919061282d565b60405180910390f35b34801561019d575f5ffd5b506101b860048036038101906101b3919061268b565b61067e565b005b3480156101c5575f5ffd5b506101ce61093a565b6040516101db91906128bf565b60405180910390f35b3480156101ef575f5ffd5b506101f8610940565b60405161020591906128bf565b60405180910390f35b348015610219575f5ffd5b50610222610947565b60405161022f91906128d8565b60405180910390f35b348015610243575f5ffd5b5061025e6004803603810190610259919061268b565b61096c565b005b61027a60048036038101906102759190612a47565b610b58565b005b348015610287575f5ffd5b50610290610b77565b60405161029d9190612ab9565b60405180910390f35b3480156102b1575f5ffd5b506102ba610ba8565b6040516102c791906128bf565b60405180910390f35b3480156102db575f5ffd5b506102e4610bae565b005b3480156102f1575f5ffd5b506102fa610bc1565b6040516103079190612b2d565b60405180910390f35b34801561031b575f5ffd5b5061033660048036038101906103319190612c07565b610be5565b005b348015610343575f5ffd5b5061034c6110da565b60405161035991906128d8565b60405180910390f35b34801561036d575f5ffd5b5061037661110f565b60405161038391906128bf565b60405180910390f35b348015610397575f5ffd5b506103a0611115565b6040516103ad9190612cc0565b60405180910390f35b3480156103c1575f5ffd5b506103dc60048036038101906103d7919061268b565b61114e565b6040516103e99190612ce0565b60405180910390f35b3480156103fd575f5ffd5b5061040661116b565b60405161041391906128bf565b60405180910390f35b348015610427575f5ffd5b50610442600480360381019061043d919061268b565b611171565b005b34801561044f575f5ffd5b5061046a60048036038101906104659190612cf9565b6114d9565b005b348015610477575f5ffd5b506104806116f6565b60405161048d91906128d8565b60405180910390f35b3480156104a1575f5ffd5b506104bc60048036038101906104b7919061268b565b61171b565b005b3480156104c9575f5ffd5b506104d2611892565b6040516104df91906128d8565b60405180910390f35b3480156104f3575f5ffd5b5061050e60048036038101906105099190612d24565b6118b7565b005b34801561051b575f5ffd5b5061053660048036038101906105319190612cf9565b611cac565b005b6005602052805f5260405f205f91509050805f01805461055790612d8f565b80601f016020809104026020016040519081016040528092919081815260200182805461058390612d8f565b80156105ce5780601f106105a5576101008083540402835291602001916105ce565b820191905f5260205f20905b8154815290600101906020018083116105b157829003601f168201915b505050505090806001015f9054906101000a900473ffffffffffffffffffffffffffffffffffffffff1690806002015f9054906101000a900473ffffffffffffffffffffffffffffffffffffffff1690806003015f9054906101000a900473ffffffffffffffffffffffffffffffffffffffff1690806004015490806005015490806006015490806007015f9054906101000a900460ff16908060070160019054906101000a900460ff16905089565b5f60055f8381526020019081526020015f2090503373ffffffffffffffffffffffffffffffffffffffff16816001015f9054906101000a900473ffffffffffffffffffffffffffffffffffffffff1673ffffffffffffffffffffffffffffffffffffffff161461071a576040517fc7e1fa0900000000000000000000000000000000000000000000000000000000815260040160405180910390fd5b6002600581111561072e5761072d612774565b5b816007015f9054906101000a900460ff16600581111561075157610750612774565b5b14610788576040517fa448418400000000000000000000000000000000000000000000000000000000815260040160405180910390fd5b60058081111561079b5761079a612774565b5b816007015f9054906101000a900460ff1660058111156107be576107bd612774565b5b036107f5576040517f0a30a94d00000000000000000000000000000000000000000000000000000000815260040160405180910390fd5b6003816007015f6101000a81548160ff0219169083600581111561081c5761081b612774565b5b02179055505f620f42408260050154836004015461083a9190612dec565b6108449190612e5a565b90506108b560035f9054906101000a900473ffffffffffffffffffffffffffffffffffffffff1682846003015f9054906101000a900473ffffffffffffffffffffffffffffffffffffffff1673ffffffffffffffffffffffffffffffffffffffff16611d309092919063ffffffff16565b610935826002015f9054906101000a900473ffffffffffffffffffffffffffffffffffffffff168284600401546108ec9190612e8a565b846003015f9054906101000a900473ffffffffffffffffffffffffffffffffffffffff1673ffffffffffffffffffffffffffffffffffffffff16611d309092919063ffffffff16565b505050565b61138881565b620f424081565b60035f9054906101000a900473ffffffffffffffffffffffffffffffffffffffff1681565b5f60055f8381526020019081526020015f2090503373ffffffffffffffffffffffffffffffffffffffff16816001015f9054906101000a900473ffffffffffffffffffffffffffffffffffffffff1673ffffffffffffffffffffffffffffffffffffffff1614610a08576040517fc7e1fa0900000000000000000000000000000000000000000000000000000000815260040160405180910390fd5b5f6005811115610a1b57610a1a612774565b5b816007015f9054906101000a900460ff166005811115610a3e57610a3d612774565b5b14610a75576040517f340eba5300000000000000000000000000000000000000000000000000000000815260040160405180910390fd5b4281600601541015610ab3576040517f3c4fac2d00000000000000000000000000000000000000000000000000000000815260040160405180910390fd5b6004816007015f6101000a81548160ff02191690836005811115610ada57610ad9612774565b5b0217905550610b5430826001015f9054906101000a900473ffffffffffffffffffffffffffffffffffffffff16836004015460045f9054906101000a900473ffffffffffffffffffffffffffffffffffffffff1673ffffffffffffffffffffffffffffffffffffffff16611daf909392919063ffffffff16565b5050565b610b60611e31565b610b6982611f17565b610b738282611f22565b5050565b5f610b80612040565b7f360894a13ba1a3210667c828492db98dca3e2076cc3735a920a3ca505d382bbc5f1b905090565b60015481565b610bb66120c7565b610bbf5f61214e565b565b5f5f9054906101000a900473ffffffffffffffffffffffffffffffffffffffff1681565b5f73ffffffffffffffffffffffffffffffffffffffff168673ffffffffffffffffffffffffffffffffffffffff1603610c4a576040517fd92e233d00000000000000000000000000000000000000000000000000000000815260040160405180910390fd5b5f84148015610c5857505f83145b15610c8f576040517f1f2a200500000000000000000000000000000000000000000000000000000000815260040160405180910390fd5b42821115610cc9576040517f6f7eac2600000000000000000000000000000000000000000000000000000000815260040160405180910390fd5b5f6001811115610cdc57610cdb612774565b5b816001811115610cef57610cee612774565b5b14158015610d215750600180811115610d0b57610d0a612774565b5b816001811115610d1e57610d1d612774565b5b14155b15610d58576040517f97cf712c00000000000000000000000000000000000000000000000000000000815260040160405180910390fd5b60045f9054906101000a900473ffffffffffffffffffffffffffffffffffffffff1673ffffffffffffffffffffffffffffffffffffffff168573ffffffffffffffffffffffffffffffffffffffff1614610dde576040517f2d28e92b00000000000000000000000000000000000000000000000000000000815260040160405180910390fd5b60015f815480929190610df090612ebd565b9190505550610e483330620f424061271088610e0c9190612dec565b610e169190612e5a565b87610e219190612f04565b8873ffffffffffffffffffffffffffffffffffffffff16611daf909392919063ffffffff16565b610eb13060025f9054906101000a900473ffffffffffffffffffffffffffffffffffffffff16620f424061271088610e809190612dec565b610e8a9190612e5a565b8873ffffffffffffffffffffffffffffffffffffffff16611daf909392919063ffffffff16565b6040518061012001604052808881526020013373ffffffffffffffffffffffffffffffffffffffff1681526020018773ffffffffffffffffffffffffffffffffffffffff1681526020018673ffffffffffffffffffffffffffffffffffffffff1681526020018581526020018481526020018381526020015f6005811115610f3c57610f3b612774565b5b8152602001826001811115610f5457610f53612774565b5b81525060055f60015481526020019081526020015f205f820151815f019081610f7d91906130ce565b506020820151816001015f6101000a81548173ffffffffffffffffffffffffffffffffffffffff021916908373ffffffffffffffffffffffffffffffffffffffff1602179055506040820151816002015f6101000a81548173ffffffffffffffffffffffffffffffffffffffff021916908373ffffffffffffffffffffffffffffffffffffffff1602179055506060820151816003015f6101000a81548173ffffffffffffffffffffffffffffffffffffffff021916908373ffffffffffffffffffffffffffffffffffffffff1602179055506080820151816004015560a0820151816005015560c0820151816006015560e0820151816007015f6101000a81548160ff0219169083600581111561109857611097612774565b5b02179055506101008201518160070160016101000a81548160ff021916908360018111156110c9576110c8612774565b5b021790555090505050505050505050565b5f5f6110e461221f565b9050805f015f9054906101000a900473ffffffffffffffffffffffffffffffffffffffff1691505090565b61271081565b6040518060400160405280600581526020017f352e302e3000000000000000000000000000000000000000000000000000000081525081565b6006602052805f5260405f205f915054906101000a900460ff1681565b6109c481565b5f60055f8381526020019081526020015f2090503373ffffffffffffffffffffffffffffffffffffffff16816001015f9054906101000a900473ffffffffffffffffffffffffffffffffffffffff1673ffffffffffffffffffffffffffffffffffffffff1614158061123257503373ffffffffffffffffffffffffffffffffffffffff16816002015f9054906101000a900473ffffffffffffffffffffffffffffffffffffffff1673ffffffffffffffffffffffffffffffffffffffff1614155b15611269576040517fc7e1fa0900000000000000000000000000000000000000000000000000000000815260040160405180910390fd5b60058081111561127c5761127b612774565b5b816007015f9054906101000a900460ff16600581111561129f5761129e612774565b5b146112d6576040517f49dfe70300000000000000000000000000000000000000000000000000000000815260040160405180910390fd5b5f816001015f9054906101000a900473ffffffffffffffffffffffffffffffffffffffff1673ffffffffffffffffffffffffffffffffffffffff168173ffffffffffffffffffffffffffffffffffffffff160361135e576004826007015f6101000a81548160ff0219169083600581111561135457611353612774565b5b02179055506113e2565b816002015f9054906101000a900473ffffffffffffffffffffffffffffffffffffffff1673ffffffffffffffffffffffffffffffffffffffff168173ffffffffffffffffffffffffffffffffffffffff16036113e1576003826007015f6101000a81548160ff021916908360058111156113db576113da612774565b5b02179055505b5b5f620f4240836005015484600401546113fb9190612dec565b6114059190612e5a565b905061147660035f9054906101000a900473ffffffffffffffffffffffffffffffffffffffff1682856003015f9054906101000a900473ffffffffffffffffffffffffffffffffffffffff1673ffffffffffffffffffffffffffffffffffffffff16611d309092919063ffffffff16565b6114d38282856004015461148a9190612e8a565b856003015f9054906101000a900473ffffffffffffffffffffffffffffffffffffffff1673ffffffffffffffffffffffffffffffffffffffff16611d309092919063ffffffff16565b50505050565b5f6114e2612246565b90505f815f0160089054906101000a900460ff161590505f825f015f9054906101000a900467ffffffffffffffff1690505f5f8267ffffffffffffffff1614801561152a5750825b90505f60018367ffffffffffffffff1614801561155d57505f3073ffffffffffffffffffffffffffffffffffffffff163b145b90508115801561156b575080155b156115a2576040517ff92ee8a900000000000000000000000000000000000000000000000000000000815260040160405180910390fd5b6001855f015f6101000a81548167ffffffffffffffff021916908367ffffffffffffffff16021790555083156115ef576001855f0160086101000a81548160ff0219169083151502179055505b5f73ffffffffffffffffffffffffffffffffffffffff168673ffffffffffffffffffffffffffffffffffffffff1603611654576040517fd92e233d00000000000000000000000000000000000000000000000000000000815260040160405180910390fd5b8560025f6101000a81548173ffffffffffffffffffffffffffffffffffffffff021916908373ffffffffffffffffffffffffffffffffffffffff16021790555083156116ee575f855f0160086101000a81548160ff0219169083151502179055507fc7f505b2f371ae2175ee4913f4499e1f2633a7b5936321eed1cdaeb6115181d260016040516116e591906131e9565b60405180910390a15b505050505050565b60045f9054906101000a900473ffffffffffffffffffffffffffffffffffffffff1681565b5f60055f8381526020019081526020015f2090503373ffffffffffffffffffffffffffffffffffffffff16816002015f9054906101000a900473ffffffffffffffffffffffffffffffffffffffff1673ffffffffffffffffffffffffffffffffffffffff16146117b7576040517fc7e1fa0900000000000000000000000000000000000000000000000000000000815260040160405180910390fd5b5f60058111156117ca576117c9612774565b5b816007015f9054906101000a900460ff1660058111156117ed576117ec612774565b5b14611824576040517f340eba5300000000000000000000000000000000000000000000000000000000815260040160405180910390fd5b4281600601541015611862576040517f3c4fac2d00000000000000000000000000000000000000000000000000000000815260040160405180910390fd5b6001816007015f6101000a81548160ff0219169083600581111561188957611888612774565b5b02179055505050565b60025f9054906101000a900473ffffffffffffffffffffffffffffffffffffffff1681565b5f60055f8481526020019081526020015f2090503373ffffffffffffffffffffffffffffffffffffffff16816001015f9054906101000a900473ffffffffffffffffffffffffffffffffffffffff1673ffffffffffffffffffffffffffffffffffffffff1614158061197857503373ffffffffffffffffffffffffffffffffffffffff16816002015f9054906101000a900473ffffffffffffffffffffffffffffffffffffffff1673ffffffffffffffffffffffffffffffffffffffff1614155b156119af576040517fc7e1fa0900000000000000000000000000000000000000000000000000000000815260040160405180910390fd5b6001808111156119c2576119c1612774565b5b8160070160019054906101000a900460ff1660018111156119e6576119e5612774565b5b1480156119f657506317d7840082105b15611a2d576040517f58d620b300000000000000000000000000000000000000000000000000000000815260040160405180910390fd5b5f6001811115611a4057611a3f612774565b5b8160070160019054906101000a900460ff166001811115611a6457611a63612774565b5b148015611a73575062e4e1c082105b15611aaa576040517f58d620b300000000000000000000000000000000000000000000000000000000815260040160405180910390fd5b5f5f6001811115611abe57611abd612774565b5b8260070160019054906101000a900460ff166001811115611ae257611ae1612774565b5b03611b1957620f42406113888360040154611afd9190612dec565b611b079190612e5a565b83611b129190612f04565b9050611b84565b600180811115611b2c57611b2b612774565b5b8260070160019054906101000a900460ff166001811115611b5057611b4f612774565b5b03611b8357620f42406109c48360040154611b6b9190612dec565b611b759190612e5a565b83611b809190612f04565b90505b5b8060045f9054906101000a900473ffffffffffffffffffffffffffffffffffffffff1673ffffffffffffffffffffffffffffffffffffffff1663dd62ed3e335f5f9054906101000a900473ffffffffffffffffffffffffffffffffffffffff166040518363ffffffff1660e01b8152600401611c01929190613202565b602060405180830381865afa158015611c1c573d5f5f3e3d5ffd5b505050506040513d601f19601f82011682018060405250810190611c40919061323d565b1015611c78576040517f13be252b00000000000000000000000000000000000000000000000000000000815260040160405180910390fd5b5f6005836007015f6101000a81548160ff02191690836005811115611ca057611c9f612774565b5b02179055505050505050565b611cb46120c7565b5f73ffffffffffffffffffffffffffffffffffffffff168173ffffffffffffffffffffffffffffffffffffffff1603611d24575f6040517f1e4fbdf7000000000000000000000000000000000000000000000000000000008152600401611d1b91906128d8565b60405180910390fd5b611d2d8161214e565b50565b611daa838473ffffffffffffffffffffffffffffffffffffffff1663a9059cbb8585604051602401611d63929190613268565b604051602081830303815290604052915060e01b6020820180517bffffffffffffffffffffffffffffffffffffffffffffffffffffffff8381831617835250505050612259565b505050565b611e2b848573ffffffffffffffffffffffffffffffffffffffff166323b872dd868686604051602401611de49392919061328f565b604051602081830303815290604052915060e01b6020820180517bffffffffffffffffffffffffffffffffffffffffffffffffffffffff8381831617835250505050612259565b50505050565b7f000000000000000000000000000000000000000000000000000000000000000073ffffffffffffffffffffffffffffffffffffffff163073ffffffffffffffffffffffffffffffffffffffff161480611ede57507f000000000000000000000000000000000000000000000000000000000000000073ffffffffffffffffffffffffffffffffffffffff16611ec56122f4565b73ffffffffffffffffffffffffffffffffffffffff1614155b15611f15576040517fe07c8dba00000000000000000000000000000000000000000000000000000000815260040160405180910390fd5b565b611f1f6120c7565b50565b8173ffffffffffffffffffffffffffffffffffffffff166352d1902d6040518163ffffffff1660e01b8152600401602060405180830381865afa925050508015611f8a57506040513d601f19601f82011682018060405250810190611f8791906132ee565b60015b611fcb57816040517f4c9c8ce3000000000000000000000000000000000000000000000000000000008152600401611fc291906128d8565b60405180910390fd5b7f360894a13ba1a3210667c828492db98dca3e2076cc3735a920a3ca505d382bbc5f1b811461203157806040517faa1d49a40000000000000000000000000000000000000000000000000000000081526004016120289190612ab9565b60405180910390fd5b61203b8383612347565b505050565b7f000000000000000000000000000000000000000000000000000000000000000073ffffffffffffffffffffffffffffffffffffffff163073ffffffffffffffffffffffffffffffffffffffff16146120c5576040517fe07c8dba00000000000000000000000000000000000000000000000000000000815260040160405180910390fd5b565b6120cf6123b9565b73ffffffffffffffffffffffffffffffffffffffff166120ed6110da565b73ffffffffffffffffffffffffffffffffffffffff161461214c576121106123b9565b6040517f118cdaa700000000000000000000000000000000000000000000000000000000815260040161214391906128d8565b60405180910390fd5b565b5f61215761221f565b90505f815f015f9054906101000a900473ffffffffffffffffffffffffffffffffffffffff16905082825f015f6101000a81548173ffffffffffffffffffffffffffffffffffffffff021916908373ffffffffffffffffffffffffffffffffffffffff1602179055508273ffffffffffffffffffffffffffffffffffffffff168173ffffffffffffffffffffffffffffffffffffffff167f8be0079c531659141344cd1fd0a4f28419497f9722a3daafe3b4186f6b6457e060405160405180910390a3505050565b5f7f9016d09d72d40fdae2fd8ceac6b6234c7706214fd39c1cd1e609a0528c199300905090565b5f5f6122506123c0565b90508091505090565b5f5f60205f8451602086015f885af180612278576040513d5f823e3d81fd5b3d92505f519150505f82146122915760018114156122ac565b5f8473ffffffffffffffffffffffffffffffffffffffff163b145b156122ee57836040517f5274afe70000000000000000000000000000000000000000000000000000000081526004016122e591906128d8565b60405180910390fd5b50505050565b5f6123207f360894a13ba1a3210667c828492db98dca3e2076cc3735a920a3ca505d382bbc5f1b6123e9565b5f015f9054906101000a900473ffffffffffffffffffffffffffffffffffffffff16905090565b612350826123f2565b8173ffffffffffffffffffffffffffffffffffffffff167fbc7cd75a20ee27fd9adebab32041f755214dbc6bffa90cc0225b39da2e5c2d3b60405160405180910390a25f815111156123ac576123a682826124bb565b506123b5565b6123b461253b565b5b5050565b5f33905090565b5f7ff0c57e16840df040f15088dc2f81fe391c3923bec73e23a9662efc9c229c6a005f1b905090565b5f819050919050565b5f8173ffffffffffffffffffffffffffffffffffffffff163b0361244d57806040517f4c9c8ce300000000000000000000000000000000000000000000000000000000815260040161244491906128d8565b60405180910390fd5b806124797f360894a13ba1a3210667c828492db98dca3e2076cc3735a920a3ca505d382bbc5f1b6123e9565b5f015f6101000a81548173ffffffffffffffffffffffffffffffffffffffff021916908373ffffffffffffffffffffffffffffffffffffffff16021790555050565b60605f5f8473ffffffffffffffffffffffffffffffffffffffff16846040516124e4919061335d565b5f60405180830381855af49150503d805f811461251c576040519150601f19603f3d011682016040523d82523d5f602084013e612521565b606091505b5091509150612531858383612577565b9250505092915050565b5f341115612575576040517fb398979f00000000000000000000000000000000000000000000000000000000815260040160405180910390fd5b565b60608261258c5761258782612604565b6125fc565b5f82511480156125b257505f8473ffffffffffffffffffffffffffffffffffffffff163b145b156125f457836040517f9996b3150000000000000000000000000000000000000000000000000000000081526004016125eb91906128d8565b60405180910390fd5b8190506125fd565b5b9392505050565b5f8151111561261557805160208201fd5b6040517fd6bda27500000000000000000000000000000000000000000000000000000000815260040160405180910390fd5b5f604051905090565b5f5ffd5b5f5ffd5b5f819050919050565b61266a81612658565b8114612674575f5ffd5b50565b5f8135905061268581612661565b92915050565b5f602082840312156126a05761269f612650565b5b5f6126ad84828501612677565b91505092915050565b5f81519050919050565b5f82825260208201905092915050565b8281835e5f83830152505050565b5f601f19601f8301169050919050565b5f6126f8826126b6565b61270281856126c0565b93506127128185602086016126d0565b61271b816126de565b840191505092915050565b5f73ffffffffffffffffffffffffffffffffffffffff82169050919050565b5f61274f82612726565b9050919050565b61275f81612745565b82525050565b61276e81612658565b82525050565b7f4e487b71000000000000000000000000000000000000000000000000000000005f52602160045260245ffd5b600681106127b2576127b1612774565b5b50565b5f8190506127c2826127a1565b919050565b5f6127d1826127b5565b9050919050565b6127e1816127c7565b82525050565b600281106127f8576127f7612774565b5b50565b5f819050612808826127e7565b919050565b5f612817826127fb565b9050919050565b6128278161280d565b82525050565b5f610120820190508181035f830152612846818c6126ee565b9050612855602083018b612756565b612862604083018a612756565b61286f6060830189612756565b61287c6080830188612765565b61288960a0830187612765565b61289660c0830186612765565b6128a360e08301856127d8565b6128b161010083018461281e565b9a9950505050505050505050565b5f6020820190506128d25f830184612765565b92915050565b5f6020820190506128eb5f830184612756565b92915050565b6128fa81612745565b8114612904575f5ffd5b50565b5f81359050612915816128f1565b92915050565b5f5ffd5b5f5ffd5b7f4e487b71000000000000000000000000000000000000000000000000000000005f52604160045260245ffd5b612959826126de565b810181811067ffffffffffffffff8211171561297857612977612923565b5b80604052505050565b5f61298a612647565b90506129968282612950565b919050565b5f67ffffffffffffffff8211156129b5576129b4612923565b5b6129be826126de565b9050602081019050919050565b828183375f83830152505050565b5f6129eb6129e68461299b565b612981565b905082815260208101848484011115612a0757612a0661291f565b5b612a128482856129cb565b509392505050565b5f82601f830112612a2e57612a2d61291b565b5b8135612a3e8482602086016129d9565b91505092915050565b5f5f60408385031215612a5d57612a5c612650565b5b5f612a6a85828601612907565b925050602083013567ffffffffffffffff811115612a8b57612a8a612654565b5b612a9785828601612a1a565b9150509250929050565b5f819050919050565b612ab381612aa1565b82525050565b5f602082019050612acc5f830184612aaa565b92915050565b5f819050919050565b5f612af5612af0612aeb84612726565b612ad2565b612726565b9050919050565b5f612b0682612adb565b9050919050565b5f612b1782612afc565b9050919050565b612b2781612b0d565b82525050565b5f602082019050612b405f830184612b1e565b92915050565b5f67ffffffffffffffff821115612b6057612b5f612923565b5b612b69826126de565b9050602081019050919050565b5f612b88612b8384612b46565b612981565b905082815260208101848484011115612ba457612ba361291f565b5b612baf8482856129cb565b509392505050565b5f82601f830112612bcb57612bca61291b565b5b8135612bdb848260208601612b76565b91505092915050565b60028110612bf0575f5ffd5b50565b5f81359050612c0181612be4565b92915050565b5f5f5f5f5f5f5f60e0888a031215612c2257612c21612650565b5b5f88013567ffffffffffffffff811115612c3f57612c3e612654565b5b612c4b8a828b01612bb7565b9750506020612c5c8a828b01612907565b9650506040612c6d8a828b01612907565b9550506060612c7e8a828b01612677565b9450506080612c8f8a828b01612677565b93505060a0612ca08a828b01612677565b92505060c0612cb18a828b01612bf3565b91505092959891949750929550565b5f6020820190508181035f830152612cd881846126ee565b905092915050565b5f602082019050612cf35f83018461281e565b92915050565b5f60208284031215612d0e57612d0d612650565b5b5f612d1b84828501612907565b91505092915050565b5f5f60408385031215612d3a57612d39612650565b5b5f612d4785828601612677565b9250506020612d5885828601612677565b9150509250929050565b7f4e487b71000000000000000000000000000000000000000000000000000000005f52602260045260245ffd5b5f6002820490506001821680612da657607f821691505b602082108103612db957612db8612d62565b5b50919050565b7f4e487b71000000000000000000000000000000000000000000000000000000005f52601160045260245ffd5b5f612df682612658565b9150612e0183612658565b9250828202612e0f81612658565b91508282048414831517612e2657612e25612dbf565b5b5092915050565b7f4e487b71000000000000000000000000000000000000000000000000000000005f52601260045260245ffd5b5f612e6482612658565b9150612e6f83612658565b925082612e7f57612e7e612e2d565b5b828204905092915050565b5f612e9482612658565b9150612e9f83612658565b9250828203905081811115612eb757612eb6612dbf565b5b92915050565b5f612ec782612658565b91507fffffffffffffffffffffffffffffffffffffffffffffffffffffffffffffffff8203612ef957612ef8612dbf565b5b600182019050919050565b5f612f0e82612658565b9150612f1983612658565b9250828201905080821115612f3157612f30612dbf565b5b92915050565b5f819050815f5260205f209050919050565b5f6020601f8301049050919050565b5f82821b905092915050565b5f60088302612f937fffffffffffffffffffffffffffffffffffffffffffffffffffffffffffffffff82612f58565b612f9d8683612f58565b95508019841693508086168417925050509392505050565b5f612fcf612fca612fc584612658565b612ad2565b612658565b9050919050565b5f819050919050565b612fe883612fb5565b612ffc612ff482612fd6565b848454612f64565b825550505050565b5f5f905090565b613013613004565b61301e818484612fdf565b505050565b5b81811015613041576130365f8261300b565b600181019050613024565b5050565b601f8211156130865761305781612f37565b61306084612f49565b8101602085101561306f578190505b61308361307b85612f49565b830182613023565b50505b505050565b5f82821c905092915050565b5f6130a65f198460080261308b565b1980831691505092915050565b5f6130be8383613097565b9150826002028217905092915050565b6130d7826126b6565b67ffffffffffffffff8111156130f0576130ef612923565b5b6130fa8254612d8f565b613105828285613045565b5f60209050601f831160018114613136575f8415613124578287015190505b61312e85826130b3565b865550613195565b601f19841661314486612f37565b5f5b8281101561316b57848901518255600182019150602085019450602081019050613146565b868310156131885784890151613184601f891682613097565b8355505b6001600288020188555050505b505050505050565b5f819050919050565b5f67ffffffffffffffff82169050919050565b5f6131d36131ce6131c98461319d565b612ad2565b6131a6565b9050919050565b6131e3816131b9565b82525050565b5f6020820190506131fc5f8301846131da565b92915050565b5f6040820190506132155f830185612756565b6132226020830184612756565b9392505050565b5f8151905061323781612661565b92915050565b5f6020828403121561325257613251612650565b5b5f61325f84828501613229565b91505092915050565b5f60408201905061327b5f830185612756565b6132886020830184612765565b9392505050565b5f6060820190506132a25f830186612756565b6132af6020830185612756565b6132bc6040830184612765565b949350505050565b6132cd81612aa1565b81146132d7575f5ffd5b50565b5f815190506132e8816132c4565b92915050565b5f6020828403121561330357613302612650565b5b5f613310848285016132da565b91505092915050565b5f81519050919050565b5f81905092915050565b5f61333782613319565b6133418185613323565b93506133518185602086016126d0565b80840191505092915050565b5f613368828461332d565b91508190509291505056fea264697066735822122036de88762cf7f1053060a70a1481dc5d52980958d3e1a530da720d036f3ec12464736f6c634300081d0033","linkReferences":{}},"methodIdentifiers":{"PPM()":"0d720bbc","UPGRADE_INTERFACE_VERSION()":"ad3cb1cc","USDT()":"c54e44eb","acceptEscrow(uint256)":"ee28ea62","approveEscrow(uint256)":"03fce7ef","createDispute(uint256,uint256)":"f26999cd","createEscrow(string,address,address,uint256,uint256,uint256,uint8)":"8a9c4102","escrowId()":"5753d989","escrowPlatformFee()":"98a06cdc","escrowToDisputeType(uint256)":"bec9028a","escrows(uint256)":"012f52ee","feeWallet()":"f25f4b56","initialize(address)":"c4d66de8","miniDisputeDealSizeFee()":"059f8454","owner()":"8da5cb5b","proxiableUUID()":"52d1902d","refundEscrow(uint256)":"356f9dfd","regularDisputeDealSizeFee()":"c0741b08","renounceOwnership()":"715018a6","resolveDispute(uint256)":"c2b7b868","swapandBurnContract()":"32b094fa","tomiDisputeAddress()":"83d4da02","transferOwnership(address)":"f2fde38b","upgradeToAndCall(address,bytes)":"4f1ef286"},"id":26}